:020000040800F2
:100000000050002089070008CF070008D10700082A
:10001000D3070008D5070008D70700080000000034
:10002000000000000000000000000000D9070008E8
:10003000DB07000800000000DD070008DF070008FC
:10004000E3070008E5070008E7070008E9070008DC
:10005000EB070008ED070008EF070008F1070008AC
:10006000F3070008F5070008F7070008F90700087C
:10007000FB070008FD070008FF070008010800084B
:100080000308000805080008070800080908000818
:100090000B0800080D0800080F08000811080008E8
:1000A00013080008150800081708000819080008B8
:1000B0001B0800081D0800081F0800082108000888
:1000C0002308000825080008270800082908000858
:1000D0002B0800082D0800082F0800083108000828
:1000E00033080008350800083708000810B5054C2B
:1000F000237833B9044B13B10448AFF300800123D4
:10010000237010BD68000020000000004C0A0008A9
:10011000084B10B51BB108490848AFF300800848E8
:10012000036803B910BD074B002BFBD0BDE810409E
:10013000184700BF000000006C0000204C0A0008B7
:100140006800002000000000154B002B08BF134B77
:100150009D46A3F5803A00218B460F461348144A6A
:10016000121A00F029FC0F4B002B00D098470E4BC1
:10017000002B00D098470020002104000D000D48FE
:10018000002802D00C48AFF3008000F0EFFB200005
:10019000290000F0CBFA00F0D5FB00BF00000800FA
:1001A0000050002000000000000000006800002057
:1001B0009C000020000000000000000010B54FF47B
:1001C000404000F083F9174A174C9369204643F4E6
:1001D0000073936100F0DEF82146144A0023636047
:1001E000A260E362A36843F00103A360A36843F045
:1001F0000803A3608B680C4A1807FBD41146936868
:1002000043F0040393608B68074A5B07FBD40849FB
:100210000B6943F010030B61536843F020035360F4
:1002200010BD00BF001002400024014000080E0075
:1002300000ED00E0092830B421DC184C00EB40054B
:1002400022690723AB40A94022EA03031943216135
:10025000124B002458639A68114842F001029A60D8
:100260001C604FF4802219461B68C0F8802120BF13
:100270000B680A4A9B07FAD5D06C30BC7047074D13
:10028000A0F10A0303EB4303EA6807249C4099406A
:1002900022EA04031943E960DAE700BF00240140C1
:1002A00000E100E008B5FFF7C5FF000908BD00BF89
:1002B000184B4FF0000C1A462DE9F0414142012441
:1002C00089B20138DFF85480DFF854E0124F998486
:1002D000000C1C804FF08046D8E90045A2F810C001
:1002E000138ACEF8806120BF138A0A499BB2002B83
:1002F000F9D0BB68013823445B4223F07F43E41804
:1003000045F10005431CE9D1C8E9004500230B80F5
:10031000BDE8F0810008004010E000E08800002007
:1003200000E100E04FF47A7303FB00F000B970477E
:10033000FFF7BEBFF0B44FF6FF76114B0021114D11
:100340006FF07F400522586099601A60EA690E4B91
:1003500001200E4C42F004024727EA6119801F85F4
:100360009E85988222690A4942F010022261988192
:100370000B6823F0070303430B60F0BC704700BF1A
:1003800010E000E0001002400008004000ED00E036
:100390000020024008B5174B984212D0164B9842E5
:1003A0001BD0164B984200D008BD01214FF40040ED
:1003B00000F0B2F8BDE8084000214FF4004000F022
:1003C000ABB801214FF4007000F0A6F8BDE808407A
:1003D00000214FF4007000F09FB801214FF48060BD
:1003E00000F09AF8BDE8084000214FF4806000F06A
:1003F00093B800BF0024014000280140003C0140A8
:10040000CB782DE9F04103F00F06DB0648BF8B786F
:100410000C8848BF1E4314F0FF0F26D00568002348
:1004200001274FF00F0803E00133082B1BD00C8885
:1004300007FA03F232EA0404F6D19C0091F803E0D3
:1004400008FA04FC25EA0C0506FA04F4BEF1280FAC
:1004500045EA040538D0BEF1480F03F1010308BF97
:100460000261082BE3D105600C88FF2C2AD945686E
:10047000002301274FF00F0C03E00133082B20D09D
:100480000C8803F1080207FA02F232EA0404F4D1FC
:1004900091F803E09C00BEF1280F04BF426191F87F
:1004A00003E00CFA04F8BEF1480F03F1010325EA5A
:1004B000080506FA04F408BF0261082B45EA0405A2
:1004C000DED14560BDE8F0814261ADE7034A536883
:1004D00023F4404318435060704700BF00100240AF
:1004E00029B9054A936923EA000090617047024BDD
:1004F0009A691043986170470010024029B9054A73
:10050000D36923EA0000D0617047024BDA691043D7
:10051000D86170470010024029B9054AD36823EA20
:100520000000D0607047024BDA681043D860704713
:1005300000100240254A038890429BB212D002F577
:10054000006290420ED0B0F1804F0BD0A2F59832ED
:10055000904207D002F58062904203D002F580629B
:10056000904203D14A8823F070031343184A904203
:1005700024D002F58062904220D0CA8823F44073D0
:100580009BB2134303808A88104B82850A88984265
:1005900002850ED00F4B98420BD003F54063984272
:1005A00007D003F58063984203D003F58063984237
:1005B00001D10B7A038601238382704703808B88E5
:1005C00083850B880385012383827047002C0140BB
:1005D0000010004000340140038CF0B423F01003FD
:1005E0001B041B0C0384038C858823F02003028BDF
:1005F0000C891B0422F4E6421B0C43EA0413174E39
:100600000C8812044F88120C43EA071342EA0422B2
:10061000B0429BB2ADB294B209D0114A904206D01A
:1006200085800483CA88F0BC0287038470474FF634
:10063000BF7623F080024B8992B242EA03128F897F
:10064000164025F440658B88CA8945EA870546EA45
:10065000031345EA82059BB2ADB2E1E7002C0140ED
:1006600000340140038829B923F001031B041B0C4B
:10067000038070479BB243F001030380704700BFC3
:100680000187704710B501210820FFF729FF064BAD
:100690000024022219460548DC709A70FFF7B0FE6C
:1006A000BDE81040FFF78ABD98000020000C014013
:1006B00030B5012189B00846FFF720FF0121042051
:1006C000FFF70EFF44F620624823002401A94FF0F3
:1006D0008040ADF80820ADF80430ADF80A40ADF820
:1006E0000640FFF727FF01214FF08040FFF7BAFFD8
:1006F0006022012304A94FF08040ADF81840ADF806
:100700001020ADF81230FFF767FF064B18220225C4
:100710000324194604481D809C70DA70FFF770FEB0
:1007200009B030BD940000200008014070B5FFF70B
:1007300001FEFFF7A7FFFFF7BBFF124E4FF4FA755C
:10074000A9B24FF08040FFF79BFF1024002507213E
:100750000820FFF7A7FD013C0544F8D1002DB8BFE4
:100760000F354FF4FA632D1103FB05F586FB0523C6
:10077000E9171D44C1EBE5250A2005F5FA75FFF7D9
:10078000D1FDDDE7810008800649074A074B9A4200
:10079000BEBF51F8040B42F8040BF8E70448804749
:1007A00004480047580A00080000002068000020A4
:1007B00041080008490100081F49204A002301E0C0
:1007C00041F8043B9142FBD3FFF7B0FFFEE7FEE7A1
:1007D000FEE7FEE7FEE7FEE7FEE7FEE7FEE7FEE7F1
:1007E000FEE7FEE7FEE7FEE7FEE7FEE7FEE7FEE7E1
:1007F000FEE7FEE7FEE7FEE7FEE7FEE7FEE7FEE7D1
:10080000FEE7FEE7FEE7FEE7FEE7FEE7FEE7FEE7C0
:10081000FEE7FEE7FEE7FEE7FEE7FEE7FEE7FEE7B0
:10082000FEE7FEE7FEE7FEE7FEE7FEE7FEE7FEE7A0
:10083000FEE7FEE7FEE7FEE7680000209C000020E0
:1008400030B43C4B3C49186882B040F0010018605D
:100850005D6800202940596019684FF41F0421F099
:10086000847121F48031196019681A4621F48021BD
:100870001960596821F4FE0159609C600090019054
:10088000196841F48031196003E0009BB3F5A06F53
:1008900009D0136803F400330193009B01330093E4
:1008A000019B002BF1D0234B1B6813F4003318BFBE
:1008B00001230193019B012B06D0204B4FF00062D6
:1008C0009A6002B030BC70471D4A1A4B1068194636
:1008D00040F010001060106820F0030010601068F5
:1008E00040F0020010605A685A605A685A605A68AC
:1008F00042F480625A605A6822F47C125A605A6844
:1009000042F4E8125A601A6842F080721A600B686A
:10091000084A9B01FBD51146536823F0030353603B
:10092000536843F0020353604B6803F00C03082B39
:10093000FAD1C2E7001002400000FFF800ED00E02D
:100940000020024008B5074B044613B10021AFF365
:100950000080054B1868836A03B19847204600F071
:1009600033F800BF00000000E80900080E4B70B526
:100970001E460E4C0025E41AA410A54204D056F8D9
:10098000253098470135F8E700F020F8084B094C6E
:100990001E46E41AA4100025A54204D056F82530BE
:1009A00098470135F8E770BD600000206000002026
:1009B000600000206400002003460244934202D0FD
:1009C00003F8011BFAE77047FEE70000F8B500BF27
:1009D000F8BC08BC9E467047F8B500BFF8BC08BC20
:1009E0009E46704743000000000000200000000009
:1009F00000000000000000000000000000000000F7
:100A000000000000000000000000000000000000E6
:100A100000000000000000000000000000000000D6
:100A200000000000000000000000000000000000C6
:100A300000000000000000000000000000000000B6
:100A400000000000000000000000000000000000A6
:080A5000F8F6FF7F0100000031
:100A580000000000EC0900080C0A00082C0A000835
:100A6800000000000000000000000000000000007E
:100A7800E409000800000000000000000000000079
:100A8800000000000000000000000000000000005E
:100A9800000000000000000000000000000000004E
:100AA800000000000000000000000000000000003E
:080AB80011010008ED00000827
:0400000508000000EF
:00000001FF
