:020000040800F2
:100000000050002079080008BF080008C108000857
:10001000C3080008C5080008C70800080000000061
:10002000000000000000000000000000C9080008F7
:10003000CB08000800000000CD080008CF08000829
:10004000D3080008D5080008D7080008D908000818
:10005000DB080008DD080008DF080008E1080008E8
:10006000E3080008E5080008E7080008E9080008B8
:10007000EB080008ED080008EF080008F108000888
:10008000F3080008F5080008F7080008F908000858
:10009000FB080008FD080008FF0800080109000827
:1000A00003090008050900080709000809090008F4
:1000B0000B0900080D0900080F09000811090008C4
:1000C0001309000815090008170900081909000894
:1000D0001B0900081D0900081F0900082109000864
:1000E00023090008250900082709000810B5054C58
:1000F000237833B9044B13B10448AFF300800123D4
:10010000237010BD68000020000000003C0B0008B8
:10011000084B10B51BB108490848AFF300800848E8
:10012000036803B910BD074B002BFBD0BDE810409E
:10013000184700BF000000006C0000203C0B0008C6
:100140006800002000000000154B002B08BF134B77
:100150009D46A3F5803A00218B460F461348144A6A
:10016000121A00F0A1FC0F4B002B00D098470E4B49
:10017000002B00D098470020002104000D000D48FE
:10018000002802D00C48AFF3008000F067FC20008C
:10019000290000F037FB00F04DFC00BF0000080014
:1001A0000050002000000000000000006800002057
:1001B000900000200000000000000000184B4FF0ED
:1001C000000C1A462DE9F0414142012489B2013860
:1001D000DFF85480DFF854E0124F9984000C1C8043
:1001E0004FF08046D8E90045A2F810C0138ACEF837
:1001F000806120BF138A0A499BB2002BF9D0BB68EB
:10020000013823445B4223F07F43E41845F10005A5
:10021000431CE9D1C8E9004500230B80BDE8F0810B
:100220000008004010E000E08800002000E100E04D
:100230004FF47A7303FB00F000B97047FFF7BEBFBD
:10024000F0B44FF6FF76114B0021114D6FF07F4057
:100250000522586099601A60EA690E4B01200E4C25
:1002600042F004024727EA6119801F859E85988223
:1002700022690A4942F01002226198810B6823F03A
:10028000070303430B60F0BC704700BF10E000E0C1
:10029000001002400008004000ED00E00020024095
:1002A000CB782DE9F04103F00F06DB0648BF8B78D1
:1002B0000C8848BF1E4314F0FF0F26D005680023AA
:1002C00001274FF00F0803E00133082B1BD00C88E7
:1002D00007FA03F232EA0404F6D19C0091F803E035
:1002E00008FA04FC25EA0C0506FA04F4BEF1280F0E
:1002F00045EA040538D0BEF1480F03F1010308BFF9
:100300000261082BE3D105600C88FF2C2AD94568CF
:10031000002301274FF00F0C03E00133082B20D0FE
:100320000C8803F1080207FA02F232EA0404F4D15D
:1003300091F803E09C00BEF1280F04BF426191F8E0
:1003400003E00CFA04F8BEF1480F03F1010325EABB
:10035000080506FA04F408BF0261082B45EA040503
:10036000DED14560BDE8F0814261ADE729B9054ABB
:10037000936923EA000090617047024B9A69104329
:10038000986170470010024029B9054AD36923EAF1
:100390000000D0617047024BDA691043D8617047A2
:1003A00000100240254A038890429BB212D002F509
:1003B000006290420ED0B0F1804F0BD0A2F598327F
:1003C000904207D002F58062904203D002F580622D
:1003D000904203D14A8823F070031343184A904295
:1003E00024D002F58062904220D0CA8823F4407362
:1003F0009BB2134303808A88104B82850A889842F7
:1004000002850ED00F4B98420BD003F54063984203
:1004100007D003F58063984203D003F580639842C8
:1004200001D10B7A038601238382704703808B8876
:1004300083850B880385012383827047002C01404C
:100440000010004000340140038CF0B423F001039D
:100450001B041B0C0384048C8788028B0E8924F0F8
:1004600002044B881B4D240422F07302240C3343F6
:1004700012040E882343120CA8429BB2BCB242EA7B
:10048000060216D005F50065A84212D005F54065B4
:10049000A8420ED005F58065A8420AD005F5806512
:1004A000A84206D084800283CA88F0BC8286038476
:1004B00070474E898F89CD8923F00803334324F494
:1004C00040748E883D4323F004032C433343A4B28D
:1004D000E8E700BF002C0140038CF0B423F01003C8
:1004E0001B041B0C0384038C858823F02003028BE0
:1004F0000C891B0422F4E6421B0C43EA0413174E3A
:100500000C8812044F88120C43EA071342EA0422B3
:10051000B0429BB2ADB294B209D0114A904206D01B
:1005200085800483CA88F0BC0287038470474FF635
:10053000BF7623F080024B8992B242EA03128F8980
:10054000164025F440658B88CA8945EA870546EA46
:10055000031345EA82059BB2ADB2E1E7002C0140EE
:1005600000340140038CF0B423F480731B041B0C93
:100570000384038C848823F40073828B0D891B040D
:10058000194E1B0C22F073024F8843EA0523120414
:100590000D8843EA0723120CB0429BB2A4B245EA8D
:1005A00002050AD006F50066B04206D08480858335
:1005B000CA88F0BC8287038470474FF6FF3623F465
:1005C00000624B8992B242EA03228F89164024F4DA
:1005D00040548B88CA8944EA071446EA032344EA54
:1005E00002149BB2A4B2E1E7002C0140038CF0B4EA
:1005F00023F480531B041B0C0384028C848822F494
:100600000052838B0E89120423F4E643120C42EA53
:100610000632104D1B044F880E881B0C42EA07322D
:1006200043EA0623A84292B2A4B29BB20BD005F5CE
:100630000065A84207D084808383CB88F0BCA0F8F3
:100640004030028470478D8924F4804444EA851444
:10065000A4B2F0E7002C0140038829B923F001037C
:100660001B041B0C038070479BB243F00103038003
:10067000704700BF81867047018770478187704748
:10068000A0F84010704700BF30B583B0CF230324DB
:1006900001A918250A48ADF804308DF806408DF8F8
:1006A0000750FFF7FDFD01A90648ADF804408DF89D
:1006B00006408DF80750FFF7F3FD03B030BD00BFD3
:1006C00000080140000C014030B5012189B0084606
:1006D000FFF75AFE00244FF4E152C82301A94FF05E
:1006E0008040ADF80420ADF808300125ADF80A408F
:1006F000ADF80640FFF756FE602304A94FF0804096
:10070000ADF81030ADF81840ADF81250FFF79CFE70
:1007100004A94FF08040FFF7DFFE04A94FF08040AE
:10072000FFF720FF04A94FF08040FFF75FFF294645
:100730004FF08040FFF790FF09B030BD70B51A4C04
:1007400088B001210220FFF71FFE00254FF4E1527F
:100750002046C82301A9ADF80420ADF808300126D1
:10076000ADF80A50ADF80650FFF71CFE6023204696
:1007700004A9ADF81030ADF81850ADF81260FFF7CD
:1007800063FE04A92046FFF7A7FE04A92046FFF751
:10079000E9FE04A92046FFF729FF31462046FFF76E
:1007A0005BFF08B070BD00BF0004004089B270B1AB
:1007B000012812D0022814D0032816D0042818D0FB
:1007C000052819D006280E4805D0FFF759BF4FF06D
:1007D0008040FFF74FBFFFF751BF4FF08040FFF75A
:1007E0004BBF4FF08040FFF749BF4FF08040FFF70D
:1007F00047BF0348FFF73EBF0148FFF73DBF00BFBB
:1008000000040040F8B5FFF71BFD01210520FFF7AC
:10081000ADFD01210820FFF7A9FDFFF755FFFFF708
:100820008DFFFFF731FF00263446F71C05252946CA
:1008300020460134FFF7BAFFA74205F13C05F6DA7E
:10084000072E4FF0000107D0701EFFF7AFFF4620C4
:100850000136FFF7EDFCE7E70620FFF7A7FF30467C
:100860000021FFF7A3FF4620FFF7E2FC4FF47A7068
:10087000FFF7DEFCD7E700BF0649074A074B9A425D
:10088000BEBF51F8040B42F8040BF8E70448804758
:1008900004480047480B00080000002068000020C2
:1008A00031090008490100081F49204A002301E0DE
:1008B00041F8043B9142FBD3FFF7A4FFFEE7FEE7BC
:1008C000FEE7FEE7FEE7FEE7FEE7FEE7FEE7FEE700
:1008D000FEE7FEE7FEE7FEE7FEE7FEE7FEE7FEE7F0
:1008E000FEE7FEE7FEE7FEE7FEE7FEE7FEE7FEE7E0
:1008F000FEE7FEE7FEE7FEE7FEE7FEE7FEE7FEE7D0
:10090000FEE7FEE7FEE7FEE7FEE7FEE7FEE7FEE7BF
:10091000FEE7FEE7FEE7FEE7FEE7FEE7FEE7FEE7AF
:10092000FEE7FEE7FEE7FEE76800002090000020FB
:1009300030B43C4B3C49186882B040F0010018606C
:100940005D6800202940596019684FF41F0421F0A8
:10095000847121F48031196019681A4621F48021CC
:100960001960596821F4FE0159609C600090019063
:10097000196841F48031196003E0009BB3F5A06F62
:1009800009D0136803F400330193009B01330093F3
:10099000019B002BF1D0234B1B6813F4003318BFCD
:1009A00001230193019B012B06D0204B4FF00062E5
:1009B0009A6002B030BC70471D4A1A4B1068194645
:1009C00040F010001060106820F003001060106804
:1009D00040F0020010605A685A605A685A605A68BB
:1009E00042F480625A605A6822F47C125A605A6853
:1009F00042F4E8125A601A6842F080721A600B687A
:100A0000084A9B01FBD51146536823F0030353604A
:100A1000536843F0020353604B6803F00C03082B48
:100A2000FAD1C2E7001002400000FFF800ED00E03C
:100A30000020024008B5074B044613B10021AFF374
:100A40000080054B1868836A03B19847204600F080
:100A500033F800BF00000000D80A00080E4B70B544
:100A60001E460E4C0025E41AA410A54204D056F8E8
:100A7000253098470135F8E700F020F8084B094C7D
:100A80001E46E41AA4100025A54204D056F82530CD
:100A900098470135F8E770BD600000206000002035
:100AA000600000206400002003460244934202D00C
:100AB00003F8011BFAE77047FEE70000F8B500BF36
:100AC000F8BC08BC9E467047F8B500BFF8BC08BC2F
:100AD0009E46704743000000000000200000000018
:100AE0000000000000000000000000000000000006
:100AF00000000000000000000000000000000000F6
:100B000000000000000000000000000000000000E5
:100B100000000000000000000000000000000000D5
:100B200000000000000000000000000000000000C5
:100B300000000000000000000000000000000000B5
:080B400008F6FF7F0100000030
:100B480000000000DC0A0008FC0A00081C0B000872
:100B5800000000000000000000000000000000008D
:100B6800D40A000800000000000000000000000097
:100B7800000000000000000000000000000000006D
:100B8800000000000000000000000000000000005D
:100B9800000000000000000000000000000000004D
:080BA80011010008ED00000836
:0400000508000000EF
:00000001FF
