:020000040800F2
:1000000000500020190500085F0500086105000880
:10001000630500086505000867050008000000008A
:10002000000000000000000000000000690500085A
:100030006B050008000000006D0500086F05000852
:1000400073050008750500087705000879050008A4
:100050007B0500087D0500087F0500088105000874
:100060008305000885050008870500088905000844
:100070008B0500088D0500088F0500089105000814
:1000800093050008950500089705000899050008E4
:100090009B0500089D0500089F050008A1050008B4
:1000A000A3050008A5050008A7050008A905000884
:1000B000AB050008AD050008AF050008B105000854
:1000C000B3050008B5050008B7050008B905000824
:1000D000BB050008BD050008BF050008C1050008F4
:1000E000C3050008C5050008C705000810B5054C84
:1000F000237833B9044B13B10448AFF300800123D4
:10010000237010BD6800002000000000DC0700081C
:10011000084B10B51BB108490848AFF300800848E8
:10012000036803B910BD074B002BFBD0BDE810409E
:10013000184700BF000000006C000020DC0700082A
:100140006800002000000000154B002B08BF134B77
:100150009D46A3F5803A00218B460F461348144A6A
:10016000121A00F0F1FA0F4B002B00D098470E4BFB
:10017000002B00D098470020002104000D000D48FE
:10018000002802D00C48AFF3008000F0B7FA20003E
:10019000290000F09DF900F09DFA00BF0000080062
:1001A0000050002000000000000000006800002057
:1001B000980000200000000000000000184B4FF0E5
:1001C000000C1A462DE9F0414142012489B2013860
:1001D000DFF85480DFF854E0124F9984000C1C8043
:1001E0004FF08046D8E90045A2F810C0138ACEF837
:1001F000806120BF138A0A499BB2002BF9D0BB68EB
:10020000013823445B4223F07F43E41845F10005A5
:10021000431CE9D1C8E9004500230B80BDE8F0810B
:100220000008004010E000E08800002000E100E04D
:100230004FF47A7303FB00F000B97047FFF7BEBFBD
:10024000F0B44FF6FF76114B0021114D6FF07F4057
:100250000522586099601A60EA690E4B01200E4C25
:1002600042F004024727EA6119801F859E85988223
:1002700022690A4942F01002226198810B6823F03A
:10028000070303430B60F0BC704700BF10E000E0C1
:10029000001002400008004000ED00E00020024095
:1002A000CB782DE9F04103F00F06DB0648BF8B78D1
:1002B0000C8848BF1E4314F0FF0F26D005680023AA
:1002C00001274FF00F0803E00133082B1BD00C88E7
:1002D00007FA03F232EA0404F6D19C0091F803E035
:1002E00008FA04FC25EA0C0506FA04F4BEF1280F0E
:1002F00045EA040538D0BEF1480F03F1010308BFF9
:100300000261082BE3D105600C88FF2C2AD94568CF
:10031000002301274FF00F0C03E00133082B20D0FE
:100320000C8803F1080207FA02F232EA0404F4D15D
:1003300091F803E09C00BEF1280F04BF426191F8E0
:1003400003E00CFA04F8BEF1480F03F1010325EABB
:10035000080506FA04F408BF0261082B45EA040503
:10036000DED14560BDE8F0814261ADE701617047D3
:100370004161704729B9054A936923EA00009061F9
:100380007047024B9A691043986170470010024011
:1003900070B50646002401250EE0FFF7E9FF4FF493
:1003A00000410B48FFF7E2FF01344FF400410848D9
:1003B000FFF7DEFF082C09D005FA04F3B3434FF42E
:1003C00000510348E9D1FFF7D1FFE8E770BD00BF56
:1003D000000C014038B50D4DC0F107002B6801221B
:1003E000824023EA020381401943094C08462960F0
:1003F000FFF7CEFF20464FF48041FFF7B7FF2046BE
:10040000BDE838404FF48041FFF7B2BF90000020B4
:10041000000C014010B5002420460121FFF7DAFF4F
:100420000134C820FFF704FF082CF5D10024204632
:1004300000210134FFF7CEFF082CF8D110BD00BF1A
:1004400038B501210320FFF7C5FF01210420FFF784
:10045000C1FF6420FFF7ECFE00210320FFF7BAFF85
:1004600000210420FFF7B6FF02242046C4F107054F
:100470000121FFF7AFFF01212846FFF7ABFF642002
:10048000FFF7D6FE20460021FFF7A4FF013C2846D7
:100490000021FFF79FFF631CE7D100242046C4F131
:1004A00007050121FFF796FF01212846FFF792FF7C
:1004B0006420FFF7BDFE20460021FFF78BFF0134CB
:1004C00028460021FFF786FF042CE7D138BD00BF86
:1004D00008B5FFF7B5FE01210820FFF74BFF0C4BD5
:1004E00010254FF46044032219460A48DD701C8031
:1004F0009A70FFF7D5FEFFF78DFF4FF47A70FFF784
:1005000097FEFFF79DFF4FF47A70FFF791FEF2E739
:1005100094000020000C01400649074A074B9A420C
:10052000BEBF51F8040B42F8040BF8E704488047BB
:1005300004480047E8070008000000206800002089
:10054000D1050008490100081F49204A002301E0A5
:1005500041F8043B9142FBD3FFF7BAFFFEE7FEE709
:10056000FEE7FEE7FEE7FEE7FEE7FEE7FEE7FEE763
:10057000FEE7FEE7FEE7FEE7FEE7FEE7FEE7FEE753
:10058000FEE7FEE7FEE7FEE7FEE7FEE7FEE7FEE743
:10059000FEE7FEE7FEE7FEE7FEE7FEE7FEE7FEE733
:1005A000FEE7FEE7FEE7FEE7FEE7FEE7FEE7FEE723
:1005B000FEE7FEE7FEE7FEE7FEE7FEE7FEE7FEE713
:1005C000FEE7FEE7FEE7FEE7680000209800002057
:1005D00030B43C4B3C49186882B040F001001860D0
:1005E0005D6800202940596019684FF41F0421F00C
:1005F000847121F48031196019681A4621F4802130
:100600001960596821F4FE0159609C6000900190C6
:10061000196841F48031196003E0009BB3F5A06FC5
:1006200009D0136803F400330193009B0133009356
:10063000019B002BF1D0234B1B6813F4003318BF30
:1006400001230193019B012B06D0204B4FF0006248
:100650009A6002B030BC70471D4A1A4B10681946A8
:1006600040F010001060106820F003001060106867
:1006700040F0020010605A685A605A685A605A681E
:1006800042F480625A605A6822F47C125A605A68B6
:1006900042F4E8125A601A6842F080721A600B68DD
:1006A000084A9B01FBD51146536823F003035360AE
:1006B000536843F0020353604B6803F00C03082BAC
:1006C000FAD1C2E7001002400000FFF800ED00E0A0
:1006D0000020024008B5074B044613B10021AFF3D8
:1006E0000080054B1868836A03B19847204600F0E4
:1006F00033F800BF00000000780700080E4B70B50B
:100700001E460E4C0025E41AA410A54204D056F84B
:10071000253098470135F8E700F020F8084B094CE0
:100720001E46E41AA4100025A54204D056F8253030
:1007300098470135F8E770BD600000206000002098
:10074000600000206400002003460244934202D06F
:1007500003F8011BFAE77047FEE70000F8B500BF99
:10076000F8BC08BC9E467047F8B500BFF8BC08BC92
:100770009E4670474300000000000020000000007B
:100780000000000000000000000000000000000069
:100790000000000000000000000000000000000059
:1007A0000000000000000000000000000000000049
:1007B0000000000000000000000000000000000039
:1007C0000000000000000000000000000000000029
:1007D0000000000000000000000000000000000019
:0807E00068F9FF7F0100000031
:1007E800000000007C0700089C070008BC07000800
:1007F80000000000000000000000000000000000F1
:10080800740700080000000000000000000000005D
:1008180000000000000000000000000000000000D0
:1008280000000000000000000000000000000000C0
:1008380000000000000000000000000000000000B0
:0808480011010008ED00000899
:0400000508000000EF
:00000001FF
