:020000040800F2
:1000000000500020F90500083F06000841060008DE
:1000100043060008450600084706000800000000E7
:100020000000000000000000000000004906000879
:100030004B060008000000004D0600084F060008AF
:100040005306000855060008570600085906000820
:100050005B0600085D0600085F06000861060008F0
:1000600063060008650600086706000869060008C0
:100070006B0600086D0600086F0600087106000890
:100080007306000875060008770600087906000860
:100090007B0600087D0600087F0600088106000830
:1000A0008306000885060008870600088906000800
:1000B0008B0600088D0600088F06000891060008D0
:1000C00093060008950600089706000899060008A0
:1000D0009B0600089D0600089F060008A106000870
:1000E000A3060008A5060008A706000810B5054CE1
:1000F000237833B9044B13B10448AFF300800123D4
:10010000237010BD7800002000000000C008000827
:10011000084B10B51BB108490848AFF300800848E8
:10012000036803B910BD074B002BFBD0BDE810409E
:10013000184700BF000000007C000020C008000835
:100140007400002000000000154B002B08BF134B6B
:100150009D46A3F5803A00218B460F461348144A6A
:10016000121A00F061FB0F4B002B00D098470E4B8A
:10017000002B00D098470020002104000D000D48FE
:10018000002802D00C48AFF3008000F027FB2000CD
:10019000290000F005FA00F00DFB00BF0000080088
:1001A0000050002000000000000000007800002047
:1001B000AC0000200000000000000000184B4FF0D1
:1001C000000C1A462DE9F0414142012489B2013860
:1001D000DFF85480DFF854E0124F9984000C1C8043
:1001E0004FF08046D8E90045A2F810C0138ACEF837
:1001F000806120BF138A0A499BB2002BF9D0BB68EB
:10020000013823445B4223F07F43E41845F10005A5
:10021000431CE9D1C8E9004500230B80BDE8F0810B
:100220000008004010E000E09800002000E100E03D
:1002300008B1FFF7C3BF70474FF47A7303FB00F0B8
:1002400000B97047FFF7BABFF0B44FF6FF76114B15
:100250000021114D6FF07F400522586099601A60AF
:10026000EA690E4B01200E4C42F004024727EA6176
:1002700019801F859E85988222690A4942F01002E2
:10028000226198810B6823F0070303430B60F0BCE5
:10029000704700BF10E000E000100240000800407E
:1002A00000ED00E000200240CB782DE9F04103F0A2
:1002B0000F06DB0648BF8B780C8848BF1E4314F03E
:1002C000FF0F26D00568002301274FF00F0803E039
:1002D0000133082B1BD00C8807FA03F232EA04041E
:1002E000F6D19C0091F803E008FA04FC25EA0C051D
:1002F00006FA04F4BEF1280F45EA040538D0BEF131
:10030000480F03F1010308BF0261082BE3D1056028
:100310000C88FF2C2AD94568002301274FF00F0CC9
:1003200003E00133082B20D00C8803F1080207FA00
:1003300002F232EA0404F4D191F803E09C00BEF129
:10034000280F04BF426191F803E00CFA04F8BEF1F3
:10035000480F03F1010325EA080506FA04F408BF73
:100360000261082B45EA0405DED14560BDE8F08155
:100370004261ADE78368194214BF01200020704735
:10038000016170474161704729B9054A936923EAC1
:10039000000090617047024B9A6910439861704762
:1003A0000010024008B510213D48FFF7E3FF002888
:1003B00059D040213A48FFF7DDFF00283AD02021EC
:1003C0003748FFF7D7FFF0B14FF400413448FFF74B
:1003D000D1FF00B108BD3220FFF72EFF4FF40041DE
:1003E0002F48FFF7C7FF0028F4D14FF400412C48F5
:1003F000FFF7C0FF0028F8D02A4A1368002B4BDB18
:10040000013B136008BD3220FFF716FF202124486E
:10041000FFF7B0FF0028D7D120212148FFF7AAFF1E
:100420000028F9D01F4A1368072BCCBF00230133E3
:100430001360C9E73220FFF7FFFE40211848FFF79D
:1004400099FF0028BBD140211548FFF793FF0028F2
:10045000F9D0154A1368002BB4BF42F20F7303F1B1
:10046000FF331360ABE73220FFF7E6FE10210C48A4
:10047000FFF780FF00289CD110210948FFF77AFF81
:100480000028F9D042F20F71074A13688B42CCBFA3
:100490000023013313608CE70723136008BD00BFFE
:1004A00000080140A0000020A400002038B5054647
:1004B000002414E0FFF764FF0120FFF7B9FE4FF4BA
:1004C00080410D48FFF75CFF01200444FFF7B0FEB8
:1004D0004FF480410848FFF755FF082C0BD005FA70
:1004E00004F313F0800F4FF400510348E2D10248A7
:1004F000FFF748FFE0E738BD000C014030B5224B64
:10050000224918681A790B6883B0002B00908DF887
:10051000042012DD1E4D1F4C0DF1050184FB03204C
:10052000DA17C2EBA00202EB8200A3EB4003E85C07
:10053000134601F8010D002AF0D16C46164A01233A
:10054000106801AD03FA00F0C0B28DF80000FFF7AB
:10055000ADFFAC4205D014F8010FFFF7A7FFAC4286
:10056000F9D10120FFF764FE4FF400410B48FFF77B
:1005700007FF0120FFF75CFE08484FF4004103B07D
:10058000BDE83040FFF7FEBE54080008A40000207C
:100590000000002067666666A0000020000C014095
:1005A000124C08B5FFF750FE01210820FFF7ECFEC2
:1005B000022510224FF4604321460D48E27023804B
:1005C000A570FFF771FE01210420FFF7DDFE48F260
:1005D0007003482221460748A570E2702380FFF788
:1005E00063FEFFF7DFFEFFF789FFFAE7A8000020B0
:1005F000000C0140000801400649074A074B9A4297
:10060000BEBF51F8040B42F8040BF8E704488047DA
:1006100004480047CC0800080000002074000020B7
:10062000B1060008490100081F49204A002301E0E3
:1006300041F8043B9142FBD3FFF7B2FFFEE7FEE730
:10064000FEE7FEE7FEE7FEE7FEE7FEE7FEE7FEE782
:10065000FEE7FEE7FEE7FEE7FEE7FEE7FEE7FEE772
:10066000FEE7FEE7FEE7FEE7FEE7FEE7FEE7FEE762
:10067000FEE7FEE7FEE7FEE7FEE7FEE7FEE7FEE752
:10068000FEE7FEE7FEE7FEE7FEE7FEE7FEE7FEE742
:10069000FEE7FEE7FEE7FEE7FEE7FEE7FEE7FEE732
:1006A000FEE7FEE7FEE7FEE778000020AC00002052
:1006B00030B43C4B3C49186882B040F001001860EF
:1006C0005D6800202940596019684FF41F0421F02B
:1006D000847121F48031196019681A4621F480214F
:1006E0001960596821F4FE0159609C6000900190E6
:1006F000196841F48031196003E0009BB3F5A06FE5
:1007000009D0136803F400330193009B0133009375
:10071000019B002BF1D0234B1B6813F4003318BF4F
:1007200001230193019B012B06D0204B4FF0006267
:100730009A6002B030BC70471D4A1A4B10681946C7
:1007400040F010001060106820F003001060106886
:1007500040F0020010605A685A605A685A605A683D
:1007600042F480625A605A6822F47C125A605A68D5
:1007700042F4E8125A601A6842F080721A600B68FC
:10078000084A9B01FBD51146536823F003035360CD
:10079000536843F0020353604B6803F00C03082BCB
:1007A000FAD1C2E7001002400000FFF800ED00E0BF
:1007B0000020024008B5074B044613B10021AFF3F7
:1007C0000080054B1868836A03B19847204600F003
:1007D00033F800BF000000005C0800080E4B70B545
:1007E0001E460E4C0025E41AA410A54204D056F86B
:1007F000253098470135F8E700F020F8084B094C00
:100800001E46E41AA4100025A54204D056F825304F
:1008100098470135F8E770BD6C0000206C0000209F
:100820006C0000207000002003460244934202D076
:1008300003F8011BFAE77047FEE70000F8B500BFB8
:10084000F8BC08BC9E467047F8B500BFF8BC08BCB1
:100850009E467047FFFFFFFF414300000C00002051
:100860000000000000000000000000000000000088
:100870000000000000000000000000000000000078
:100880000000000000000000000000000000000068
:100890000000000000000000000000000000000058
:1008A0000000000000000000000000000000000048
:1008B0000000000000000000000000000000000038
:0408C0000000000034
:0808C40084F8FF7F0100000031
:1008CC00415FD0544E64605740440000000000006B
:1008DC006008000880080008A0080008000000005C
:1008EC000000000000000000000000005908000893
:1008FC0000000000000000000000000000000000EC
:10090C0000000000000000000000000000000000DB
:10091C0000000000000000000000000000000000CB
:10092C0000000000000000000000000011010008A1
:04093C00ED000008C2
:0400000508000000EF
:00000001FF
