:020000040800F2
:1000000000500020E108000827090008290900081D
:100010002B0900082D0900082F0900080000000026
:10002000000000000000000000000000310900088E
:1000300033090008000000003509000837090008EE
:100040003B0900083D0900083F0900084109000874
:100050004309000845090008470900084909000844
:100060004B0900084D0900084F0900085109000814
:1000700053090008550900085709000859090008E4
:100080005B0900085D0900085F09000861090008B4
:100090006309000865090008670900086909000884
:1000A0006B0900086D0900086F0900087109000854
:1000B0007309000875090008770900087909000824
:1000C0007B0900087D0900087F09000881090008F4
:1000D00083090008850900088709000889090008C4
:1000E0008B0900088D0900088F09000810B5054C20
:1000F000237833B9044B13B10448AFF300800123D4
:10010000237010BDA8000020000000008433000808
:10011000084B10B51BB108490848AFF300800848E8
:10012000036803B910BD074B002BFBD0BDE810409E
:10013000184700BF00000000AC0000208433000816
:10014000A800002000000000154B002B08BF134B37
:100150009D46A3F5803A00218B460F461348144A6A
:10016000121A02F044F80F4B002B00D098470E4BA8
:10017000002B00D098470020002104000D000D48FE
:10018000002802D00C48AFF3008001F0FFFF2000F0
:10019000290000F049FB01F0E5FF00BF0000080066
:1001A000005000200000000000000000A800002017
:1001B000140100200000000000000000084600F0CC
:1001C0007BB900BF00F044B900F050B9084602F016
:1001D0002FB800BF0A2002F02BB800BF184B4FF019
:1001E000000C1A462DE9F0414142012489B2013840
:1001F000DFF85480DFF854E0124F9984000C1C8023
:100200004FF08046D8E90045A2F810C0138ACEF816
:10021000806120BF138A0A499BB2002BF9D0BB68CA
:10022000013823445B4223F07F43E41845F1000585
:10023000431CE9D1C8E9004500230B80BDE8F081EB
:100240000008004010E000E0C800002000E100E0ED
:1002500008B1FFF7C3BF70474FF47A7303FB00F098
:1002600000B97047FFF7BABFF0B44FF6FF76114BF5
:100270000021114D6FF07F400522586099601A608F
:10028000EA690E4B01200E4C42F004024727EA6156
:1002900019801F859E85988222690A4942F01002C2
:1002A000226198810B6823F0070303430B60F0BCC5
:1002B000704700BF10E000E000100240000800405E
:1002C00000ED00E00020024010B50A2086B001F0E9
:1002D000AFFF214B214A224912681B680968214857
:1002E00001F08EFF204B214C1988214801F088FF36
:1002F0000A2001F09DFF21681E4801F081FF61681E
:100300001D4801F07DFF616A1C4801F079FF1C4B1C
:100310001C48196801F074FF0A2001F089FF01A848
:1003200000F0A2F90199184801F06AFF02991748F4
:1003300001F066FF0399164801F062FF0499154821
:1003400001F05EFF0599144801F05AFF0A2001F000
:100350006FFF06B010BD00BFE8F7FF1FECF7FF1FEF
:10036000F0F7FF1FDC310008E0F7FF1F001002402C
:10037000F4310008083200081C320008303200084E
:10038000002002404432000858320008743200084D
:1003900090320008AC320008C8320008F0B441F2D4
:1003A0009107254B254E1C467068254D20F0040012
:1003B0007060686806F5803620F0F00040F0A0001C
:1003C00068609D8A1F48ADB2443645F080059D8225
:1003D000B060F1607260376099891B4889B241F062
:1003E00040010026202599811E80C0F8845120BF3D
:1003F000238811495B06FAD58B89144823F0400302
:100400001B041B0C00248B8104608B8A04F1804444
:1004100023F080031B0404F584341B0C4FF400709C
:100420008B8220616368104623F0F00343F02003C1
:100430006360F0BC704700BF00380140000001401D
:10044000000801400438014000E100E0440002409F
:10045000044A054B50681B681844404200F01F00D6
:10046000704700BF58000240D00000200E4B0F49DB
:100470005B680A68C3F12003934211D010B40C4B9F
:10048000541C0C482340002B805C02DB0B6010BC2A
:100490007047013B63F01F0301330B6010BC7047D2
:1004A0004FF0FF30704700BF58000240D0000020DE
:1004B0001F000080F0000020F8B50546304C314B9D
:1004C000A2694FF4007042F00102A261A2694FF4E8
:1004D000806142F00402A26118615A68680822F043
:1004E000F00242F020025A605A6822F4706242F42C
:1004F00000625A601961A36943F48043A36100F06C
:100500000FFC1DA3D3E9002300F0CEFA06462846CF
:100510000F4600F005FC02460B463046394600F017
:100520009FFD00F085FE41F2A105174B002280B22D
:10053000082118819A821A8299816269134942F0CE
:10054000010262619A89A4F5574492B242F0040212
:100550009A819A8A0E4892B242F04002FC3C2026D0
:100560009A824E608C60C8600D609A8992B242F4A3
:1005700000529A81F8BD00BF00000000882A914116
:1005800000100240000801400038014058000240BD
:10059000F0000020CB782DE9F04103F00F06DB06D8
:1005A00048BF8B780C8848BF1E4314F0FF0F26D03D
:1005B0000568002301274FF00F0803E00133082BE3
:1005C0001BD00C8807FA03F232EA0404F6D19C002F
:1005D00091F803E008FA04FC25EA0C0506FA04F495
:1005E000BEF1280F45EA040538D0BEF1480F03F1EB
:1005F000010308BF0261082BE3D105600C88FF2CC2
:100600002AD94568002301274FF00F0C03E001337E
:10061000082B20D00C8803F1080207FA02F232EA14
:100620000404F4D191F803E09C00BEF1280F04BF4C
:10063000426191F803E00CFA04F8BEF1480F03F1AF
:10064000010325EA080506FA04F408BF0261082B35
:1006500045EA0405DED14560BDE8F0814261ADE7C1
:10066000016170474161704730B4214A536803F01B
:100670000C03042B06D0082B25D01BB11D4A1346B2
:10068000026001E01B4B0360194A1B4C51681B4D73
:10069000C1F30311615CCB4043605168C1F3022197
:1006A000615C23FA01F181605168C1F3C221615C90
:1006B000CB40C3605268C2F38132AA5C30BCB3FB4A
:1006C000F2F30361704753685168C3F38343C9036E
:1006D00003F1020307D55268920304D4054A02FBD2
:1006E00003F30360D0E7064A02FB03F30360CBE7A2
:1006F0000010024000127A000400002000000020D8
:1007000000093D0029B9054A936923EA0000906178
:100710007047024B9A69104398617047001002407D
:1007200038B50546002412E0FFF79AFF0120FFF7D5
:100730008FFD40210C48FFF793FF01200444FFF791
:1007400087FD40210848FFF78DFF082C0BD005FAE4
:1007500004F313F0800F4FF020010348E4D1024866
:10076000FFF780FFE2E738BD000C0140F0B5294DEE
:1007700029492A780446531E086883B0DBB22B70DF
:10078000019072B3254E264F032214E0BCF1190FDD
:10079000A1F1300022D90928287806D8394411F867
:1007A000301C02AB134403F8041C431E013ADBB2B5
:1007B000D2B22B70A8B1E15C2344A1F14100192809
:1007C00002A8A1F1610C00EB020EDFD82878235CAF
:1007D000334413F8413C0EF8043CE6E72039197025
:1007E000F4E701AC02AD14F8010BFFF799FFA54245
:1007F000F9D10120FFF72CFD80210A48FFF730FFD7
:100800000120FFF725FD0748802103B0BDE8F04037
:10081000FFF728BFD4000020E432000814000020B5
:1008200030000020000C01402DE9F04182B0FFF7BC
:100830001BFD6420FFF710FD24492548FFF7BEFC8F
:10084000FFF742FD01210820FFF75CFF214B102537
:100850000222E02419462048DD701C809A70FFF7C0
:1008600099FE1E4D0027FF261948FFF7ABFC002814
:1008700027DD01972E700CE02C780134E4B22C7047
:10088000FFF7A2FC02AB1C4404F8040C0120FFF7A4
:10089000E3FC0F48FFF796FC00280D48ECDC0DF157
:1008A0000408002418F8011B0948FFF78FFC2B7877
:1008B0000134A342F6DA0648FFF78CFC01A8FFF7E3
:1008C00055FF4FF4FA70FFF7C7FCCDE740420F0029
:1008D000C4000020D8000020000C0140D4000020FB
:1008E0000649074A074B9A42BEBF51F8040B42F82B
:1008F000040BF8E7044880470448004778340008B0
:1009000000000020A8000020990900084901000803
:100910001F49204A002301E041F8043B9142FBD3E8
:10092000FFF782FFFEE7FEE7FEE7FEE7FEE7FEE7F2
:10093000FEE7FEE7FEE7FEE7FEE7FEE7FEE7FEE78F
:10094000FEE7FEE7FEE7FEE7FEE7FEE7FEE7FEE77F
:10095000FEE7FEE7FEE7FEE7FEE7FEE7FEE7FEE76F
:10096000FEE7FEE7FEE7FEE7FEE7FEE7FEE7FEE75F
:10097000FEE7FEE7FEE7FEE7FEE7FEE7FEE7FEE74F
:10098000FEE7FEE7FEE7FEE7FEE7FEE7FEE7FEE73F
:10099000A80000201401002030B43C4B3C491868EA
:1009A00082B040F0010018605D6800202940596065
:1009B00019684FF41F0421F0847121F4803119600B
:1009C00019681A4621F480211960596821F4FE0142
:1009D00059609C6000900190196841F48031196061
:1009E00003E0009BB3F5A06F09D0136803F4003354
:1009F0000193009B01330093019B002BF1D0234B0B
:100A00001B6813F4003318BF01230193019B012BD2
:100A100006D0204B4FF000629A6002B030BC7047A5
:100A20001D4A1A4B1068194640F0100010601068FB
:100A300020F003001060106840F0020010605A6857
:100A40005A605A685A605A6842F480625A605A681A
:100A500022F47C125A605A6842F4E8125A601A680A
:100A600042F080721A600B68084A9B01FBD5114660
:100A7000536823F003035360536843F00203536049
:100A80004B6803F00C03082BFAD1C2E700100240B8
:100A90000000FFF800ED00E00020024081F000417E
:100AA00002E000BF83F0004330B54FEA41044FEA53
:100AB000430594EA050F08BF90EA020F1FBF54EAEE
:100AC000000C55EA020C7FEA645C7FEA655C00F08A
:100AD000E2804FEA5454D4EB5555B8BF6D420CDD5B
:100AE0002C4480EA020281EA030382EA000083EADE
:100AF000010180EA020281EA0303362D88BF30BD7E
:100B000011F0004F4FEA01314FF4801C4CEA1131D3
:100B100002D0404261EB410113F0004F4FEA033332
:100B20004CEA133302D0524263EB430394EA050FBD
:100B300000F0A780A4F10104D5F1200E0DDB02FA2C
:100B40000EFC22FA05F2801841F1000103FA0EF2C0
:100B5000801843FA05F359410EE0A5F120050EF186
:100B6000200E012A03FA0EFC28BF4CF0020C43FAB7
:100B700005F3C01851EBE37101F0004507D54FF0C4
:100B8000000EDCF1000C7EEB00006EEB0101B1F514
:100B9000801F1BD3B1F5001F0CD349085FEA30005A
:100BA0004FEA3C0C04F101044FEA445212F5800F65
:100BB00080F09A80BCF1004F08BF5FEA500C50F102
:100BC000000041EB045141EA050130BD5FEA4C0CE5
:100BD000404141EB010111F4801FA4F10104E9D16E
:100BE00091F0000F04BF01460020B1FA81F308BF65
:100BF0002033A3F10B03B3F120020CDA0C3208DD31
:100C000002F1140CC2F10C0201FA0CF021FA02F10B
:100C10000CE002F11402D8BFC2F1200C01FA02F17B
:100C200020FA0CFCDCBF41EA0C019040E41AA2BFA0
:100C300001EB0451294330BD6FEA04041F3C1CDA68
:100C40000C340EDC04F11404C4F1200220FA04F088
:100C500001FA02F340EA030021FA04F345EA030132
:100C600030BDC4F10C04C4F1200220FA02F001FAF4
:100C700004F340EA0300294630BD21FA04F0294676
:100C800030BD94F0000F83F4801306BF81F480110F
:100C90000134013D4EE77FEA645C18BF7FEA655C82
:100CA00029D094EA050F08BF90EA020F05D054EA54
:100CB000000C04BF1946104630BD91EA030F1EBF59
:100CC0000021002030BD5FEA545C05D1400049415D
:100CD00028BF41F0004130BD14F580043CBF01F550
:100CE000801130BD01F0004545F0FE4141F4700136
:100CF0004FF0000030BD7FEA645C1ABF1946104611
:100D00007FEA655C1CBF0B46024650EA013406BF11
:100D100052EA033591EA030F41F4002130BD00BFD0
:100D200090F0000F04BF0021704730B54FF480648D
:100D300004F132044FF000054FF0000150E700BF0E
:100D400090F0000F04BF0021704730B54FF480646D
:100D500004F1320410F0004548BF40424FF000015A
:100D60003EE700BF42004FEAE2014FEA31014FEA9D
:100D700002701FBF12F07F4393F07F4F81F06051EC
:100D8000704792F0000F14BF93F07F4F704730B55B
:100D90004FF4607401F0004521F0004120E700BFEE
:100DA00050EA010208BF704730B54FF000050AE075
:100DB00050EA010208BF704730B511F0004502D576
:100DC000404261EB41014FF4806404F132045FEA78
:100DD000915C3FF4DCAE4FF003025FEADC0C18BF1D
:100DE00003325FEADC0C18BF033202EBDC02C2F113
:100DF000200300FA03FC20FA02F001FA03FE40EAA5
:100E00000E0021FA02F11444C1E600BF70B54FF0A4
:100E1000FF0C4CF4E06C1CEA11541DBF1CEA135586
:100E200094EA0C0F95EA0C0F00F0DEF82C4481EAEE
:100E3000030621EA4C5123EA4C5350EA013518BF0E
:100E400052EA033541F4801143F4801338D0A0FBFB
:100E500002CE4FF00005E1FB02E506F00042E0FBA8
:100E600003E54FF00006E1FB03569CF0000F18BFAE
:100E70004EF0010EA4F1FF04B6F5007F64F5407456
:100E800004D25FEA4E0E6D4146EB060642EAC621E9
:100E900041EA55514FEAC52040EA5E504FEACE2E56
:100EA000B4F1FD0C88BFBCF5E06F1ED8BEF1004F59
:100EB00008BF5FEA500E50F1000041EB045170BDD5
:100EC00006F0004646EA010140EA020081EA030119
:100ED000B4EB5C04C2BFD4EB0C0541EA045170BD15
:100EE00041F480114FF0000E013C00F3AB8014F18F
:100EF000360FDEBF002001F0004170BDC4F10004D8
:100F0000203C35DA0C341BDC04F11404C4F1200558
:100F100000FA05F320FA04F001FA05F240EA0200B3
:100F200001F0004221F0004110EBD37021FA04F6E9
:100F300042EB06015EEA430E08BF20EAD37070BDA3
:100F4000C4F10C04C4F1200500FA04F320FA05F002
:100F500001FA04F240EA020001F0004110EBD37004
:100F600041F100015EEA430E08BF20EAD37070BD74
:100F7000C4F1200500FA05F24EEA020E20FA04F34D
:100F800001FA05F243EA020321FA04F001F00041FC
:100F900021FA04F220EA020000EBD3705EEA430E6D
:100FA00008BF20EAD37070BD94F0000F0FD101F09C
:100FB0000046400041EB010111F4801F08BF013CD5
:100FC000F7D041EA060195F0000F18BF704703F013
:100FD0000046520043EB030313F4801F08BF013D9A
:100FE000F7D043EA0603704794EA0C0F0CEA135556
:100FF00018BF95EA0C0F0CD050EA410618BF52EA10
:101000004306D1D181EA030101F000414FF0000015
:1010100070BD50EA410606BF1046194652EA430623
:1010200019D094EA0C0F02D150EA013613D195EA97
:101030000C0F05D152EA03361CBF104619460AD1DF
:1010400081EA030101F0004141F0FE4141F47001E9
:101050004FF0000070BD41F0FE4141F4780170BDD9
:1010600070B54FF0FF0C4CF4E06C1CEA11541DBF3E
:101070001CEA135594EA0C0F95EA0C0F00F0A7F840
:10108000A4EB050481EA030E52EA03354FEA01316D
:1010900000F088804FEA03334FF0805545EA131380
:1010A00043EA12634FEA022245EA111545EA106548
:1010B0004FEA00260EF000419D4208BF964244F1DF
:1010C000FD0404F5407402D25B084FEA3202B61AFE
:1010D00065EB03055B084FEA32024FF480104FF4D2
:1010E000002CB6EB020E75EB030E22BFB61A754646
:1010F00040EA0C005B084FEA3202B6EB020E75EBD9
:10110000030E22BFB61A754640EA5C005B084FEA40
:101110003202B6EB020E75EB030E22BFB61A75460D
:1011200040EA9C005B084FEA3202B6EB020E75EB18
:10113000030E22BFB61A754640EADC0055EA060ED9
:1011400018D04FEA051545EA16754FEA06164FEA1C
:10115000C30343EA52734FEAC2025FEA1C1CC0D1C8
:1011600011F4801F0BD141EA00014FF000004FF055
:10117000004CB6E711F4801F04BF01430020B4F116
:10118000FD0C88BFBCF5E06F3FF6AFAEB5EB030CCE
:1011900004BFB6EB020C5FEA500C50F1000041EBCB
:1011A000045170BD0EF0004E4EEA113114EB5C0498
:1011B000C2BFD4EB0C0541EA045170BD41F480116B
:1011C0004FF0000E013C90E645EA060E8DE60CEA73
:1011D000135594EA0C0F08BF95EA0C0F3FF43BAF90
:1011E00094EA0C0F0AD150EA01347FF434AF95EA47
:1011F0000C0F7FF425AF104619462CE795EA0C0F2B
:1012000006D152EA03353FF4FDAE1046194622E7F7
:1012100050EA410618BF52EA43067FF4C5AE50EAD1
:1012200041047FF40DAF52EA43057FF4EBAE12E7C1
:101230004A0011D212F5001211D20DD56FF4787355
:10124000B3EB62520ED44FEAC12343F0004343EAAA
:10125000505323FA02F070474FF00000704750EAF5
:10126000013002D14FF0FF3070474FF0000070475F
:1012700003685A004CBF43F0004323F00043184476
:10128000704700BF61B32DE9F84F01F1FF3A904676
:101290000646D146002707EB090404EBD47464101A
:1012A000E50071190846FFF7E3FFA245834605F103
:1012B0000800304409D0FFF7DBFFC34500F1FF30E1
:1012C00005D8404509D2671CE5E7C34505D9A742C3
:1012D00002D004F1FF39DEE700210846BDE8F88FAF
:1012E00008467047012807D0022807D0044B002881
:1012F0000CBF1846002070470248704702487047EC
:10130000F9190008FD190008011A000830B5254B2D
:1013100083B004468D1E7BB301A92846AFF300803D
:1013200020B301992A46FFF7ADFF0146F0B1FFF760
:101330009FFF4B68A064012B12D0002B01F1040029
:1013400021DBFFF795FF0023E06423650368002B92
:101350001DDBFFF78DFF00232061184603B030BD71
:10136000002323610523184603B030BD0023236109
:101370000923184603B030BD0B490C4B0846591AD7
:10138000C9100191CEE70123E0642365DEE7C3F3D2
:101390000360FFF7A7FF0028206114BF0023092383
:1013A000DBE700BF00000000A0330008783400082D
:1013B000036810B5DA07044606D49B0700F148001D
:1013C00009D500F05BFC2368590709D51A070ED52B
:1013D000DB0613D510BD00F049FC23685907F5D48E
:1013E00004F1D00000F052FC23681A07F0D404F591
:1013F000A87000F053FC2368DB06EBD404F5E8701A
:10140000BDE8104000F08EBC03680BB11844704773
:101410001846704709207047704700BF70B50446F2
:101420000D4608E02A6C2369626121462A460120A4
:101430009847082808D1296C2046FFF767FF064621
:101440000028EFD000F086FE0728FBD13046296C3B
:10145000FFF7E2FF281D00F0FDFB00BF2DE9F0477C
:101460000646ADF5727D03AD0C1D17460FCC0FC5BA
:101470000FCC0FC50FCC0FC594E80F0002ACD6F807
:101480000C80D6F8189085E80F0000233046216CB8
:101490002360FFF73BFF0546002F14BF0A270927EB
:1014A0007DB1A36B47F010018DE8100232466364F2
:1014B00001203346C04778BB28460DF5727DBDE854
:1014C000F087236C4FF4F072736121467AA800F024
:1014D00083FE33697AAA314638469847889B82460C
:1014E0008DE8100239466364324633460120C04716
:1014F00090B94FF4F0727AA9204600F06DFEBAF16F
:10150000080F06D1216C3046FFF700FF092705467A
:10151000C6E7BAF1070F04D009200DF5727DBDE8CA
:10152000F0872846216CFFF777FF03A800F092FBB5
:10153000406C7047F0B5CB6BF9B00B640E1D01AD7C
:101540000F4604460FCE0FC50FCE0FC50FCE0FC5E9
:1015500096E80F004FF0FF3685E80F00009606E092
:1015600023696A46214698470828054608D11099FC
:101570002046FFF7CBFE0028F2D0092079B0F0BD5D
:101580006846FFF715FF062DF7D139462046FFF7CD
:1015900045FF00BF30B4DD6BC160826119461D6438
:1015A000002230BC5AE700BF70B54369C6680B64BF
:1015B00026B10122FFF752FF00F0CCFD03690A4675
:1015C00004460D46014602209847072807D0082800
:1015D00003D129462046FFF721FF00F0BBFD30462E
:1015E000296CFFF719FF281D00F034FBC2682AB1EF
:1015F00010B4CC6B00220C6410BC2FE79AE700BF3C
:10160000704700BF836813B1014601201847704737
:1016100000B5042907D8DFE801F00309060909002D
:101620000BB90F2A05D902205DF804FB01205DF8F3
:1016300004FB00EB820252681846019B1A605DF8B9
:1016400004FB00BF10B584B0002303AC0A4600942D
:101650001946FFF7DDFF039804B010BD00B504295B
:1016600007D8DFE801F00309060909000BB90F2AC2
:1016700005D902205DF804FB01205DF804FB019907
:1016800000EB82020968184651605DF804FB00BF58
:1016900010B584B004AC44F8042D00230A4600942D
:1016A0001946FFF7DBFF04B010BD00BFF0B5D36BE8
:1016B000ADF50F7D1364151D17AC07460E460FCD13
:1016C0000FC40FCD0FC40FCD0FC495E80F004FF01E
:1016D000FF3584E80F00169511E016A86A46FFF75B
:1016E000D7FF314616A8B84780B9049B16AA6946A9
:1016F000082098470528044609D0092806D02699CD
:101700006846FFF703FE0C210028E6D0092416A83E
:10171000FFF74EFE20460DF50F7DF0BD2DE9F04F91
:10172000CC6C914622688BB004340D460792089425
:1017300000F0030B1E46002B64D112020323079214
:101740008DF825608DF824302B6DBBF1020F08BF9A
:10175000AC6B13F0010343D100F00800C2B2039256
:1017600001932768002F3DD0022E47D02788B4F878
:1017700002800434AB6C28F0010A0F2148469A44D9
:10178000FFF760FF824537D827F001039A445045A0
:101790002CBF002001204FEA480808F0020807F09B
:1017A000010748EA0708B8F1010F41D038D3B8F172
:1017B000020F1DD1236823F000420292BBF1000FFB
:1017C00079D130B10399002900F08180002A00F01E
:1017D000A880002B79DB029B013304EB8304C0E774
:1017E00000230193022E40DDFFF714FE002842D0B3
:1017F00009200BB0BDE8F08F0020CCE7D4F80480BE
:101800000834B7E7022B9FDC130CD9B212048DF811
:101810002530022304EB810407928DF8243093E7EE
:10182000BBF1000F02D0002840F0B080043498E7EC
:10183000BBF1000F26D1B0B194E80C00991C4FEA1F
:10184000D272D5D005F158010133069100F0948091
:10185000201DFFF7D9FD06AB01462846AFF30080F7
:10186000002840F0B88008347BE707A9484600F01C
:10187000F3FA0028BCD1019B002B5CD108200BB0EF
:10188000BDE8F08F0D2148462F6AFFF7DBFE874247
:10189000E9D1AB6A9C42E6D12046FFF7E9FC0F2173
:1018A00002464846FFF7F4FE48462A460021FFF765
:1018B000EFFE07209DE70D2148462F6AFFF7C2FE85
:1018C000874248D02368002B85DA043483E7029BE3
:1018D0003BB305F15803271DCDF810B0DDF80C809F
:1018E000A346DDF808A01C46059602E0B245B046C6
:1018F00016D038460694FFF787FD06AB0146002256
:101900002846AFF3008008F1010604370028EDD027
:10191000029B5C464345DDF810B0059ED2D100E045
:101920005C4648460D21FFF78DFE069B2862AC629F
:101930006B6206205DE70F214846FFF783FE0E210C
:1019400002464846FFF7A4FE48462A4A0F21FFF701
:101950009FFE07204DE7AB6A9C42B3D10422029957
:101960000027A318A962EF622A636B632368BB4256
:101970001FDB012301932EE748460D21FFF762FE8E
:101980002862069B6B62AC62062032E72046FFF7B6
:101990006FFC04340646AC632846AFF30080002891
:1019A0003FF426AF484632460F21FFF771FE07206D
:1019B0001FE70846013004EB8000FFF759FC0F21B8
:1019C00002464846FFF764FE48462A463946FFF776
:1019D0005FFE07200DE707460D214846FFF732FE60
:1019E000022F2862CDD12B46069A43F82C2F6B622A
:1019F000C9E700BF0000000000238FE601238DE649
:101A000002238BE6F0B50446C5B004290DD8DFE803
:101A100001F057030C310F00012B4FEA124695B22B
:101A200066D17219102A40F29F80022045B0F0BDA5
:101A3000002BFAD1102AF8D82368D80600F1C98003
:101A400022AE3046019200F077F9A06B019A002394
:101A5000012505FA03F1114203D00168043046F86C
:101A600023100133042BF4D1A063304600F05AF95F
:101A70000020DBE7032BD8D1150C97B2EB19102B04
:101A8000D3D823681E0700F1B88022AE30467F000D
:101A900000F026F906EBC5027B1EA56B57B129465F
:101AA000043A51F8040B013B42F8040F581CF8D1DA
:101AB00005EB87053046A56300F0F0F80020B5E798
:101AC000002BB2D1A56B97B2201D012606FA03F1B7
:101AD000394203F1010302D0296804350160102B5B
:101AE00000F10400F2D112F400503BD1A5639DE750
:101AF000052B9AD17719202F97D80F2E65D92F460D
:101B0000002D48D12A460027002AA06B71DD00EB8A
:101B1000C202014644A800EBC6008C3851F8045BB1
:101B2000914240F8045FF9D1084697B13246102E31
:101B300044A938BF102201EBC202A2F5C472790099
:101B4000043A00EB810150F8045B814242F8045FE3
:101B5000F9D1012B47D00F2EA16332D917B102A8BA
:101B600000F094F8002061E70F2E3FF65EAF0027EB
:101B70002268D1070DD522F00101052B21600193C8
:101B8000204652D022F0030240F8482B00F072F8B1
:101B9000019B002F51D02268510736D4012B3ED033
:101BA0000F2E06D822A8019300F06CF8019B002F9D
:101BB000A8D002A8019300F06DF8019BC6F11002B5
:101BC000A2E722A800F05AF8C8E7102FCFD9103F9B
:101BD000CEE723F01003236004F5E870019200F0D3
:101BE000ABF8019A2CE70431A16322A800F03EF87B
:101BF000B8E7002F9AD10146ABE723F00803236032
:101C000004F5A87000F06CF83FE7204622F00402CB
:101C100040F8D02B019300F03DF8019BBEE722A8CD
:101C2000019300F027F8019BC8E741F0020140F85A
:101C3000481B00F027F8019BABE7012B03D00F2EC8
:101C40003FF660AFAEE722A8019300F013F8019BC6
:101C500058E700BF00F1340191E838009C46A646E1
:101C60004CF8045D90E8FF0FE54600BD90EC210BB9
:101C7000704700BF80EC210B704700BF90EC200B39
:101C8000704700BF80EC200B704700BFD0EC200BEA
:101C9000704700BFC0EC200B704700BFF0EC0201A2
:101CA000F0EC0211F0EC0221F0EC0231F0EC024118
:101CB000F0EC0251F0EC0261F0EC0271F0EC028108
:101CC000F0EC0291F0EC02A1F0EC02B1F0EC02C1F8
:101CD000F0EC02D1F0EC02E1F0EC02F1704700BF51
:101CE000E0EC0201E0EC0211E0EC0221E0EC023158
:101CF000E0EC0241E0EC0251E0EC0261E0EC027148
:101D0000E0EC0281E0EC0291E0EC02A1E0EC02B137
:101D1000E0EC02C1E0EC02D1E0EC02E1E0EC02F127
:101D2000704700BFB0FC0181B0FC0191B0FC01A183
:101D3000B0FC01B1704700BFA0FC0181A0FC019183
:101D4000A0FC01A1A0FC01B1704700BFEC4600B5AA
:101D50002DE900502DE9FF1F4FF000032DE90C0085
:101D600001A9FFF7E7FBDDF840E012B0704700BFC4
:101D7000EC4600B52DE900502DE9FF1F4FF00003A0
:101D80002DE90C0001A9FFF70FFCDDF840E012B0CF
:101D9000704700BFEC4600B52DE900502DE9FF1F4C
:101DA0004FF000032DE90C0001A9FFF71FFCDDF83F
:101DB00040E012B0704700BFEC4600B52DE900507E
:101DC0002DE9FF1F4FF000032DE90C0001ABFFF7D9
:101DD000E1FBDDF840E012B0704700BFEC4600B513
:101DE0002DE900502DE9FF1F4FF000032DE90C00F5
:101DF00001AAFFF75BFCDDF840E012B0704700BFBE
:101E0000037A1BB9437A43B9B02070475A1E03685E
:101E100002721A020260180E70474268013B10B449
:101E2000437213680321141D01721A024460026098
:101E300010BC180E704700BF00B585B003AA002380
:101E4000009219460C22FFF7E3FB039805B05DF8FA
:101E500004FB00BFF0E700BF2DE9F04306460D4646
:101E600085B04FF000082846FFF7CAFFB0280446A7
:101E700000F0B48020F07F0313F0FF0320D000F0C7
:101E8000F003802B7AD0902B35D0A02B48D0B02BEC
:101E90005CD0C02B00F0898000F0F803D02B0BD170
:101EA00000F00702013242F40022052301213046EE
:101EB000FFF7A8FD0028D6D0092005B0BDE8F083C3
:101EC0000DF10C0919468700CDF800900D2230461F
:101ED000FFF79EFBFFB2039B043760064CBFDF1B7E
:101EE000FF180023CDF8009019460D2230460397C5
:101EF000FFF7B4FBB7E700F00D030D2BDCD003AF09
:101F0000002300F00F02194600973046FFF780FBD0
:101F10000023009719460D223046FFF79FFBA2E7EA
:101F2000C2434FF47F6302F0070243FA02F2010753
:101F300002EA03024FF0000348BF42F48042194610
:101F40003046FFF75FFD0028B6D18CE7B1284AD0B4
:101F5000B22853D0B32800F0818000F0FC03B42BEA
:101F6000AAD000F007020132012342F400221946F0
:101F70003046FFF747FD00289ED174E72846FFF75B
:101F80003FFF24022043B0F5004F95D00401002309
:101F9000A2B219463046FFF735FD00288CD114F463
:101FA000004F18BF4FF001085DE7C62862D0C72870
:101FB0006CD000F0F803C02B7BD0C82800F09180D3
:101FC000C9287FF479AF2846FFF71AFF020300F013
:101FD0000F0002F470220130024366E7B8F1000FEF
:101FE0006ED0002069E72846FFF70AFF0246002866
:101FF0003FF462AF10F0F003B9D05DE700230DF1BC
:102000000C090D221946CDF800903046FFF700FB71
:102010002846FFF7F5FE02064FF002040CD5039B9D
:1020200000F07F00A040034428460393FFF7E8FE3A
:10203000030604F10704F2D4039B00F07F0000FACA
:1020400004F203F5017400231444CDF800901946FE
:102050000D2230460394FFF701FB04E72846FFF703
:10206000CFFE010300F00F0001F47021421C012398
:102070000A437CE72846FFF7C3FE010300F00F0088
:1020800001F47021421C03230A4370E72846FFF73E
:10209000B7FE024600283FF40FAF10F0F0037FF4C4
:1020A0000BAF04213046FFF7ADFC00287FF404AFEE
:1020B000D9E600F00F020132032342F4202256E752
:1020C00003AC43460E22414600943046FFF7A0FA87
:1020D0000094304643460F224146FFF7BFFA404680
:1020E000EBE62846FFF78CFE00F0F00200F00F034D
:1020F0001032013343EA0232D7E600BF10B5C36C99
:1021000084B003205A688DF80C00DC791202083381
:10211000084601A901928DF80D400293FFF79CFE3D
:1021200004B010BD08B5FFF795FE806C08BD00BF78
:1021300008B5FFF78FFEC36CD87903EB8000083039
:1021400008BD00BF08B500F005F800BF08B5FFF7EF
:10215000F9FF00BF08B5062000F0A8F8012001F043
:102160002FF8000008B5074B044613B10021AFF368
:102170000080054B1868836A03B19847204601F038
:102180001FF800BF00000000EC3200080E4B70B5D5
:102190001E460E4C0025E41AA410A54204D056F8A1
:1021A000253098470135F8E701F00CF8084B094C49
:1021B0001E46E41AA4100025A54204D056F8253086
:1021C00098470135F8E770BDA0000020A00000206E
:1021D000A0000020A400002010B5431E0A44914234
:1021E00004D011F8014B03F8014FF8E710BD034686
:1021F0000244934202D003F8011BFAE77047000043
:102200000FB40A4B13B51C6824B1A36913B9204657
:1022100000F0A8F805AB049AA1682046019300F0ED
:10222000B1F902B0BDE8104004B070479C00002036
:1022300038B5084B05461C6824B1A36913B920467C
:1022400000F090F8A26829462046BDE8384000F02A
:1022500051BC00BF9C0000201F2938B504460D4624
:1022600004D9162303604FF0FF3038BD426C12B121
:1022700052F821304BB9204600F032F82A46014688
:102280002046BDE8384000F019B8012B0CD0591C8D
:1022900003D116230360012038BD0024284642F8EC
:1022A00025409847204638BD002038BD024B0146E6
:1022B0001868FFF7D1BF00BF9C00002038B5074C5D
:1022C0000023054608461146236000F053FF431CD7
:1022D00002D1236803B12B6038BD00BF100100207C
:1022E00000F038BF014900F0A9B800BFDD2E00089A
:1022F00010B5044600230360436083608181436618
:10230000C281036143618361194608225C30FFF793
:102310006EFF054B24626362044BA362044BE362CD
:10232000044B236310BD00BF812B0008A32B0008C2
:10233000DB2B0008FF2B000870B568234D1E5D43A2
:102340000E4605F1740100F097F8044640B10021F3
:1023500080E842000C30A06005F16802FFF747FFFB
:10236000204670BD836910B5044633BB8364C364E3
:102370000365124B124A1B688262984204BF012314
:10238000836100F01FF86060204600F01BF8A06039
:10239000204600F017F80022E06004216068FFF793
:1023A000A7FF01220921A068FFF7A2FF0222122144
:1023B000E068FFF79DFF0123A36110BDEC32000828
:1023C000E5220008F8B51C4B07461E68B36913B92F
:1023D0003046FFF7C7FF4836B4687368013B04D442
:1023E000B4F90C507DB16834F8E733680BB1366846
:1023F000F2E704213846FFF79FFF30600028F6D14E
:102400000C233B60F8BD4FF6FF73E3810123A381EA
:1024100065662560A560656025616561A561082226
:10242000294604F15C00FFF7E2FE6563A563A5643D
:10243000E5642046F8BD00BFEC3200082DE9F84302
:102440008046894600F14804002694B1A568676873
:10245000013F0CD4AB89012B07D9B5F90E300133FC
:1024600003D029464046C84706436835F0E724684C
:10247000EBE73046BDE8F88370B5CD1C25F00305C9
:1024800008350C2D38BF0C25002D064601DBA9426E
:1024900002D90C23336046E000F0CAFD234B1C68D0
:1024A0001A462146A1B10B685B1B0ED40B2B03D936
:1024B0000B60CC18CD501EE08C420BBF63684B689C
:1024C0001360636018BF0C4615E00C464968E9E7E5
:1024D000174C23681BB9304600F042FB20602946A8
:1024E000304600F03DFB431C18D0C41C24F003040C
:1024F000A0420DD12560304600F09BFD04F10B0099
:10250000231D20F00700C31A0ED05A42E25070BDBE
:10251000211A304600F024FB0130EBD10C2333604C
:10252000304600F086FD002070BD00BFE0000020B6
:10253000DC000020936810B4013B002B936008DAA4
:102540009469A34202DBCBB20A2B02D110BC00F08B
:102550005BBB1368581C10601970C8B210BC704780
:10256000F8B506460F461446D518AC4208D03A4690
:1025700014F8011B3046FFF7DDFF431CF5D100E0E6
:102580000020F8BD2DE9F04F9DB00C46174603938F
:10259000064618B183690BB9FFF7E4FE7F4B9C42F6
:1025A00001D1746808E07E4B9C4201D1B46803E01D
:1025B0007C4B9C4208BFF468A38918070CD523699B
:1025C00053B10023099320238DF8293030238DF84F
:1025D0002A30DFF8D4B144E02146304600F07AFBDF
:1025E0000028EED04FF0FF30D5E0039A111D12689D
:1025F0000391002A80F28C80524243F0020007923D
:10260000049098F800302E2B00F08480032298F874
:102610000010654800F0FEFC48B14023CBEB000001
:1026200003FA00F0049B08F101081843049098F89D
:10263000001006225D4808F101078DF8281000F00F
:10264000E9FC002800F09580594B002B40F0888071
:10265000039B073323F0070308330393099B534479
:102660000993B846454615F8013B1BB9B8EB070975
:102670000FD003E0252BF9D0A846F3E74B463A46A6
:1026800021463046FFF76CFF01307FD0099B4B4459
:10269000099398F80030002B78D000234FF0FF32D8
:1026A00004930793059206938DF853301A930127EC
:1026B000052229783F4800F0ADFC05F10108049B94
:1026C00038B13C4A4546801A07FA00F01843049096
:1026D000EEE7D90644BF20228DF853201A0744BFE5
:1026E0002B228DF853202A782A2A3FF47EAF079AAE
:1026F00000210A20A84698F800300135303B092B0C
:1027000003D800FB02320121F4E700293FF479AF3E
:10271000079276E798F801302A2B0BD1039B08F13A
:1027200002081A1D1B680392002BB8BF4FF0FF333D
:1027300005936BE700231946059308F101000A256C
:10274000804698F800200130303A092A03D805FB6A
:1027500001210123F4E7002B3FF458AF059155E721
:1027600003AB00932246144B04A93046AFF300801C
:1027700007E003AB009322460F4B04A9304600F05C
:1027800093F8B0F1FF3F82467FF468AFA3895B0600
:102790003FF528AF09981DB0BDE8F08FF032000872
:1027A0001033000830330008563300085A3300084D
:1027B0000000000050330008612500082DE9F047B3
:1027C00091461F460A698B6806469342B8BF134676
:1027D000C9F8003091F843200C46DDF8208012B192
:1027E0000133C9F800302368990642BFD9F8003098
:1027F0000233C9F80030256815F0060510D104F140
:10280000190A07E00123524639463046C0470130D5
:102810001AD00135E368D9F800209B1A9D42F1DBFC
:1028200094F843302268003318BF012392060FD575
:10283000E118302081F843005A1C94F845102244D6
:10284000023382F8431003E04FF0FF30BDE8F08719
:1028500004F1430239463046C0470130F4D02268C3
:10286000D9F80050E36802F00602042A08BF5D1B95
:102870002269A3680CBF25EAE57500259342C4BF11
:102880009B1AED184FF000091A344D4509D0012369
:10289000224639463046C0470130D5D009F10109FA
:1028A000F3E70020BDE8F0872DE9F04317460A7EE4
:1028B00085B06E2A984606460C460C9B01F1430EE5
:1028C00000F0AE8011D8632A22D009D8002A00F087
:1028D000BB80582A40F0CA8081F84520834955E0E2
:1028E000642A1ED0692A1CD0C0E0732A00F0B08090
:1028F00009D86F2A2ED0702A40F0B8800A6842F0BA
:1029000020020A603EE0752A24D0782A3AD0ADE051
:102910001A6801F14205111D1960136884F84230EC
:10292000A8E021681A6811F0800F02D0111D19600B
:1029300008E011F0400F02F10401196002D0B2F971
:10294000003000E01368002B3CDA2D225B4284F853
:10295000432037E021681A6811F0800F02D0111D62
:10296000196007E011F0400F02F10401196001D075
:10297000138800E01368227E5C496F2A14BF0A2284
:1029800008221BE078225A4984F8452022681868FA
:1029900012F0800F00F104051D6003D1550601D52A
:1029A000038800E00368D00744BF42F020022260A1
:1029B0001BB9226822F0200222601022002084F835
:1029C000430001E049490A226568002DA56008DB43
:1029D000206820F0040020602BB9002D7DD17546C1
:1029E0000CE0002B79D07546B3FBF2F002FB1033FC
:1029F000CB5C05F8013D03460028F5D1082A0BD130
:102A00002368DA0708D5236962689A42DEBF30235B
:102A100005F8013C05F1FF35C5EB0E0323612EE0FF
:102A200008681A6810F0800F496903D0101D1860FB
:102A3000136808E010F0400F02F1040018601368FA
:102A400001D0198000E0196000232361754616E06B
:102A50001A68111D1960156800216268284600F087
:102A6000D9FA08B1401B6060636804E004F14205D4
:102A700084F8422001232361002384F84330CDF8F9
:102A800000803B4603AA21463046FFF797FE0130FF
:102A900002D14FF0FF3026E023692A4639463046FE
:102AA000C0470130F5D023689B0710D5002504F1FD
:102AB000190907E001234A4639463046C04701302C
:102AC000E7D00135E368039A9B1A9D42F2DBE06888
:102AD000039B9842B8BF184605E00B7804F1420505
:102AE00084F842308AE705B0BDE8F083613300081E
:102AF0007233000870B50D461446064618B1836956
:102B00000BB9FFF72FFC134B9C4201D1746808E00E
:102B1000114B9C4201D1B46803E0104B9C4208BFAA
:102B2000F468A368013B002BA3600CDAA26993420E
:102B300002DBEBB20A2B06D1224629463046BDE81D
:102B4000704000F061B82368E8B25A1C22601D7022
:102B500070BD00BFF03200081033000830330008A9
:102B600038B5064C002305460846236000F01AFBE2
:102B7000431C02D1236803B12B6038BD1001002033
:102B800010B50C46B1F90E1000F0A0FA0028ABBF4A
:102B9000636DA3891B1823F48053ACBF6365A381C5
:102BA00010BD2DE9F0411F468B890546DB050C461B
:102BB000164605D502230022B1F90E1000F0B8F92F
:102BC000A389324623F48053A381B4F90E103B4607
:102BD0002846BDE8F04100F06BB810B50C46B1F9DD
:102BE0000E1000F0A5F9431CA38915BF606523F4FE
:102BF000805343F48053A38118BFA38110BDB1F962
:102C00000E1000F0D5B80000F8B50F461446064681
:102C100018B183690BB9FFF7A5FB224B9C4201D188
:102C2000746808E0204B9C4201D1B46803E01F4B5C
:102C30009C4208BFF468A369A360A3891A0709D559
:102C400023693BB123682069FDB2181A6369984271
:102C50000FDB08E02146304600F03CF80028F1D0B8
:102C60004FF0FF30F8BD2146304600F037F900281C
:102C7000F6D1A368013BA36023685A1C22601F7031
:102C80006269431C934204D0A389DB0707D50A2D50
:102C900005D12146304600F021F90028E0D1284630
:102CA000F8BD00BFF03200081033000830330008D0
:102CB00038B5074C054608461146002222601A46E0
:102CC000FDF76CFB431C02D1236803B12B6038BDB8
:102CD00010010020324B70B51D6806460C4625B128
:102CE000AB6913B92846FFF73DFB2E4B9C4201D13F
:102CF0006C6808E02C4B9C4201D1AC6803E02B4B84
:102D00009C4208BFEC68B4F90C309AB215071DD488
:102D1000D00602D4092232603AE0510712D5616B25
:102D200041B104F14403994202D0304600F082F9E7
:102D300000236363A38923F02403A381002363603A
:102D400023692360A38943F00803A38123694BB956
:102D5000A38903F42073B3F5007F03D021463046E6
:102D600000F01CF9A28912F0010305D00023A36032
:102D700063695B42A36103E0920758BF6369A36084
:102D800023695BB9B4F90C3003F0800080B230B134
:102D900043F04003A3814FF0FF3070BD002070BDB1
:102DA0009C000020F0320008103300083033000887
:102DB00038B5064C002305460846236000F0BAF9F2
:102DC000431C02D1236803B12B6038BD10010020E1
:102DD0008A892DE9F041054610070C4659D44B6805
:102DE000002B02DC0B6C002B17DDE66AAEB102F49F
:102DF0008052002392B22F682B600AB1606D15E0FB
:102E0000216A01232846B047411C0FD12B686BB1C2
:102E10001D2B01D0162B03D12F600020BDE8F081BF
:102E2000A38943F04003A381BDE8F081A3895A0739
:102E300005D56368C01A636B0BB1236CC01A0023FD
:102E40000246E66A216A2846B047431CA38906D198
:102E500029681D2939D8204ACA40D60735D500220D
:102E600062602269D904226004D5421C01D12B681A
:102E700003B96065616B2F600029CED004F1440373
:102E8000994202D0284600F0D5F800206063BDE8E2
:102E9000F0810F69002FC0D093070E680CBF4B69FB
:102EA0000023C7EB06080F608B6002E00744C0EB0D
:102EB0000808B8F1000FB0DD43463A46216A2846BB
:102EC000A66AB0470028F1DCA38943F04003A38140
:102ED0004FF0FF30BDE8F0810100402038B50B69AC
:102EE00005460C46DBB118B183690BB9FFF73AFA16
:102EF0000C4B9C4201D16C6808E00B4B9C4201D109
:102F0000AC6803E0094B9C4208BFEC68B4F90C3094
:102F10002BB121462846BDE83840FFF759BF0020B5
:102F200038BD00BFF032000810330008303300080D
:102F300038B5074C054608461146002222601A465D
:102F400000F020F9431C02D1236803B12B6038BD87
:102F50001001002070B50E46B1F90E1090B0002996
:102F600014461D4606DA00232B60B3891A060ED5D7
:102F700040230EE001AA00F0BBF80028F3DB029A20
:102F800002F47042A2F500535A425A412A604FF4AB
:102F900080630020236010B070BD00008B8973B582
:102FA0009E0705460C4610D401AB6A46FFF7D2FFD8
:102FB000009906462846FFF75FFA68B9B4F90C3065
:102FC0009A0522D443F00203A38104F1470323604E
:102FD00023610123636118E00D4BAB62A38920607C
:102FE00043F08003A381009B20616361019B4BB18F
:102FF000B4F90E10284600F08DF818B1A38943F0FB
:103000000103A381A0893043A08102B070BD00BF3D
:10301000E522000810B5C9B202449042034605D02B
:103020001C7801308C42F8D1184610BD002010BD2C
:103030007047704738B50546002944D051F8043C24
:103040000C1F002BB8BFE418FFF7F2FF1E4A1368ED
:10305000114613B96360146030E0A3420DD92268B1
:10306000A018834201BF18685B6812182260636071
:103070000C6023E0A24203D813465A68002AF9D113
:1030800018681918A1420BD12168014458188242CE
:10309000196013D110685268014419605A600DE03C
:1030A00002D90C232B6009E021686018824201BF1D
:1030B000106852680918216062605C602846BDE8AB
:1030C0003840FFF7B6BF38BDE000002038B5074CE8
:1030D000054608461146002222601A4600F05AF8BA
:1030E000431C02D1236803B12B6038BD10010020BE
:1030F00038B5074C0023054608461146236000F00A
:1031000021F8431C02D1236803B12B6038BD00BFF6
:103110001001002038B5064C002305460846236000
:1031200000F020F8431C02D1236803B12B6038BDA6
:1031300010010020024B58221A604FF0FF307047F8
:1031400010010020024B58221A604FF0FF307047E8
:1031500010010020024B58221A604FF0FF307047D8
:1031600010010020024B58221A600020704700BF57
:1031700010010020024B58221A604FF0FF307047B8
:1031800010010020024B58221A604FF0FF307047A8
:1031900010010020024B58221A604FF0FF30704798
:1031A00010010020044B0246196809B9034919604F
:1031B000186802441A607047E400002018010020DB
:1031C000FEE70000F8B500BFF8BC08BC9E4670479B
:1031D000F8B500BFF8BC08BC9E467047555F49442F
:1031E000203D2025303858202530385820253038CB
:1031F000580A0000464C4153485F53495A45203D08
:10320000202564204B420A005243435F4352202052
:1032100020203D203078253038580A005243435F43
:103220004346475220203D203078253038580A0048
:103230005243435F4353522020203D2030782530B5
:1032400038580A00464C4153485F414352203D20C4
:103250003078253038580A005243435F535953435E
:103260004C4B5F4672657175656E6379203D202514
:103270006C640A005243435F48434C4B5F4672659F
:103280007175656E63792020203D20256C640A00ED
:103290005243435F50434C4B315F467265717565D5
:1032A0006E637920203D20256C640A005243435F01
:1032B00050434C4B325F4672657175656E63792081
:1032C000203D20256C640A005243435F4144434340
:1032D0004C4B5F4672657175656E6379203D2025A4
:1032E0006C640A00FFFFFFFF430000003C00002069
:1032F00000000000000000000000000000000000CE
:1033000000000000000000000000000000000000BD
:1033100000000000000000000000000000000000AD
:10332000000000000000000000000000000000009D
:10333000000000000000000000000000000000008D
:10334000000000000000000000000000000000007D
:10335000232D302B2000686C4C006566674546477E
:103360000030313233343536373839414243444501
:103370004600303132333435363738396162636470
:0833800065660000000000007A
:1033880008B10181B0B000840000000008B10181DB
:08339800B0B000840000000049
:1033A000A8CDFF7F0100000078D3FF7FA908B1807E
:1033B000BCD3FF7FB0AB028070D4FF7FB0AC018084
:1033C00020D5FF7F0100000044DFFF7FB0A902800D
:1033D000E0DFFF7FB0B0A88030E0FF7F0100000099
:1033E0003CE0FF7FB0B0AA8074E0FF7FAE71B28096
:1033F00040E1FF7F010000003CE1FF7FAB3F3880F0
:1034000094E1FF7F01000000A0E1FF7FB0B0AA803F
:10341000DCE1FF7F0100000094E2FF7FAB0EB28091
:10342000FCE2FF7FB0AF0A80D0E5FF7F0100000023
:10343000D4E5FF7FAB3F04801CE8FF7F0100000064
:10344000F8E9FF7F008404800CEAFF7F01000000A0
:1034500008EAFF7FB0AD0480A4ECFF7FB0A8038032
:10346000C4ECFF7F24FFFF7FC8ECFF7F28FFFF7FB6
:08347000D4ECFF7F0100000015
:10347800020406080000000001020304010203041C
:10348800060708094240E141E0E2614A5FFFFFE9BF
:10349800FF4341C2FFFF645749FFFFFF4EFF000093
:1034A800415FD0544E646057404400000000000063
:1034B800F032000810330008303300080000000024
:1034C800000000000000000000000000E8320008D2
:1034D80000000000000000000000000000000000E4
:1034E80000000000000000000000000000000000D4
:1034F80000000000000000000000000000000000C4
:103508000000000000000000000000003C00002057
:0835180011010008ED0000089C
:0400000508000000EF
:00000001FF
