:020000040800F2
:1000000000500020590900089F090008A1090008B4
:10001000A3090008A5090008A709000800000000BE
:10002000000000000000000000000000A909000816
:10003000AB09000800000000AD090008AF09000886
:10004000B3090008B5090008B7090008B909000894
:10005000BB090008BD090008BF090008C109000864
:10006000C3090008C5090008C7090008C909000834
:10007000CB090008CD090008CF090008D109000804
:10008000D3090008D5090008D7090008D9090008D4
:10009000DB090008DD090008DF090008E1090008A4
:1000A000E3090008E5090008E7090008E909000874
:1000B000EB090008ED090008EF090008F109000844
:1000C000F3090008F5090008F7090008F909000814
:1000D000FB090008FD090008FF090008010A0008E3
:1000E000030A0008050A0008070A000810B5054CB5
:1000F000237833B9044B13B10448AFF300800123D4
:10010000237010BD8000002000000000582400086B
:10011000084B10B51BB108490848AFF300800848E8
:10012000036803B910BD074B002BFBD0BDE810409E
:10013000184700BF00000000840000205824000879
:100140008000002000000000154B002B08BF134B5F
:100150009D46A3F5803A00218B460F461348144A6A
:10016000121A01F0FBF80F4B002B00D098470E4BF2
:10017000002B00D098470020002104000D000D48FE
:10018000002802D00C48AFF3008001F0C1F8200035
:10019000290000F0ABFB01F0A7F800BF0000080049
:1001A000005000200000000000000000800000203F
:1001B000E4000020000000000000000010B54FF433
:1001C000404000F0BFFA174A174C9369204643F4A9
:1001D0000073936100F016FA2146144A002363600D
:1001E000A260E362A36843F00103A360A36843F045
:1001F0000803A3608B680C4A1807FBD41146936868
:1002000043F0040393608B68074A5B07FBD40849FB
:100210000B6943F010030B61536843F020035360F4
:1002200010BD00BF001002400024014000080E0075
:1002300000ED00E0092830B421DC184C00EB40054B
:1002400022690723AB40A94022EA03031943216135
:10025000124B002458639A68114842F001029A60D8
:100260001C604FF4802219461B68C0F8802120BF13
:100270000B680A4A9B07FAD5D06C30BC7047074D13
:10028000A0F10A0303EB4303EA6807249C4099406A
:1002900022EA04031943E960DAE700BF00240140C1
:1002A00000E100E008B5FFF7C5FF000908BD00BF89
:1002B000184B4FF0000C1A462DE9F0414142012441
:1002C00089B20138DFF85480DFF854E0124F998486
:1002D000000C1C804FF08046D8E90045A2F810C001
:1002E000138ACEF8806120BF138A0A499BB2002B83
:1002F000F9D0BB68013823445B4223F07F43E41804
:1003000045F10005431CE9D1C8E9004500230B80F5
:10031000BDE8F0810008004010E000E0A0000020EF
:1003200000E100E008B1FFF7C3BF70474FF47A73F4
:1003300003FB00F000B97047FFF7BABFF0B44FF607
:10034000FF76114B0021114D6FF07F400522586060
:1003500099601A60EA690E4B01200E4C42F00402CB
:100360004727EA6119801F859E85988222690A497C
:1003700042F01002226198810B6823F007030343C7
:100380000B60F0BC704700BF10E000E000100240BE
:100390000008004000ED00E00020024010B50A20F7
:1003A00086B000F0FBFF214B214A224912681B68EE
:1003B0000968214800F0DAFF204B214C19882148B8
:1003C00000F0D4FF0A2000F0E9FF21681E4800F089
:1003D000CDFF61681D4800F0C9FF616A1C4800F04C
:1003E000C5FF1C4B1C48196800F0C0FF0A2000F034
:1003F000D5FF01A800F0B0F90199184800F0B6FF48
:100400000299174800F0B2FF0399164800F0AEFFBA
:100410000499154800F0AAFF0599144800F0A6FFBA
:100420000A2000F0BBFF06B010BD00BFE8F7FF1FB9
:10043000ECF7FF1FF0F7FF1F9C220008E0F7FF1FFB
:1004400000100240B4220008C8220008DC22000884
:10045000F0220008002002400423000818230008AE
:1004600034230008502300086C2300088823000868
:10047000F0B441F29107254B254E1C467068254D7E
:1004800020F004007060686806F5803620F0F00007
:1004900040F0A00068609D8A1F48ADB2443645F028
:1004A00080059D82B060F1607260376099891B4859
:1004B00089B241F040010026202599811E80C0F8B4
:1004C000845120BF238811495B06FAD58B891448D3
:1004D00023F040031B041B0C00248B8104608B8AD7
:1004E00004F1804423F080031B0404F584341B0CC6
:1004F0004FF400708B8220616368104623F0F00394
:1005000043F020036360F0BC704700BF0038014037
:1005100000000140000801400438014000E100E013
:100520004400024000000000F8B50546304C314B55
:10053000A2694FF4007042F00102A261A2694FF477
:10054000806142F00402A26118615A68680822F0D2
:10055000F00242F020025A605A6822F4706242F4BB
:1005600000625A601961A36943F48043A36100F0FB
:1005700013FC1DA3D3E9002300F0D2FA0646284657
:100580000F4600F009FC02460B463046394600F0A3
:10059000A3FD00F089FE41F2A105174B002280B2B5
:1005A000082118819A821A8299816269134942F05E
:1005B000010262619A89A4F5574492B242F00402A2
:1005C0009A819A8A0E4892B242F04002FC3C202660
:1005D0009A824E608C60C8600D609A8992B242F433
:1005E00000529A81F8BD00BF00000000882A9141A6
:1005F000001002400008014000380140580002404D
:10060000BC00002008B5174B984212D0164B9842F8
:100610001BD0164B984200D008BD01214FF400407A
:1006200000F0F6F8BDE8084000214FF4004000F06B
:10063000EFB801214FF4007000F0EAF8BDE808407F
:1006400000214FF4007000F0E3B801214FF4806006
:1006500000F0DEF8BDE8084000214FF4806000F0B3
:10066000D7B800BF0024014000280140003C0140F1
:10067000CB782DE9F04103F00F06DB0648BF8B78FD
:100680000C8848BF1E4314F0FF0F26D005680023D6
:1006900001274FF00F0803E00133082B1BD00C8813
:1006A00007FA03F232EA0404F6D19C0091F803E061
:1006B00008FA04FC25EA0C0506FA04F4BEF1280F3A
:1006C00045EA040538D0BEF1480F03F1010308BF25
:1006D0000261082BE3D105600C88FF2C2AD94568FC
:1006E000002301274FF00F0C03E00133082B20D02B
:1006F0000C8803F1080207FA02F232EA0404F4D18A
:1007000091F803E09C00BEF1280F04BF426191F80C
:1007100003E00CFA04F8BEF1480F03F1010325EAE7
:10072000080506FA04F408BF0261082B45EA04052F
:10073000DED14560BDE8F0814261ADE701617047FF
:1007400041617047034A536823F4404318435060A3
:10075000704700BF0010024030B4214A536803F0D4
:100760000C03042B06D0082B25D01BB11D4A1346C1
:10077000026001E01B4B0360194A1B4C51681B4D82
:10078000C1F30311615CCB4043605168C1F30221A6
:10079000615C23FA01F181605168C1F3C221615C9F
:1007A000CB40C3605268C2F38132AA5C30BCB3FB59
:1007B000F2F30361704753685168C3F38343C9037D
:1007C00003F1020307D55268920304D4054A02FBE1
:1007D00003F30360D0E7064A02FB03F30360CBE7B1
:1007E0000010024000127A000400002000000020E7
:1007F00000093D0029B9054A936923EA0000906188
:100800007047024B9A69104398617047001002408C
:1008100029B9054AD36823EA0000D0607047024B2B
:10082000DA681043D86070470010024038B50121E3
:100830000820FFF7DFFF064B102501240322DD709F
:100840001C809A701946BDE838400248FFF710BF77
:10085000DC000020000C014010B501210420FFF74E
:10086000C9FF064B0024022219460548DC709A7025
:10087000FFF7FEFEBDE81040FFF7A0BCDC00002043
:1008800000080140F8B54FF4FA6505FB00F0144E7E
:10089000144D86FB013685FB0035C917C1EBE60612
:1008A0000544002E4FEAE070C0EBE51516DD05F5B6
:1008B000FA75C5F59C472037002401210A48FFF747
:1008C0003DFF2846FFF72EFD012107480C44FFF7A6
:1008D00037FF3846FFF726FDA642EED1F8BD00BF30
:1008E00067666666B7600BB6000C014070B5FFF72F
:1008F00025FD1648FFF718FEFFF750FDFFF796FF9E
:10090000FFF7AAFF124E002420461421FFF7BAFF7A
:100910001024002507210846FFF7C4FC013C0544CC
:10092000F8D1291EB8BF0F310911B42303FB01F31D
:1009300086FB0302DC171344C4EBE324224605487C
:1009400000F014FD0A20FFF7F1FCDDE740420F0044
:1009500081000880A42300080649074A074B9A42F1
:10096000BEBF51F8040B42F8040BF8E70448804777
:100970000448004764240008000000208000002094
:10098000110A0008490100081F49204A002301E01C
:1009900041F8043B9142FBD3FFF7A8FFFEE7FEE7D7
:1009A000FEE7FEE7FEE7FEE7FEE7FEE7FEE7FEE71F
:1009B000FEE7FEE7FEE7FEE7FEE7FEE7FEE7FEE70F
:1009C000FEE7FEE7FEE7FEE7FEE7FEE7FEE7FEE7FF
:1009D000FEE7FEE7FEE7FEE7FEE7FEE7FEE7FEE7EF
:1009E000FEE7FEE7FEE7FEE7FEE7FEE7FEE7FEE7DF
:1009F000FEE7FEE7FEE7FEE7FEE7FEE7FEE7FEE7CF
:100A0000FEE7FEE7FEE7FEE780000020E4000020AE
:100A100030B43C4B3C49186882B040F0010018608B
:100A20005D6800202940596019684FF41F0421F0C7
:100A3000847121F48031196019681A4621F48021EB
:100A40001960596821F4FE0159609C600090019082
:100A5000196841F48031196003E0009BB3F5A06F81
:100A600009D0136803F400330193009B0133009312
:100A7000019B002BF1D0234B1B6813F4003318BFEC
:100A800001230193019B012B06D0204B4FF0006204
:100A90009A6002B030BC70471D4A1A4B1068194664
:100AA00040F010001060106820F003001060106823
:100AB00040F0020010605A685A605A685A605A68DA
:100AC00042F480625A605A6822F47C125A605A6872
:100AD00042F4E8125A601A6842F080721A600B6899
:100AE000084A9B01FBD51146536823F0030353606A
:100AF000536843F0020353604B6803F00C03082B68
:100B0000FAD1C2E7001002400000FFF800ED00E05B
:100B10000020024081F0004102E000BF83F000436A
:100B200030B54FEA41044FEA430594EA050F08BF88
:100B300090EA020F1FBF54EA000C55EA020C7FEA4C
:100B4000645C7FEA655C00F0E2804FEA5454D4EBC9
:100B50005555B8BF6D420CDD2C4480EA020281EA93
:100B6000030382EA000083EA010180EA020281EACB
:100B70000303362D88BF30BD11F0004F4FEA01311D
:100B80004FF4801C4CEA113102D0404261EB41012C
:100B900013F0004F4FEA03334CEA133302D05242B2
:100BA00063EB430394EA050F00F0A780A4F101046E
:100BB000D5F1200E0DDB02FA0EFC22FA05F28018A8
:100BC00041F1000103FA0EF2801843FA05F359418E
:100BD0000EE0A5F120050EF1200E012A03FA0EFC0D
:100BE00028BF4CF0020C43FA05F3C01851EBE37137
:100BF00001F0004507D54FF0000EDCF1000C7EEB54
:100C000000006EEB0101B1F5801F1BD3B1F5001F91
:100C10000CD349085FEA30004FEA3C0C04F10104B0
:100C20004FEA445212F5800F80F09A80BCF1004FD9
:100C300008BF5FEA500C50F1000041EB045141EA5B
:100C4000050130BD5FEA4C0C404141EB010111F45C
:100C5000801FA4F10104E9D191F0000F04BF014607
:100C60000020B1FA81F308BF2033A3F10B03B3F1E5
:100C700020020CDA0C3208DD02F1140CC2F10C0275
:100C800001FA0CF021FA02F10CE002F11402D8BFD3
:100C9000C2F1200C01FA02F120FA0CFCDCBF41EA9F
:100CA0000C019040E41AA2BF01EB0451294330BD6E
:100CB0006FEA04041F3C1CDA0C340EDC04F114044B
:100CC000C4F1200220FA04F001FA02F340EA030022
:100CD00021FA04F345EA030130BDC4F10C04C4F168
:100CE000200220FA02F001FA04F340EA0300294648
:100CF00030BD21FA04F0294630BD94F0000F83F492
:100D0000801306BF81F480110134013D4EE77FEA74
:100D1000645C18BF7FEA655C29D094EA050F08BFC0
:100D200090EA020F05D054EA000C04BF19461046A1
:100D300030BD91EA030F1EBF0021002030BD5FEAE5
:100D4000545C05D14000494128BF41F0004130BD0D
:100D500014F580043CBF01F5801130BD01F0004561
:100D600045F0FE4141F470014FF0000030BD7FEAD4
:100D7000645C1ABF194610467FEA655C1CBF0B46CF
:100D8000024650EA013406BF52EA033591EA030FE6
:100D900041F4002130BD00BF90F0000F04BF0021DE
:100DA000704730B54FF4806404F132044FF0000511
:100DB0004FF0000150E700BF90F0000F04BF00218A
:100DC000704730B54FF4806404F1320410F00045F0
:100DD00048BF40424FF000013EE700BF42004FEAEB
:100DE000E2014FEA31014FEA02701FBF12F07F4368
:100DF00093F07F4F81F06051704792F0000F14BF65
:100E000093F07F4F704730B54FF4607401F00045A8
:100E100021F0004120E700BF50EA010208BF7047FF
:100E200030B54FF000050AE050EA010208BF7047F4
:100E300030B511F0004502D5404261EB41014FF45D
:100E4000806404F132045FEA915C3FF4DCAE4FF061
:100E500003025FEADC0C18BF03325FEADC0C18BF48
:100E6000033202EBDC02C2F1200300FA03FC20FA99
:100E700002F001FA03FE40EA0E0021FA02F11444E6
:100E8000C1E600BF70B54FF0FF0C4CF4E06C1CEAFB
:100E900011541DBF1CEA135594EA0C0F95EA0C0F70
:100EA00000F0DEF82C4481EA030621EA4C5123EAE3
:100EB0004C5350EA013518BF52EA033541F4801112
:100EC00043F4801338D0A0FB02CE4FF00005E1FBC5
:100ED00002E506F00042E0FB03E54FF00006E1FB0F
:100EE00003569CF0000F18BF4EF0010EA4F1FF0452
:100EF000B6F5007F64F5407404D25FEA4E0E6D4192
:100F000046EB060642EAC62141EA55514FEAC520A2
:100F100040EA5E504FEACE2EB4F1FD0C88BFBCF51E
:100F2000E06F1ED8BEF1004F08BF5FEA500E50F1CF
:100F3000000041EB045170BD06F0004646EA010195
:100F400040EA020081EA0301B4EB5C04C2BFD4EBC7
:100F50000C0541EA045170BD41F480114FF0000EC0
:100F6000013C00F3AB8014F1360FDEBF002001F02E
:100F7000004170BDC4F10004203C35DA0C341BDCA8
:100F800004F11404C4F1200500FA05F320FA04F07A
:100F900001FA05F240EA020001F0004221F00041AE
:100FA00010EBD37021FA04F642EB06015EEA430E21
:100FB00008BF20EAD37070BDC4F10C04C4F1200551
:100FC00000FA04F320FA05F001FA04F240EA020004
:100FD00001F0004110EBD37041F100015EEA430ED5
:100FE00008BF20EAD37070BDC4F1200500FA05F2F5
:100FF0004EEA020E20FA04F301FA05F243EA020374
:1010000021FA04F001F0004121FA04F220EA020082
:1010100000EBD3705EEA430E08BF20EAD37070BDC8
:1010200094F0000F0FD101F00046400041EB0101A8
:1010300011F4801F08BF013CF7D041EA060195F08A
:10104000000F18BF704703F00046520043EB030344
:1010500013F4801F08BF013DF7D043EA0603704731
:1010600094EA0C0F0CEA135518BF95EA0C0F0CD03C
:1010700050EA410618BF52EA4306D1D181EA030182
:1010800001F000414FF0000070BD50EA410606BF7C
:101090001046194652EA430619D094EA0C0F02D1C1
:1010A00050EA013613D195EA0C0F05D152EA033606
:1010B0001CBF104619460AD181EA030101F0004124
:1010C00041F0FE4141F470014FF0000070BD41F06D
:1010D000FE4141F4780170BD70B54FF0FF0C4CF447
:1010E000E06C1CEA11541DBF1CEA135594EA0C0F66
:1010F00095EA0C0F00F0A7F8A4EB050481EA030EB3
:1011000052EA03354FEA013100F088804FEA033399
:101110004FF0805545EA131343EA12634FEA022267
:1011200045EA111545EA10654FEA00260EF0004128
:101130009D4208BF964244F1FD0404F5407402D27A
:101140005B084FEA3202B61A65EB03055B084FEA0B
:1011500032024FF480104FF4002CB6EB020E75EB08
:10116000030E22BFB61A754640EA0C005B084FEA30
:101170003202B6EB020E75EB030E22BFB61A7546AD
:1011800040EA5C005B084FEA3202B6EB020E75EBF8
:10119000030E22BFB61A754640EA9C005B084FEA70
:1011A0003202B6EB020E75EB030E22BFB61A75467D
:1011B00040EADC0055EA060E18D04FEA051545EA6C
:1011C00016754FEA06164FEAC30343EA52734FEA15
:1011D000C2025FEA1C1CC0D111F4801F0BD141EA8E
:1011E00000014FF000004FF0004CB6E711F4801FF3
:1011F00004BF01430020B4F1FD0C88BFBCF5E06FD3
:101200003FF6AFAEB5EB030C04BFB6EB020C5FEAE2
:10121000500C50F1000041EB045170BD0EF0004E37
:101220004EEA113114EB5C04C2BFD4EB0C0541EA69
:10123000045170BD41F480114FF0000E013C90E666
:1012400045EA060E8DE60CEA135594EA0C0F08BF2A
:1012500095EA0C0F3FF43BAF94EA0C0F0AD150EA29
:1012600001347FF434AF95EA0C0F7FF425AF1046BC
:1012700019462CE795EA0C0F06D152EA03353FF4E4
:10128000FDAE1046194622E750EA410618BF52EA61
:1012900043067FF4C5AE50EA41047FF40DAF52EA35
:1012A00043057FF4EBAE12E74A0011D212F50012AB
:1012B00011D20DD56FF47873B3EB62520ED44FEAAE
:1012C000C12343F0004343EA505323FA02F070472E
:1012D0004FF00000704750EA013002D14FF0FF306C
:1012E00070474FF00000704708B5074B044613B134
:1012F0000021AFF30080054B1868836A03B198475B
:10130000204600F0BDFF00BF00000000C023000821
:101310000E4B70B51E460E4C0025E41AA410A542D3
:1013200004D056F8253098470135F8E700F0AAFFB9
:10133000084B094C1E46E41AA4100025A54204D00F
:1013400056F8253098470135F8E770BD7800002041
:1013500078000020780000207C0000200346024432
:10136000934202D003F8011BFAE770470FB40A4B0F
:1013700013B51C6824B1A36913B9204600F062F8C4
:1013800005AB049AA1682046019300F06BF902B006
:10139000BDE8104004B070477400002038B5084B19
:1013A00005461C6824B1A36913B9204600F04AF829
:1013B000A26829462046BDE8384000F00BBC00BFBB
:1013C00074000020014900F0A9B800BFBD1F00084B
:1013D00010B5044600230360436083608181436647
:1013E000C281036143618361194608225C30FFF7C3
:1013F000B5FF054B24626362044BA362044BE362B6
:10140000044B236310BD00BF611C0008831C00084F
:10141000BB1C0008DF1C000870B568234D1E5D432F
:101420000E4605F1740100F097F8044640B1002122
:1014300080E842000C30A06005F16802FFF78EFFE3
:10144000204670BD836910B5044633BB8364C36412
:101450000365124B124A1B688262984204BF012343
:10146000836100F01FF86060204600F01BF8A06068
:10147000204600F017F80022E06004216068FFF7C2
:10148000A7FF01220921A068FFF7A2FF0222122173
:10149000E068FFF79DFF0123A36110BDC023000892
:1014A000C5130008F8B51C4B07461E68B36913B98D
:1014B0003046FFF7C7FF4836B4687368013B04D471
:1014C000B4F90C507DB16834F8E733680BB1366875
:1014D000F2E704213846FFF79FFF30600028F6D17D
:1014E0000C233B60F8BD4FF6FF73E3810123A3811A
:1014F00065662560A560656025616561A561082256
:10150000294604F15C00FFF729FF6563A563A56424
:10151000E5642046F8BD00BFC02300082DE9F8436C
:101520008046894600F14804002694B1A5686768A2
:10153000013F0CD4AB89012B07D9B5F90E3001332B
:1015400003D029464046C84706436835F0E724687B
:10155000EBE73046BDE8F88370B5CD1C25F00305F8
:1015600008350C2D38BF0C25002D064601DBA9429D
:1015700002D90C23336046E000F0CAFD234B1C68FF
:101580001A462146A1B10B685B1B0ED40B2B03D965
:101590000B60CC18CD501EE08C420BBF63684B68CB
:1015A0001360636018BF0C4615E00C464968E9E714
:1015B000174C23681BB9304600F042FB20602946D7
:1015C000304600F03DFB431C18D0C41C24F003043B
:1015D000A0420DD12560304600F09BFD04F10B00C8
:1015E000231D20F00700C31A0ED05A42E25070BDEE
:1015F000211A304600F024FB0130EBD10C2333607C
:10160000304600F086FD002070BD00BFAC00002019
:10161000A8000020936810B4013B002B936008DA07
:101620009469A34202DBCBB20A2B02D110BC00F0BA
:101630005BBB1368581C10601970C8B210BC7047AF
:10164000F8B506460F461446D518AC4208D03A46BF
:1016500014F8011B3046FFF7DDFF431CF5D100E015
:101660000020F8BD2DE9F04F9DB00C4617460393BE
:10167000064618B183690BB9FFF7E4FE7F4B9C4225
:1016800001D1746808E07E4B9C4201D1B46803E04C
:101690007C4B9C4208BFF468A38918070CD52369CA
:1016A00053B10023099320238DF8293030238DF87E
:1016B0002A30DFF8D4B144E02146304600F07AFB0E
:1016C0000028EED04FF0FF30D5E0039A111D1268CC
:1016D0000391002A80F28C80524243F0020007926C
:1016E000049098F800302E2B00F08480032298F8A4
:1016F0000010654800F0FEFC48B14023CBEB000031
:1017000003FA00F0049B08F101081843049098F8CC
:10171000001006225D4808F101078DF8281000F03E
:10172000E9FC002800F09580594B002B40F08880A0
:10173000039B073323F0070308330393099B5344A8
:101740000993B846454615F8013B1BB9B8EB0709A4
:101750000FD003E0252BF9D0A846F3E74B463A46D5
:1017600021463046FFF76CFF01307FD0099B4B4488
:10177000099398F80030002B78D000234FF0FF3207
:1017800004930793059206938DF853301A9301271B
:10179000052229783F4800F0ADFC05F10108049BC3
:1017A00038B13C4A4546801A07FA00F018430490C5
:1017B000EEE7D90644BF20228DF853201A0744BF14
:1017C0002B228DF853202A782A2A3FF47EAF079ADD
:1017D00000210A20A84698F800300135303B092B3B
:1017E00003D800FB02320121F4E700293FF479AF6E
:1017F000079276E798F801302A2B0BD1039B08F16A
:1018000002081A1D1B680392002BB8BF4FF0FF336C
:1018100005936BE700231946059308F101000A259B
:10182000804698F800200130303A092A03D805FB99
:1018300001210123F4E7002B3FF458AF059155E750
:1018400003AB00932246144B04A93046AFF300804B
:1018500007E003AB009322460F4B04A9304600F08B
:1018600093F8B0F1FF3F82467FF468AFA3895B062F
:101870003FF528AF09981DB0BDE8F08FC4230008DC
:10188000E4230008042400082A2400082E24000869
:101890000000000024240008411600082DE9F0474C
:1018A00091461F460A698B6806469342B8BF1346A5
:1018B000C9F8003091F843200C46DDF8208012B1C1
:1018C0000133C9F800302368990642BFD9F80030C7
:1018D0000233C9F80030256815F0060510D104F16F
:1018E000190A07E00123524639463046C047013005
:1018F0001AD00135E368D9F800209B1A9D42F1DB2C
:1019000094F843302268003318BF012392060FD5A4
:10191000E118302081F843005A1C94F84510224405
:10192000023382F8431003E04FF0FF30BDE8F08748
:1019300004F1430239463046C0470130F4D02268F2
:10194000D9F80050E36802F00602042A08BF5D1BC4
:101950002269A3680CBF25EAE57500259342C4BF40
:101960009B1AED184FF000091A344D4509D0012398
:10197000224639463046C0470130D5D009F1010929
:10198000F3E70020BDE8F0872DE9F04317460A7E13
:1019900085B06E2A984606460C460C9B01F1430E14
:1019A00000F0AE8011D8632A22D009D8002A00F0B6
:1019B000BB80582A40F0CA8081F84520834955E011
:1019C000642A1ED0692A1CD0C0E0732A00F0B080BF
:1019D00009D86F2A2ED0702A40F0B8800A6842F0E9
:1019E00020020A603EE0752A24D0782A3AD0ADE081
:1019F0001A6801F14205111D1960136884F842301C
:101A0000A8E021681A6811F0800F02D0111D19603A
:101A100008E011F0400F02F10401196002D0B2F9A0
:101A2000003000E01368002B3CDA2D225B4284F882
:101A3000432037E021681A6811F0800F02D0111D91
:101A4000196007E011F0400F02F10401196001D0A4
:101A5000138800E01368227E5C496F2A14BF0A22B3
:101A600008221BE078225A4984F845202268186829
:101A700012F0800F00F104051D6003D1550601D559
:101A8000038800E00368D00744BF42F020022260D0
:101A90001BB9226822F0200222601022002084F864
:101AA000430001E049490A226568002DA56008DB72
:101AB000206820F0040020602BB9002D7DD17546F0
:101AC0000CE0002B79D07546B3FBF2F002FB10332B
:101AD000CB5C05F8013D03460028F5D1082A0BD15F
:101AE0002368DA0708D5236962689A42DEBF30238B
:101AF00005F8013C05F1FF35C5EB0E0323612EE02F
:101B000008681A6810F0800F496903D0101D18602A
:101B1000136808E010F0400F02F104001860136829
:101B200001D0198000E0196000232361754616E09A
:101B30001A68111D1960156800216268284600F0B6
:101B4000D9FA08B1401B6060636804E004F1420503
:101B500084F8422001232361002384F84330CDF828
:101B600000803B4603AA21463046FFF797FE01302E
:101B700002D14FF0FF3026E023692A46394630462D
:101B8000C0470130F5D023689B0710D5002504F12C
:101B9000190907E001234A4639463046C04701305B
:101BA000E7D00135E368039A9B1A9D42F2DBE068B7
:101BB000039B9842B8BF184605E00B7804F1420534
:101BC00084F842308AE705B0BDE8F0833524000888
:101BD0004624000870B50D461446064618B18369C0
:101BE0000BB9FFF72FFC134B9C4201D1746808E03E
:101BF000114B9C4201D1B46803E0104B9C4208BFDA
:101C0000F468A368013B002BA3600CDAA26993423D
:101C100002DBEBB20A2B06D1224629463046BDE84C
:101C2000704000F061B82368E8B25A1C22601D7051
:101C300070BD00BFC4230008E4230008042400088A
:101C400038B5064C002305460846236000F00AFB21
:101C5000431C02D1236803B12B6038BDE000002093
:101C600010B50C46B1F90E1000F0A0FA0028ABBF79
:101C7000636DA3891B1823F48053ACBF6365A381F4
:101C800010BD2DE9F0411F468B890546DB050C464A
:101C9000164605D502230022B1F90E1000F0B8F95E
:101CA000A389324623F48053A381B4F90E103B4636
:101CB0002846BDE8F04100F06BB810B50C46B1F90C
:101CC0000E1000F0A5F9431CA38915BF606523F42D
:101CD000805343F48053A38118BFA38110BDB1F991
:101CE0000E1000F0D5B80000F8B50F4614460646B1
:101CF00018B183690BB9FFF7A5FB224B9C4201D1B8
:101D0000746808E0204B9C4201D1B46803E01F4B8B
:101D10009C4208BFF468A369A360A3891A0709D588
:101D200023693BB123682069FDB2181A63699842A0
:101D30000FDB08E02146304600F03CF80028F1D0E7
:101D40004FF0FF30F8BD2146304600F037F900284B
:101D5000F6D1A368013BA36023685A1C22601F7060
:101D60006269431C934204D0A389DB0707D50A2D7F
:101D700005D12146304600F021F90028E0D128465F
:101D8000F8BD00BFC4230008E423000804240008B1
:101D900038B5074C054608461146002222601A460F
:101DA000FEF766FB431C02D1236803B12B6038BDEC
:101DB000E0000020324B70B51D6806460C4625B188
:101DC000AB6913B92846FFF73DFB2E4B9C4201D16E
:101DD0006C6808E02C4B9C4201D1AC6803E02B4BB3
:101DE0009C4208BFEC68B4F90C309AB215071DD4B8
:101DF000D00602D4092232603AE0510712D5616B55
:101E000041B104F14403994202D0304600F082F916
:101E100000236363A38923F02403A3810023636069
:101E200023692360A38943F00803A38123694BB985
:101E3000A38903F42073B3F5007F03D02146304615
:101E400000F01CF9A28912F0010305D00023A36061
:101E500063695B42A36103E0920758BF6369A360B3
:101E600023695BB9B4F90C3003F0800080B230B163
:101E700043F04003A3814FF0FF3070BD002070BDE0
:101E800074000020C4230008E42300080424000890
:101E900038B5064C002305460846236000F0BAF921
:101EA000431C02D1236803B12B6038BDE000002041
:101EB0008A892DE9F041054610070C4659D44B6834
:101EC000002B02DC0B6C002B17DDE66AAEB102F4CE
:101ED0008052002392B22F682B600AB1606D15E02A
:101EE000216A01232846B047411C0FD12B686BB1F2
:101EF0001D2B01D0162B03D12F600020BDE8F081EF
:101F0000A38943F04003A381BDE8F081A3895A0768
:101F100005D56368C01A636B0BB1236CC01A00232C
:101F20000246E66A216A2846B047431CA38906D1C7
:101F300029681D2939D8204ACA40D60735D500223C
:101F400062602269D904226004D5421C01D12B6849
:101F500003B96065616B2F600029CED004F14403A2
:101F6000994202D0284600F0D5F800206063BDE811
:101F7000F0810F69002FC0D093070E680CBF4B692A
:101F80000023C7EB06080F608B6002E00744C0EB3C
:101F90000808B8F1000FB0DD43463A46216A2846EA
:101FA000A66AB0470028F1DCA38943F04003A3816F
:101FB0004FF0FF30BDE8F0810100402038B50B69DB
:101FC00005460C46DBB118B183690BB9FFF73AFA45
:101FD0000C4B9C4201D16C6808E00B4B9C4201D138
:101FE000AC6803E0094B9C4208BFEC68B4F90C30C4
:101FF0002BB121462846BDE83840FFF759BF0020E5
:1020000038BD00BFC4230008E423000804240008EE
:1020100038B5074C054608461146002222601A468C
:1020200000F010F9431C02D1236803B12B6038BDC6
:10203000E000002070B50E46B1F90E1090B00029F6
:1020400014461D4606DA00232B60B3891A060ED506
:1020500040230EE001AA00F0BBF80028F3DB029A4F
:1020600002F47042A2F500535A425A412A604FF4DA
:1020700080630020236010B070BD00008B8973B5B1
:102080009E0705460C4610D401AB6A46FFF7D2FF07
:10209000009906462846FFF75FFA68B9B4F90C3094
:1020A0009A0522D443F00203A38104F1470323607D
:1020B00023610123636118E00D4BAB62A3892060AB
:1020C00043F08003A381009B20616361019B4BB1BE
:1020D000B4F90E10284600F08DF818B1A38943F02A
:1020E0000103A381A0893043A08102B070BD00BF6D
:1020F000C513000810B5C9B202449042034605D08A
:102100001C7801308C42F8D1184610BD002010BD5B
:102110007047704738B50546002944D051F8043C53
:102120000C1F002BB8BFE418FFF7F2FF1E4A13681C
:10213000114613B96360146030E0A3420DD92268E0
:10214000A018834201BF18685B68121822606360A0
:102150000C6023E0A24203D813465A68002AF9D142
:1021600018681918A1420BD12168014458188242FD
:10217000196013D110685268014419605A600DE06B
:1021800002D90C232B6009E021686018824201BF4C
:10219000106852680918216062605C602846BDE8DA
:1021A0003840FFF7B6BF38BDAC00002038B5074C4B
:1021B000054608461146002222601A4600F04AF8F9
:1021C000431C02D1236803B12B6038BDE00000201E
:1021D00038B5074C0023054608461146236000F039
:1021E00021F8431C02D1236803B12B6038BD00BF26
:1021F000E000002038B5064C002305460846236061
:1022000000F018F8431C02D1236803B12B6038BDDD
:10221000E0000020024B58221A604FF0FF30704758
:10222000E0000020024B58221A604FF0FF30704748
:10223000E0000020024B58221A600020704700BFC7
:10224000E0000020024B58221A604FF0FF30704728
:10225000E0000020024B58221A604FF0FF30704718
:10226000E0000020044B0246196809B903491960CF
:10227000186802441A607047B0000020E80000208F
:10228000FEE70000F8B500BFF8BC08BC9E467047EA
:10229000F8B500BFF8BC08BC9E467047555F49447E
:1022A000203D20253038582025303858202530381A
:1022B000580A0000464C4153485F53495A45203D57
:1022C000202564204B420A005243435F43522020A2
:1022D00020203D203078253038580A005243435F93
:1022E0004346475220203D203078253038580A0098
:1022F0005243435F4353522020203D203078253005
:1023000038580A00464C4153485F414352203D2013
:102310003078253038580A005243435F53595343AD
:102320004C4B5F4672657175656E6379203D202563
:102330006C640A005243435F48434C4B5F467265EE
:102340007175656E63792020203D20256C640A003C
:102350005243435F50434C4B315F46726571756524
:102360006E637920203D20256C640A005243435F50
:1023700050434C4B325F4672657175656E637920D0
:10238000203D20256C640A005243435F414443438F
:102390004C4B5F4672657175656E6379203D2025F3
:1023A0006C640A0061767267203D20256409207004
:1023B0006F73203D2025640A0000000043000000E8
:1023C00014000020000000000000000000000000D9
:1023D00000000000000000000000000000000000FD
:1023E00000000000000000000000000000000000ED
:1023F00000000000000000000000000000000000DD
:1024000000000000000000000000000000000000CC
:1024100000000000000000000000000000000000BC
:1024200000000000232D302B2000686C4C006566F6
:102430006745464700303132333435363738394115
:10244000424344454600303132333435363738392B
:0C2450006162636465660000000000002B
:08245C00ECDCFF7F0100000031
:102464000204060800000000010203040102030440
:102474000607080900000000C4230008E42300083C
:102484000424000800000000000000000000000018
:1024940000000000BC230008000000000000000051
:1024A4000000000000000000000000000000000028
:1024B4000000000000000000000000000000000018
:1024C4000000000000000000000000000000000008
:1024D400000000001400002011010008ED000008B5
:0400000508000000EF
:00000001FF
