:020000040800F2
:1000000000500020E50300082B0400082D04000820
:100010002F04000831040008330400080000000029
:10002000000000000000000000000000350400088F
:100030003704000800000000390400083B040008F1
:100040003F04000841040008430400084504000878
:1000500047040008490400084B0400084D04000848
:100060004F04000851040008530400085504000818
:1000700057040008590400085B0400085D040008E8
:100080005F040008610400086304000865040008B8
:1000900067040008690400086B0400086D04000888
:1000A0006F04000871040008730400087504000858
:1000B00077040008790400087B0400087D04000828
:1000C0007F040008810400088304000885040008F8
:1000D00087040008890400088B0400088D040008C8
:1000E0008F040008910400089304000810B5054C23
:1000F000237833B9044B13B10448AFF300800123D4
:10010000237010BD6800002000000000A806000851
:10011000084B10B51BB108490848AFF300800848E8
:10012000036803B910BD074B002BFBD0BDE810409E
:10013000184700BF000000006C000020A80600085F
:100140006800002000000000154B002B08BF134B77
:100150009D46A3F5803A00218B460F461348144A6A
:10016000121A00F057FA0F4B002B00D098470E4B95
:10017000002B00D098470020002104000D000D48FE
:10018000002802D00C48AFF3008000F01DFA2000D8
:10019000290000F0FDF800F003FA00BF000008009D
:1001A0000050002000000000000000006800002057
:1001B000940000200000000000000000184B4FF0E9
:1001C000000C1A462DE9F0414142012489B2013860
:1001D000DFF85480DFF854E0124F9984000C1C8043
:1001E0004FF08046D8E90045A2F810C0138ACEF837
:1001F000806120BF138A0A499BB2002BF9D0BB68EB
:10020000013823445B4223F07F43E41845F10005A5
:10021000431CE9D1C8E9004500230B80BDE8F0810B
:100220000008004010E000E08800002000E100E04D
:100230004FF47A7303FB00F000B97047FFF7BEBFBD
:10024000F0B44FF6FF76114B0021114D6FF07F4057
:100250000522586099601A60EA690E4B01200E4C25
:1002600042F004024727EA6119801F859E85988223
:1002700022690A4942F01002226198810B6823F03A
:10028000070303430B60F0BC704700BF10E000E0C1
:10029000001002400008004000ED00E00020024095
:1002A000CB782DE9F04103F00F06DB0648BF8B78D1
:1002B0000C8848BF1E4314F0FF0F26D005680023AA
:1002C00001274FF00F0803E00133082B1BD00C88E7
:1002D00007FA03F232EA0404F6D19C0091F803E035
:1002E00008FA04FC25EA0C0506FA04F4BEF1280F0E
:1002F00045EA040538D0BEF1480F03F1010308BFF9
:100300000261082BE3D105600C88FF2C2AD94568CF
:10031000002301274FF00F0C03E00133082B20D0FE
:100320000C8803F1080207FA02F232EA0404F4D15D
:1003300091F803E09C00BEF1280F04BF426191F8E0
:1003400003E00CFA04F8BEF1480F03F1010325EABB
:10035000080506FA04F408BF0261082B45EA040503
:10036000DED14560BDE8F0814261ADE701617047D3
:100370004161704729B9054A936923EA00009061F9
:100380007047024B9A691043986170470010024011
:1003900008B5FFF755FF01210820FFF7EBFF0F4BD2
:1003A00010254FF48064032219460D48DD701C802F
:1003B0009A70FFF775FF4FF480610948FFF7D6FF89
:1003C0004FF4FA70FFF734FF4FF480610448FFF7F1
:1003D000CFFF4FF4FA70FFF72BFFECE790000020FF
:1003E000000C01400649074A074B9A42BEBF51F82C
:1003F000040B42F8040BF8E7044880470448004720
:10040000B406000800000020680000209D040008D9
:10041000490100081F49204A002301E041F8043B3C
:100420009142FBD3FFF7B4FFFEE7FEE7FEE7FEE7EE
:10043000FEE7FEE7FEE7FEE7FEE7FEE7FEE7FEE794
:10044000FEE7FEE7FEE7FEE7FEE7FEE7FEE7FEE784
:10045000FEE7FEE7FEE7FEE7FEE7FEE7FEE7FEE774
:10046000FEE7FEE7FEE7FEE7FEE7FEE7FEE7FEE764
:10047000FEE7FEE7FEE7FEE7FEE7FEE7FEE7FEE754
:10048000FEE7FEE7FEE7FEE7FEE7FEE7FEE7FEE744
:10049000FEE7FEE7680000209400002030B43C4BEB
:1004A0003C49186882B040F0010018605D68002087
:1004B0002940596019684FF41F0421F0847121F418
:1004C0008031196019681A4621F480211960596831
:1004D00021F4FE0159609C6000900190196841F47C
:1004E0008031196003E0009BB3F5A06F09D0136859
:1004F00003F400330193009B01330093019B002B15
:10050000F1D0234B1B6813F4003318BF0123019370
:10051000019B012B06D0204B4FF000629A6002B085
:1005200030BC70471D4A1A4B1068194640F0100045
:100530001060106820F003001060106840F00200A6
:1005400010605A685A605A685A605A6842F4806269
:100550005A605A6822F47C125A605A6842F4E812CF
:100560005A601A6842F080721A600B68084A9B0150
:10057000FBD51146536823F003035360536843F0DF
:10058000020353604B6803F00C03082BFAD1C2E757
:10059000001002400000FFF800ED00E000200240E3
:1005A00008B5074B044613B10021AFF30080054B9B
:1005B0001868836A03B19847204600F033F800BFFB
:1005C00000000000440600080E4B70B51E460E4C9D
:1005D0000025E41AA410A54204D056F82530984707
:1005E0000135F8E700F020F8084B094C1E46E41AE4
:1005F000A4100025A54204D056F8253098470135AF
:10060000F8E770BD6000002060000020600000205E
:100610006400002003460244934202D003F8011B09
:10062000FAE77047FEE70000F8B500BFF8BC08BC69
:100630009E467047F8B500BFF8BC08BC9E467047A0
:100640004300000000000020000000000000000047
:10065000000000000000000000000000000000009A
:10066000000000000000000000000000000000008A
:10067000000000000000000000000000000000007A
:10068000000000000000000000000000000000006A
:10069000000000000000000000000000000000005A
:0C06A0000000000000000000000000004E
:0806AC009CFAFF7F0100000031
:1006B40000000000480600086806000888060008D4
:1006C4000000000000000000000000000000000026
:1006D40040060008000000000000000000000000C8
:1006E4000000000000000000000000000000000006
:1006F40000000000000000000000000000000000F6
:1007040000000000000000000000000000000000E5
:0807140011010008ED000008CE
:0400000508000000EF
:00000001FF
