:020000040800F2
:1000000000500020D90500081F060008210600083E
:100010002306000825060008270600080000000047
:100020000000000000000000000000002906000899
:100030002B060008000000002D0600082F0600080F
:1000400033060008350600083706000839060008A0
:100050003B0600083D0600083F0600084106000870
:100060004306000845060008470600084906000840
:100070004B0600084D0600084F0600085106000810
:1000800053060008550600085706000859060008E0
:100090005B0600085D0600085F06000861060008B0
:1000A0006306000865060008670600086906000880
:1000B0006B0600086D0600086F0600087106000850
:1000C0007306000875060008770600087906000820
:1000D0007B0600087D0600087F06000881060008F0
:1000E00083060008850600088706000810B5054C41
:1000F000237833B9044B13B10448AFF300800123D4
:10010000237010BD7800002000000000A00E000841
:10011000084B10B51BB108490848AFF300800848E8
:10012000036803B910BD074B002BFBD0BDE810409E
:10013000184700BF000000007C000020A00E00084F
:100140007400002000000000154B002B08BF134B6B
:100150009D46A3F5803A00218B460F461348144A6A
:10016000121A00F04BFE0F4B002B00D098470E4B9D
:10017000002B00D098470020002104000D000D48FE
:10018000002802D00C48AFF3008000F011FE2000E0
:10019000290000F003FA00F0F7FD00BF000008009E
:1001A0000050002000000000000000007800002047
:1001B000A40000200000000000000000184B4FF0D9
:1001C000000C1A462DE9F0414142012489B2013860
:1001D000DFF85480DFF854E0124F9984000C1C8043
:1001E0004FF08046D8E90045A2F810C0138ACEF837
:1001F000806120BF138A0A499BB2002BF9D0BB68EB
:10020000013823445B4223F07F43E41845F10005A5
:10021000431CE9D1C8E9004500230B80BDE8F0810B
:100220000008004010E000E09800002000E100E03D
:1002300008B1FFF7C3BF7047F0B44FF6FF76114B1C
:100240000021114D6FF07F400522586099601A60BF
:10025000EA690E4B01200E4C42F004024727EA6186
:1002600019801F859E85988222690A4942F01002F2
:10027000226198810B6823F0070303430B60F0BCF5
:10028000704700BF10E000E000100240000800408E
:1002900000ED00E000200240CB782DE9F04103F0B2
:1002A0000F06DB0648BF8B780C8848BF1E4314F04E
:1002B000FF0F26D00568002301274FF00F0803E049
:1002C0000133082B1BD00C8807FA03F232EA04042E
:1002D000F6D19C0091F803E008FA04FC25EA0C052D
:1002E00006FA04F4BEF1280F45EA040538D0BEF141
:1002F000480F03F1010308BF0261082BE3D1056039
:100300000C88FF2C2AD94568002301274FF00F0CD9
:1003100003E00133082B20D00C8803F1080207FA10
:1003200002F232EA0404F4D191F803E09C00BEF139
:10033000280F04BF426191F803E00CFA04F8BEF103
:10034000480F03F1010325EA080506FA04F408BF83
:100350000261082B45EA0405DED14560BDE8F08165
:100360004261ADE7016170474161704729B9054AB3
:10037000936923EA000090617047024B9A69104329
:10038000986170470010024038B50546002414E01B
:10039000FFF7E8FF0120FFF74BFF4FF400510D4836
:1003A000FFF7E0FF01200444FFF742FF4FF4005144
:1003B0000848FFF7D9FF082C0BD005FA04F313F017
:1003C000800F4FF480410348E2D10248FFF7CCFF91
:1003D000E0E738BD000C01402DE9F0478046694B4D
:1003E00084B00FCB8DE80F00404600F0A7FC054617
:1003F00000F08AFA4146814600F06EFC6F464446A2
:10040000002678B96049204600F0D2FA044600F090
:1004100095FC054600F078FA2146013600F05CFCB8
:100420000028EFD00021204600F07EFC00286DD08F
:10043000002D40F3A280554855494FF0030A81FB37
:100440000532EB17C3EBA20303EB8302A5EB4205D6
:10045000425D1D46D34347F82A300AF1FF3A002D8A
:10046000EDD10021204600F05FFC00284BD0204653
:10047000214600F031FC78B94FF07E51404600F043
:1004800035FC00284BD104AB03EB8A0252F8103C38
:1004900003F0FE0342F8103C4846414600F01CFCC5
:1004A000C8B104AC57F8040BFFF76EFFBC42F9D19A
:1004B0000120FFF7BDFE4FF400413648FFF752FF21
:1004C0000120FFF7B5FE33484FF4004104B0BDE80A
:1004D000F047FFF749BF04ABC6F1030603EB8606FE
:1004E00056F8103C4FF07E5103F0BF03404646F8EB
:1004F000103C00F0FBFB0028D3D04046264900F01A
:1005000013FC70BBCDE704F10040B1E704F10040FB
:1005100000F014FC051E8EDC4FF0030AA1E71E4913
:10052000404600F001FC0028ADD004AB0AF1FF3AD0
:1005300003EB8A0252F8103C414603F0FE034846A2
:1005400042F8103C00F0C8FB0028AAD104AAC6F16A
:10055000030302EB830353F8102C02F0BF0243F8AD
:10056000102C04AA0AF1010302EB830353F8102CA8
:1005700002F0410243F8102C93E720464FF0030AA3
:1005800076E700BF280E0008000020410000002090
:1005900067666666000C0140000080BF08B5FFF783
:1005A0004BFE01210820FFF7E1FE084B10254FF418
:1005B0006044022219460648DD701C809A70FFF7DD
:1005C0006BFE0448FFF708FFFBE700BFA000002018
:1005D000000C014014AE23410649074A074B9A42DA
:1005E000BEBF51F8040B42F8040BF8E704488047FB
:1005F00004480047AC0E00080000002074000020F2
:1006000091060008490100081F49204A002301E023
:1006100041F8043B9142FBD3FFF7C0FFFEE7FEE742
:10062000FEE7FEE7FEE7FEE7FEE7FEE7FEE7FEE7A2
:10063000FEE7FEE7FEE7FEE7FEE7FEE7FEE7FEE792
:10064000FEE7FEE7FEE7FEE7FEE7FEE7FEE7FEE782
:10065000FEE7FEE7FEE7FEE7FEE7FEE7FEE7FEE772
:10066000FEE7FEE7FEE7FEE7FEE7FEE7FEE7FEE762
:10067000FEE7FEE7FEE7FEE7FEE7FEE7FEE7FEE752
:10068000FEE7FEE7FEE7FEE778000020A40000207A
:1006900030B43C4B3C49186882B040F0010018600F
:1006A0005D6800202940596019684FF41F0421F04B
:1006B000847121F48031196019681A4621F480216F
:1006C0001960596821F4FE0159609C600090019006
:1006D000196841F48031196003E0009BB3F5A06F05
:1006E00009D0136803F400330193009B0133009396
:1006F000019B002BF1D0234B1B6813F4003318BF70
:1007000001230193019B012B06D0204B4FF0006287
:100710009A6002B030BC70471D4A1A4B10681946E7
:1007200040F010001060106820F0030010601068A6
:1007300040F0020010605A685A605A685A605A685D
:1007400042F480625A605A6822F47C125A605A68F5
:1007500042F4E8125A601A6842F080721A600B681C
:10076000084A9B01FBD51146536823F003035360ED
:10077000536843F0020353604B6803F00C03082BEB
:10078000FAD1C2E7001002400000FFF800ED00E0DF
:100790000020024080F0004002E000BF81F00041F4
:1007A00042001FBF5FEA410392EA030F7FEA226C17
:1007B0007FEA236C6AD04FEA1262D2EB1363C1BFA7
:1007C000D218414048404140B8BF5B42192B88BF16
:1007D000704710F0004F40F4000020F07F4018BF39
:1007E000404211F0004F41F4000121F07F4118BF59
:1007F000494292EA030F3FD0A2F1010241FA03FC01
:1008000010EB0C00C3F1200301FA03F100F00043E8
:1008100002D5494260EB4000B0F5000F13D3B0F1B0
:10082000807F06D340084FEA310102F10102FE2A1F
:1008300051D2B1F1004F40EBC25008BF20F001008F
:1008400040EA03007047490040EB000010F4000F3D
:10085000A2F10102EDD1B0FA80FCACF1080CB2EBD0
:100860000C0200FA0CF0AABF00EBC250524218432F
:10087000BCBFD0401843704792F0000F81F40001D4
:1008800006BF80F400000132013BB5E74FEA4103A7
:100890007FEA226C18BF7FEA236C21D092EA030F13
:1008A00004D092F0000F08BF0846704790EA010F8D
:1008B0001CBF0020704712F07F4F04D1400028BFBA
:1008C00040F00040704712F100723CBF00F500009C
:1008D000704700F0004343F0FE4040F400007047D2
:1008E0007FEA226216BF08467FEA2363014642027E
:1008F00006BF5FEA412390EA010F40F48000704791
:100900004FF0000304E000BF10F0004348BF404236
:100910005FEA000C08BF704743F0964301464FF072
:1009200000001CE050EA010208BF70474FF00003CE
:100930000AE000BF50EA010208BF704711F000430F
:1009400002D5404261EB41015FEA010C02BF8446DF
:100950000146002043F0B64308BFA3F18053A3F53E
:100960000003BCFA8CF2083AA3EBC25310DB01FA85
:1009700002FC634400FA02FCC2F12002BCF1004F09
:1009800020FA02F243EB020008BF20F0010070479A
:1009900002F1200201FA02FCC2F1200250EA4C00EE
:1009A00021FA02F243EB020008BF20EADC70704734
:1009B0004FF0FF0C1CEAD0521EBF1CEAD15392EA42
:1009C0000C0F93EA0C0F6FD01A4480EA010C40021E
:1009D00018BF5FEA41211ED04FF0006343EA501078
:1009E00043EA5111A0FB01310CF00040B1F5000FBA
:1009F0003EBF490041EAD3715B0040EA010062F169
:100A00007F02FD2A1DD8B3F1004F40EBC25008BF52
:100A100020F00100704790F0000F0CF0004C08BF70
:100A200049024CEA502040EA51207F3AC2BFD2F13D
:100A3000FF0340EAC250704740F400004FF000034B
:100A4000013A5DDC12F1190FDCBF00F00040704785
:100A5000C2F10002410021FA02F1C2F1200200FAC3
:100A600002FC5FEA310040F1000053EA4C0308BF8A
:100A700020EADC70704792F0000F00F0004C02BFDB
:100A8000400010F4000F013AF9D040EA0C0093F056
:100A9000000F01F0004C02BF490011F4000F013BB0
:100AA000F9D041EA0C018FE70CEAD15392EA0C0F1E
:100AB00018BF93EA0C0F0AD030F0004C18BF31F089
:100AC000004CD8D180EA010000F00040704790F05F
:100AD000000F17BF90F0004F084691F0000F91F003
:100AE000004F14D092EA0C0F01D142020FD193EAC9
:100AF0000C0F03D14B0218BF084608D180EA010051
:100B000000F0004040F0FE4040F40000704740F02C
:100B1000FE4040F4400070474FF0FF0C1CEAD052FA
:100B20001EBF1CEAD15392EA0C0F93EA0C0F69D056
:100B3000A2EB030280EA010C49024FEA402037D0C1
:100B40004FF0805343EA111143EA10130CF00040B8
:100B50008B4238BF5B0042F17D024FF4000C8B42A8
:100B600024BF5B1A40EA0C00B3EB510F24BFA3EB88
:100B7000510340EA5C00B3EB910F24BFA3EB910358
:100B800040EA9C00B3EBD10F24BFA3EBD10340EAB2
:100B9000DC001B0118BF5FEA1C1CE0D1FD2A3FF6F8
:100BA00050AF8B4240EBC25008BF20F001007047AD
:100BB0000CF0004C4CEA50207F32C2BFD2F1FF0350
:100BC00040EAC250704740F400004FF00003013A81
:100BD00037E792F0000F00F0004C02BF400010F425
:100BE000000F013AF9D040EA0C0093F0000F01F039
:100BF000004C02BF490011F4000F013BF9D041EA5B
:100C00000C0195E70CEAD15392EA0C0F08D142028D
:100C10007FF47DAF93EA0C0F7FF470AF084676E760
:100C200093EA0C0F04D14B023FF44CAF08466EE739
:100C300030F0004C18BF31F0004CCAD130F0004207
:100C40007FF45CAF31F000437FF43CAF5FE700BF5F
:100C50004FF0FF3C06E000BF4FF0010C02E000BF88
:100C60004FF0010C4DF804CD4FEA40024FEA41032A
:100C70007FEA226C18BF7FEA236C11D001B052EAE0
:100C8000530C18BF90EA010F58BFB2EB030088BFA6
:100C9000C81738BF6FEAE17018BF40F00100704715
:100CA0007FEA226C02D15FEA402C05D17FEA236CF7
:100CB000E4D15FEA412CE1D05DF8040B704700BF3E
:100CC000844608466146FFE70FB5FFF7C9FF0028D5
:100CD00048BF10F1000F0FBD4DF808EDFFF7F4FF0E
:100CE0000CBF012000205DF808FB00BF4DF808EDA7
:100CF000FFF7EAFF34BF012000205DF808FB00BFCA
:100D00004DF808EDFFF7E0FF94BF012000205DF8EB
:100D100008FB00BF4DF808EDFFF7D2FF94BF01209C
:100D200000205DF808FB00BF4DF808EDFFF7C8FF95
:100D300034BF012000205DF808FB00BF4FEA4002ED
:100D4000B2F1FE4F0FD34FF09E03B3EB12620DD9F9
:100D50004FEA002343F0004310F0004F23FA02F063
:100D600018BF404270474FF00000704712F1610F0A
:100D700001D1420205D110F0004008BF6FF00040E1
:100D800070474FF00000704708B5074B044613B199
:100D90000021AFF30080054B1868836A03B19847C0
:100DA000204600F033F800BF000000003C0E0008B1
:100DB0000E4B70B51E460E4C0025E41AA410A54239
:100DC00004D056F8253098470135F8E700F020F8B0
:100DD000084B094C1E46E41AA4100025A54204D075
:100DE00056F8253098470135F8E770BD6C000020B3
:100DF0006C0000206C0000207000002003460244BC
:100E0000934202D003F8011BFAE77047FEE70000A7
:100E1000F8B500BFF8BC08BC9E467047F8B500BFE7
:100E2000F8BC08BC9E467047FF000000FF000000B1
:100E3000FF00000041000000430000000C00002003
:100E400000000000000000000000000000000000A2
:100E50000000000000000000000000000000000092
:100E60000000000000000000000000000000000082
:100E70000000000000000000000000000000000072
:100E80000000000000000000000000000000000062
:100E90000000000000000000000000000000000052
:040EA000000000004E
:080EA400A4F2FF7F0100000031
:100EAC00BEA02FABB19B9FA8BFBB000000000000F1
:100EBC00400E0008600E0008800E000800000000C4
:100ECC00000000000000000000000000380E0008C8
:100EDC000000000000000000000000000000000006
:100EEC0000000000000000000000000000000000F6
:100EFC0000000000000000000000000000000000E6
:100F0C0000000000000000000000000011010008BB
:040F1C00ED000008DC
:0400000508000000EF
:00000001FF
