:020000040800F2
:1000000000500020DD050008230600082506000832
:1000100027060008290600082B060008000000003B
:100020000000000000000000000000002D06000895
:100030002F06000800000000310600083306000803
:1000400037060008390600083B0600083D06000890
:100050003F06000841060008430600084506000860
:1000600047060008490600084B0600084D06000830
:100070004F06000851060008530600085506000800
:1000800057060008590600085B0600085D060008D0
:100090005F060008610600086306000865060008A0
:1000A00067060008690600086B0600086D06000870
:1000B0006F06000871060008730600087506000840
:1000C00077060008790600087B0600087D06000810
:1000D0007F060008810600088306000885060008E0
:1000E00087060008890600088B06000810B5054C35
:1000F000237833B9044B13B10448AFF300800123D4
:10010000237010BDC0000020000000009C5A0008B1
:10011000084B10B51BB108490848AFF300800848E8
:10012000036803B910BD074B002BFBD0BDE810409E
:10013000184700BF00000000C40000209C5A0008BF
:10014000BC00002000000000154B002B08BF134B23
:100150009D46A3F5803A00218B460F461348144A6A
:10016000121A00F03DFF0F4B002B00D098470E4BAA
:10017000002B00D098470020002104000D000D48FE
:10018000002802D00C48AFF3008000F003FF2000ED
:10019000290000F001FA00F0E9FE00BF00000800AD
:1001A000005000200000000000000000C0000020FF
:1001B000200100200000000000000000184B4FF05C
:1001C000000C1A462DE9F0414142012489B2013860
:1001D000DFF85480DFF854E0124F9984000C1C8043
:1001E0004FF08046D8E90045A2F810C0138ACEF837
:1001F000806120BF138A0A499BB2002BF9D0BB68EB
:10020000013823445B4223F07F43E41845F10005A5
:10021000431CE9D1C8E9004500230B80BDE8F0810B
:100220000008004010E000E0E000002000E100E0F5
:1002300008B1FFF7C3BF7047F0B44FF6FF76114B1C
:100240000021114D6FF07F400522586099601A60BF
:10025000EA690E4B01200E4C42F004024727EA6186
:1002600019801F859E85988222690A4942F01002F2
:10027000226198810B6823F0070303430B60F0BCF5
:10028000704700BF10E000E000100240000800408E
:1002900000ED00E00020024010B50A2086B001F019
:1002A0000FFD214B214A224912681B680968214829
:1002B00001F0EEFC204B214C1988214801F0E8FCAC
:1002C0000A2001F0FDFC21681E4801F0E1FC616894
:1002D0001D4801F0DDFC616A1C4801F0D9FC1C4B93
:1002E0001C48196801F0D4FC0A2001F0E9FC01A8BF
:1002F00000F004F90199184801F0CAFC0299174866
:1003000001F0C6FC0399164801F0C2FC0499154897
:1003100001F0BEFC0599144801F0BAFC0A2001F076
:10032000CFFC06B010BD00BFE8F7FF1FECF7FF1FC2
:10033000F0F7FF1F68560008E0F7FF1F00100240AB
:100340008056000894560008A8560008BC560008BD
:1003500000200240D0560008E4560008005700086C
:100360001C5700083857000854570008F0B441F2F1
:100370009107254B254E1C467068254D20F0040042
:100380007060686806F5803620F0F00040F0A0004C
:1003900068609D8A1F48ADB2443645F080059D8255
:1003A000B060F1607260376099891B4889B241F092
:1003B00040010026202599811E80C0F8845120BF6D
:1003C000238811495B06FAD58B89144823F0400332
:1003D0001B041B0C00248B8104608B8A04F1804475
:1003E00023F080031B0404F584341B0C4FF40070CD
:1003F0008B8220616368104623F0F00343F02003F2
:100400006360F0BC704700BF00380140000001404D
:10041000000801400438014000E100E044000240CF
:10042000F8B50546304C314BA2694FF4007042F0EC
:100430000102A261A2694FF4806142F00402A2614C
:1004400018615A68680822F0F00242F020025A60EF
:100450005A6822F4706242F400625A601961A3691A
:1004600043F48043A36100F0D9FA1DA3D3E900232C
:1004700000F098F9064628460F4600F0CFFA0246EB
:100480000B463046394600F069FC00F04FFD41F262
:10049000A105174B002280B2082118819A821A8286
:1004A00099816269134942F0010262619A89A4F557
:1004B000574492B242F004029A819A8A0E4892B24C
:1004C00042F04002FC3C20269A824E608C60C8605C
:1004D0000D609A8992B242F400529A81F8BD00BF31
:1004E00000000000882A91410010024000080140ED
:1004F0000038014058000240FC00002030B4214A7E
:10050000536803F00C03042B06D0082B25D01BB135
:100510001D4A1346026001E01B4B0360194A1B4C45
:1005200051681B4DC1F30311615CCB4043605168BE
:10053000C1F30221615C23FA01F181605168C1F3CA
:10054000C221615CCB40C3605268C2F38132AA5CB5
:1005500030BCB3FBF2F30361704753685168C3F3D7
:100560008343C90303F1020307D55268920304D4FD
:10057000054A02FB03F30360D0E7064A02FB03F3DC
:100580000360CBE70010024000127A000400002054
:100590000000002000093D0008B5FFF74DFE0C48A3
:1005A000FFF73EFFFFF778FE40F6C411094801F05F
:1005B0006FFB40F6C410FFF73BFE44F25C41064877
:1005C00001F066FB44F25C40FFF732FEECE700BF4F
:1005D00040420F0070570008745700080649074A48
:1005E000074B9A42BEBF51F8040B42F8040BF8E7E0
:1005F0000448804704480047A85A0008000000202B
:10060000BC00002095060008490100081F49204A47
:10061000002301E041F8043B9142FBD3FFF7BCFF0C
:10062000FEE7FEE7FEE7FEE7FEE7FEE7FEE7FEE7A2
:10063000FEE7FEE7FEE7FEE7FEE7FEE7FEE7FEE792
:10064000FEE7FEE7FEE7FEE7FEE7FEE7FEE7FEE782
:10065000FEE7FEE7FEE7FEE7FEE7FEE7FEE7FEE772
:10066000FEE7FEE7FEE7FEE7FEE7FEE7FEE7FEE762
:10067000FEE7FEE7FEE7FEE7FEE7FEE7FEE7FEE752
:10068000FEE7FEE7FEE7FEE7FEE7FEE7C00000202C
:100690002001002030B43C4B3C49186882B040F047
:1006A000010018605D6800202940596019684FF406
:1006B0001F0421F0847121F48031196019681A46F1
:1006C00021F480211960596821F4FE0159609C6071
:1006D00000900190196841F48031196003E0009B9B
:1006E000B3F5A06F09D0136803F400330193009BA6
:1006F00001330093019B002BF1D0234B1B6813F4B3
:10070000003318BF01230193019B012B06D0204B1E
:100710004FF000629A6002B030BC70471D4A1A4B1D
:100720001068194640F010001060106820F00300B7
:100730001060106840F0020010605A685A605A68F1
:100740005A605A6842F480625A605A6822F47C12F5
:100750005A605A6842F4E8125A601A6842F080728D
:100760001A600B68084A9B01FBD51146536823F0B9
:1007700003035360536843F0020353604B6803F074
:100780000C03082BFAD1C2E7001002400000FFF86A
:1007900000ED00E00020024081F0004102E000BFD7
:1007A00083F0004330B54FEA41044FEA430594EA31
:1007B000050F08BF90EA020F1FBF54EA000C55EA6C
:1007C000020C7FEA645C7FEA655C00F0E2804FEA3D
:1007D0005454D4EB5555B8BF6D420CDD2C4480EA1F
:1007E000020281EA030382EA000083EA010180EA4F
:1007F000020281EA0303362D88BF30BD11F0004F9D
:100800004FEA01314FF4801C4CEA113102D04042D2
:1008100061EB410113F0004F4FEA03334CEA13330D
:1008200002D0524263EB430394EA050F00F0A78025
:10083000A4F10104D5F1200E0DDB02FA0EFC22FA20
:1008400005F2801841F1000103FA0EF2801843FA14
:1008500005F359410EE0A5F120050EF1200E012A05
:1008600003FA0EFC28BF4CF0020C43FA05F3C01843
:1008700051EBE37101F0004507D54FF0000EDCF1BC
:10088000000C7EEB00006EEB0101B1F5801F1BD365
:10089000B1F5001F0CD349085FEA30004FEA3C0C69
:1008A00004F101044FEA445212F5800F80F09A805F
:1008B000BCF1004F08BF5FEA500C50F1000041EB63
:1008C000045141EA050130BD5FEA4C0C404141EB67
:1008D000010111F4801FA4F10104E9D191F0000F8E
:1008E00004BF01460020B1FA81F308BF2033A3F111
:1008F0000B03B3F120020CDA0C3208DD02F1140C08
:10090000C2F10C0201FA0CF021FA02F10CE002F142
:100910001402D8BFC2F1200C01FA02F120FA0CFC3B
:10092000DCBF41EA0C019040E41AA2BF01EB045184
:10093000294330BD6FEA04041F3C1CDA0C340EDC82
:1009400004F11404C4F1200220FA04F001FA02F3C5
:1009500040EA030021FA04F345EA030130BDC4F183
:100960000C04C4F1200220FA02F001FA04F340EA78
:100970000300294630BD21FA04F0294630BD94F029
:10098000000F83F4801306BF81F480110134013D10
:100990004EE77FEA645C18BF7FEA655C29D094EA81
:1009A000050F08BF90EA020F05D054EA000C04BFFF
:1009B0001946104630BD91EA030F1EBF00210020EA
:1009C00030BD5FEA545C05D14000494128BF41F089
:1009D000004130BD14F580043CBF01F5801130BDED
:1009E00001F0004545F0FE4141F470014FF0000078
:1009F00030BD7FEA645C1ABF194610467FEA655C29
:100A00001CBF0B46024650EA013406BF52EA0335CA
:100A100091EA030F41F4002130BD00BF90F0000FB8
:100A200004BF0021704730B54FF4806404F13204F4
:100A30004FF000054FF0000150E700BF90F0000FAD
:100A400004BF0021704730B54FF4806404F13204D4
:100A500010F0004548BF40424FF000013EE700BFA4
:100A600042004FEAE2014FEA31014FEA02701FBF34
:100A700012F07F4393F07F4F81F06051704792F006
:100A8000000F14BF93F07F4F704730B54FF4607480
:100A900001F0004521F0004120E700BF50EA0102CB
:100AA00008BF704730B54FF000050AE050EA010278
:100AB00008BF704730B511F0004502D5404261EBE8
:100AC00041014FF4806404F132045FEA915C3FF429
:100AD000DCAE4FF003025FEADC0C18BF03325FEAC2
:100AE000DC0C18BF033202EBDC02C2F1200300FA77
:100AF00003FC20FA02F001FA03FE40EA0E0021FA9C
:100B000002F11444C1E600BF70B54FF0FF0C4CF485
:100B1000E06C1CEA11541DBF1CEA135594EA0C0F3B
:100B200095EA0C0F00F0DEF82C4481EA030621EA76
:100B30004C5123EA4C5350EA013518BF52EA0335B1
:100B400041F4801143F4801338D0A0FB02CE4FF063
:100B50000005E1FB02E506F00042E0FB03E54FF093
:100B60000006E1FB03569CF0000F18BF4EF0010E8B
:100B7000A4F1FF04B6F5007F64F5407404D25FEA87
:100B80004E0E6D4146EB060642EAC62141EA55513A
:100B90004FEAC52040EA5E504FEACE2EB4F1FD0C7C
:100BA00088BFBCF5E06F1ED8BEF1004F08BF5FEAFA
:100BB000500E50F1000041EB045170BD06F00046AC
:100BC00046EA010140EA020081EA0301B4EB5C0459
:100BD000C2BFD4EB0C0541EA045170BD41F4801151
:100BE0004FF0000E013C00F3AB8014F1360FDEBF76
:100BF000002001F0004170BDC4F10004203C35DA52
:100C00000C341BDC04F11404C4F1200500FA05F3D4
:100C100020FA04F001FA05F240EA020001F0004275
:100C200021F0004110EBD37021FA04F642EB0601EB
:100C30005EEA430E08BF20EAD37070BDC4F10C0415
:100C4000C4F1200500FA04F320FA05F001FA04F2D9
:100C500040EA020001F0004110EBD37041F10001C5
:100C60005EEA430E08BF20EAD37070BDC4F12005D0
:100C700000FA05F24EEA020E20FA04F301FA05F238
:100C800043EA020321FA04F001F0004121FA04F2E0
:100C900020EA020000EBD3705EEA430E08BF20EAB0
:100CA000D37070BD94F0000F0FD101F000464000EA
:100CB00041EB010111F4801F08BF013CF7D041EA6C
:100CC000060195F0000F18BF704703F00046520070
:100CD00043EB030313F4801F08BF013DF7D043EA41
:100CE0000603704794EA0C0F0CEA135518BF95EAF7
:100CF0000C0F0CD050EA410618BF52EA4306D1D17E
:100D000081EA030101F000414FF0000070BD50EA9C
:100D1000410606BF1046194652EA430619D094EA26
:100D20000C0F02D150EA013613D195EA0C0F05D110
:100D300052EA03361CBF104619460AD181EA030164
:100D400001F0004141F0FE4141F470014FF000001C
:100D500070BD41F0FE4141F4780170BD70B54FF0B7
:100D6000FF0C4CF4E06C1CEA11541DBF1CEA135537
:100D700094EA0C0F95EA0C0F00F0A7F8A4EB050419
:100D800081EA030E52EA03354FEA013100F0888010
:100D90004FEA03334FF0805545EA131343EA1263D9
:100DA0004FEA022245EA111545EA10654FEA00268E
:100DB0000EF000419D4208BF964244F1FD0404F547
:100DC000407402D25B084FEA3202B61A65EB0305A3
:100DD0005B084FEA32024FF480104FF4002CB6EB60
:100DE000020E75EB030E22BFB61A754640EA0C00E0
:100DF0005B084FEA3202B6EB020E75EB030E22BF20
:100E0000B61A754640EA5C005B084FEA3202B6EB60
:100E1000020E75EB030E22BFB61A754640EA9C001F
:100E20005B084FEA3202B6EB020E75EB030E22BFEF
:100E3000B61A754640EADC0055EA060E18D04FEAAD
:100E4000051545EA16754FEA06164FEAC30343EA4D
:100E500052734FEAC2025FEA1C1CC0D111F4801F1A
:100E60000BD141EA00014FF000004FF0004CB6E713
:100E700011F4801F04BF01430020B4F1FD0C88BFB2
:100E8000BCF5E06F3FF6AFAEB5EB030C04BFB6EBBD
:100E9000020C5FEA500C50F1000041EB045170BDB0
:100EA0000EF0004E4EEA113114EB5C04C2BFD4EBDD
:100EB0000C0541EA045170BD41F480114FF0000E61
:100EC000013C90E645EA060E8DE60CEA135594EADD
:100ED0000C0F08BF95EA0C0F3FF43BAF94EA0C0FE0
:100EE0000AD150EA01347FF434AF95EA0C0F7FF455
:100EF00025AF104619462CE795EA0C0F06D152EAA9
:100F000003353FF4FDAE1046194622E750EA41068C
:100F100018BF52EA43067FF4C5AE50EA41047FF49D
:100F20000DAF52EA43057FF4EBAE12E74A0011D24F
:100F300012F5001211D20DD56FF47873B3EB625233
:100F40000ED44FEAC12343F0004343EA505323FA3F
:100F500002F070474FF00000704750EA013002D1B4
:100F60004FF0FF3070474FF00000704708B5074B57
:100F7000044613B10021AFF30080054B1868836A63
:100F800003B19847204604F061FB00BF0000000059
:100F90007C5700080E4B70B51E460E4C0025E41A17
:100FA000A410A54204D056F8253098470135F8E73B
:100FB00004F04EFB084B094C1E46E41AA410002511
:100FC000A54204D056F8253098470135F8E770BDA2
:100FD000B4000020B4000020B4000020B8000020BD
:100FE00003460244934202D003F8011BFAE770471C
:100FF0002DE9F04788B0149F002B1E461299B8BF08
:1010000003F1004327F02007B6BF1E4600232D231F
:10101000462F1446109DDDF84CA00B7003D0452FD1
:1010200003D1013501E0032300E0022307AA049263
:1010300006AA03928DE828042246334601F0BCFD3F
:10104000472F804602D1119BDB0728D5462F08EB9E
:10105000050911D198F80030302B0AD10022002365
:101060002046314604F0FCF918B9C5F10105CAF86B
:101070000050DAF80030994400220023204631461F
:1010800004F0EEF908B9302202E0CDF81C9006E039
:10109000079B994503D9591C07911A70F8E74046F8
:1010A000079B159AC8EB0303136008B0BDE8F087EF
:1010B000034673B50029B8BF494203F8022BB4BFF9
:1010C0002D222B22092942701ADD0DF10702164646
:1010D0000A2591FBF5F405FB1411092C01F13001EF
:1010E00002F8011D2146F4DC3031541E02F8011CC7
:1010F000B4421A460AD214F8012B03F8012BF7E781
:101100001A463024214402F8024B5970101A02B0DA
:1011100070BD00002DE9F04F91B00C46DDF86880FD
:1011200016461F46054602F0C7FE03681846099397
:1011300000F002FE00230E93D8F800300A90073327
:1011400023F0070303F1080294F81890D4F800B0D4
:10115000C8F80020D3E90023C4E91223D4F84CA036
:10116000D4F848802AF000430B934FF0FF32A74B8E
:1011700040460B9904F0A6F9A0B94FF0FF32A34BFB
:1011800040460B9904F080F960B9002200234046E4
:10119000514604F06FF910B12D2384F843309C4B75
:1011A0009C4A0AE0424653464046514604F08AF9BA
:1011B000002800F09281984B984AB9F1470F8CBFF4
:1011C00090469846032323612BF0040323604FF0DD
:1011D000000A3DE0B9F1670F00F08A81B9F1470FCD
:1011E00000F0868123600193636800210DF13302D2
:1011F000059002920093424653460691CDF8109016
:10120000CDF80CE02846FFF7F3FE09F0DF03472B8B
:10121000804600F08481B9F1650F0D9900F28D814F
:1012200001394A4604F150000D91FFF741FF0E9A33
:1012300082468318012A236100F37C812268D1074A
:1012400000F178819DF8333013B12D2384F84330B9
:10125000009733460FAA2146284600F09FF9013037
:1012600002D14FF0FF3096E123685A0501D423697B
:1012700065E0B9F1650F40F2D580D4E91201002292
:10128000002304F0EDF878B30123654A314628467F
:10129000B8470130E5D00E9B0D9A9A420BDB2368CC
:1012A000D80708D423689B0740F111814FF000084C
:1012B00004F1190906E10A9B099A31462846B84704
:1012C0000130CED04FF0000804F11A090E9B013B0B
:1012D0009845E7DA01234A4631462846B8470130A7
:1012E000BFD008F10108F1E70D9B002B29DC012399
:1012F0004B4A31462846B8470130B2D00D9B23B93E
:101300000E9B13B92368D907CCD50A9B099A31469D
:101310002846B8470130A4D04FF0000904F11A0A5A
:101320000D9B5B42994509DA012352463146284616
:10133000B847013095D009F10109F1E70E9B42460B
:10134000A7E00E9AA36D9A42A8BF1A46002A9146BA
:1013500006DC4FF0000A29EAE97904F11A0B11E0E2
:101360001346314642462846B8470130F1D178E766
:1013700001235A4631462846B84701303FF471AF41
:101380000AF1010AA36DC9EB03029245F0DB08EBF9
:1013900003090D9A0E9B9A420FDB2368DA070CD4DF
:1013A0000E9B0D9A9844C9EB08089B1A9845A8BF54
:1013B0009846B8F1000F08DC0FE00A9B099A314605
:1013C0002846B8470130EBD14BE743464A46314601
:1013D0002846B84701303FF444AF4FF0000928EAEF
:1013E000E87804F11A0A09E00123524631462846FA
:1013F000B84701303FF435AF09F101090D9A0E9B52
:101400009B1AC8EB03039945EEDB4BE7FFFFEF7F29
:101410008057000884570008885700088C57000838
:10142000905700080E9A012A01DCDB0738D501230A
:10143000424631462846B84701303FF412AF0A9B76
:10144000099A31462846B84701303FF40AAFD4E93B
:1014500012010022002304F003F820B14FF000082D
:1014600004F11A090EE00E9B08F10102013B19E09C
:1014700001234A4631462846B84701303FF4F1AED1
:1014800008F101080E9B013B9845F1DB534604F13E
:10149000500231462846B84701307FF403AFE0E6FA
:1014A0004246012331462846B8470130EED1D8E6FE
:1014B00001234A4631462846B84701303FF4D1AEB1
:1014C00008F10108E3680F9A9B1A9845F0DBE06881
:1014D0000F9B9842B8BF18465DE062680EA8531C87
:1014E0000DF1340E4BF480637FF474AE062201E0FC
:1014F00012B90122626075E6002106910DF13301F7
:101500008DE80C00236005904246CDF81090CDF890
:101510000CE0029153462846FFF76AFD80460D9B7A
:10152000D81C02DB626893421DDDA9F102095FFA53
:1015300089F970E60133236184E6B9F1660F14D1AD
:101540000029636807DD216113B92268D2071DD520
:1015500001330B4419E013B92268D00701D50233D7
:1015600013E0012311E04FF067090D9B0E9A93429F
:1015700005DB22682361D10708D5013305E0002B84
:10158000D4BFC3F102030123134423610D9B4FF029
:10159000000AA36556E611B0BDE8F08F2DE9F047CB
:1015A00091461F460A698B6806469342B8BF1346A8
:1015B000C9F8003091F843200C46DDF8208012B1C4
:1015C0000133C9F800302368990642BFD9F80030CA
:1015D0000233C9F80030256815F0060510D104F172
:1015E000190A07E00123524639463046C047013008
:1015F0001AD00135E368D9F800209B1A9D42F1DB2F
:1016000094F843302268003318BF012392060FD5A7
:10161000E118302081F843005A1C94F84510224408
:10162000023382F8431003E04FF0FF30BDE8F0874B
:1016300004F1430239463046C0470130F4D02268F5
:10164000D9F80050E36802F00602042A08BF5D1BC7
:101650002269A3680CBF25EAE57500259342C4BF43
:101660009B1AED184FF000091A344D4509D001239B
:10167000224639463046C0470130D5D009F101092C
:10168000F3E70020BDE8F0872DE9F04317460A7E16
:1016900085B06E2A984606460C460C9B01F1430E17
:1016A00000F0AE8011D8632A22D009D8002A00F0B9
:1016B000BB80582A40F0CA8081F84520834955E014
:1016C000642A1ED0692A1CD0C0E0732A00F0B080C2
:1016D00009D86F2A2ED0702A40F0B8800A6842F0EC
:1016E00020020A603EE0752A24D0782A3AD0ADE084
:1016F0001A6801F14205111D1960136884F842301F
:10170000A8E021681A6811F0800F02D0111D19603D
:1017100008E011F0400F02F10401196002D0B2F9A3
:10172000003000E01368002B3CDA2D225B4284F885
:10173000432037E021681A6811F0800F02D0111D94
:10174000196007E011F0400F02F10401196001D0A7
:10175000138800E01368227E5C496F2A14BF0A22B6
:1017600008221BE078225A4984F84520226818682C
:1017700012F0800F00F104051D6003D1550601D55C
:10178000038800E00368D00744BF42F020022260D3
:101790001BB9226822F0200222601022002084F867
:1017A000430001E049490A226568002DA56008DB75
:1017B000206820F0040020602BB9002D7DD17546F3
:1017C0000CE0002B79D07546B3FBF2F002FB10332E
:1017D000CB5C05F8013D03460028F5D1082A0BD162
:1017E0002368DA0708D5236962689A42DEBF30238E
:1017F00005F8013C05F1FF35C5EB0E0323612EE032
:1018000008681A6810F0800F496903D0101D18602D
:10181000136808E010F0400F02F10400186013682C
:1018200001D0198000E0196000232361754616E09D
:101830001A68111D1960156800216268284602F0B7
:1018400047FB08B1401B6060636804E004F1420597
:1018500084F8422001232361002384F84330CDF82B
:1018600000803B4603AA21463046FFF797FE013031
:1018700002D14FF0FF3026E023692A463946304630
:10188000C0470130F5D023689B0710D5002504F12F
:10189000190907E001234A4639463046C04701305E
:1018A000E7D00135E368039A9B1A9D42F2DBE068BA
:1018B000039B9842B8BF184605E00B7804F1420537
:1018C00084F842308AE705B0BDE8F08392570008FB
:1018D000A35700082DE9F04F9A468B6816465A1E0A
:1018E000B2F5AE7F88BF6FF4AE7287B082BF9B182F
:1018F000019340F25D13884696BF00238B600193ED
:101900000B684FF0000B43F4F06348F81C3B0746AC
:101910000C4645465A46D946CDF810B0CDF80CB025
:10192000CDF808B0A168002900F0E58033681B7885
:10193000492B70D016D8392B0DD8312B40D22D2BF6
:1019400046D002D82B2B43D0D5E02E2B00F092802E
:10195000302B23D0CFE0452B00F09580462B77D05D
:10196000412B0CE0652B00F08E800AD8542B75D0EB
:1019700002D84E2B34D0BEE0592B75D0612B46D007
:10198000B9E06E2B2CD004D8662B61D0692B42D0E5
:10199000B1E0742B62D0792B66D0ACE0206810F4F3
:1019A000807F0DD0019B20F08000206009F10109AB
:1019B000002B00F08780013B01310193A16081E0A1
:1019C00012EB0B0F40F09780216821F4C07105E005
:1019D0002168080640F18F8021F0800121606FE0CE
:1019E0006AB9B9F1000F0CD1216801F4E060B0F5DB
:1019F000E06F06D121F4F0612160012260E0022A4B
:101A00005DD0BBF1010F1ED0BBF1040F1AE0012A1B
:101A100071D1022254E0BBF1000F0ED1B9F1000FD9
:101A20006CD1216801F4E060B0F5E06F6AD121F477
:101A3000F06121604FF0010B42E0BBF1030F02D0D7
:101A4000BBF1050F57D10BF1010B5FFA8BFB37E0B0
:101A5000BBF1020F4FD14FF0030B31E0BBF1060F8A
:101A600049D14FF0070B2BE0BBF1070F43D14FF0EB
:101A7000080B25E0216888053DD521F420712160FF
:101A8000CDF808901CE0216801F4A060B0F5806FEB
:101A900004D048052FD5B9F1000F33D0880558BFC1
:101AA000029821F4F06158BFC0EB090041F4C07105
:101AB0005CBF0390049521604FF0000900E0032211
:101AC0002B700135A368013BA360236901332361B7
:101AD0007368013B002B736003DD336801333360AF
:101AE00020E7D4F880313146384605929847059A68
:101AF00000283FF417AFB9F1000F03D0236823F497
:101B000080732360013A012A0ED845450AD9D4F8DA
:101B10007C31324615F8011D384698472369013B50
:101B20002361F2E70126ADE00BF1FF33062B22D84B
:101B3000BBF1020F12D9ABF1030B5FFA8BFBCBEBBE
:101B4000050B5D4517D0D4F87C31324615F8011DE0
:101B5000384698472369013B2361F2E74545E1D9BF
:101B6000D4F87C31324615F8011D38469847236970
:101B7000013B2361F2E72368DA052CD55B050CD520
:101B80004545CFD9D4F87C31324615F8011D384689
:101B900098472369013B2361F2E715F8011C23698B
:101BA000652903F1FF3305F1FF3B23610DD0452982
:101BB0000BD0D4F87C31324638469847236915F863
:101BC000021C013BA5F1020B2361D4F87C313246A3
:101BD000384698475D46266816F0100651D12E709B
:101BE000236803F4C063B3F5806F05D1029BC3EB98
:101BF00009035A4263B915E0039B9BB104990A2378
:101C000032460131384600F0C3FE039B049DC21AE0
:101C100004F26F139D4228BF04F5B7751B4928468F
:101C200000F066F800224146384600F0B1F822681C
:101C3000804612F0020F8946DAF8003003D01A1DF0
:101C4000CAF8002006E012F0040503F10402CAF805
:101C5000002003D01B68C3E900890EE01F6802461C
:101C60000B4603F02FFC18B1284600F03DF803E0C6
:101C70004046494603F064FC3860E3680133E360A2
:101C800000E00026304607B0BDE8F08FB4570008EA
:101C90000FB40A4B13B51C6824B1A36913B92046CD
:101CA00001F062FD05AB049AA1682046019302F0A1
:101CB0003FFF02B0BDE8104004B070477400002040
:101CC00038B5084B05461C6824B1A36913B92046F2
:101CD00001F04AFDA26829462046BDE8384003F0DD
:101CE00043B800BF74000020004870470000C07F68
:101CF0000EB400B54FF402719CB0ADF814106FF043
:101D00000041049107914FF6FF711DAB02900690C0
:101D1000084853F8042BADF81610006802A9019387
:101D200002F0EAFD029B00221A701CB05DF804EB81
:101D300003B0704774000020034613F8012B002AFB
:101D4000FBD1181A013870472DE9F0410F46904633
:101D500002F09CFB04460D46B8F1000F11D0C7F30A
:101D60000A53C3F16B03002B0BDD1B0503F17F55F9
:101D7000002405F5401522462B46FEF7C5FEBDE8BA
:101D8000F08120462946BDE8F081000000000000F7
:101D90002DE9F04F82460C469DB000231392189314
:101DA0004FF000084FF000091791179B1A780D2A81
:101DB00005D8092A13D2002A00F0AD8112E02B2A9F
:101DC00004D02D2A04D0202A0CD108E0002200E003
:101DD00001220C925A1C17925B782BB99BE10133BC
:101DE0001793E2E700230C93179D2B78302B5CD1DF
:101DF0006B78582B01D0782B4CD10C9BA84A0193BF
:101E000018AB009317A919AB504601F082FD10F0F2
:101E10000706044600F08585062E05D1013500230E
:101E200017950C9300F07DBD189A3AB135211AA888
:101E300002F013FC1899504602F098F8062E22D8AA
:101E4000DFE806F0040D08181D0D04004FF000092E
:101E5000C84618E0DDF86880DDF86C9013E01B9B45
:101E6000199A23F4801302F23342DDF8688043EAC2
:101E7000025908E0DFF82C924FF0000803E06FF001
:101E800000494FF0FF38210740F14B8549F00049E8
:101E900000F047BD179B5A1C17925B78302BF9D086
:101EA000002B00F03E85012300E000230593179BE3
:101EB0000A22069300239B4602930493179D2E78D3
:101EC000A6F13003D9B2092911D8BBF1080FD5BF4B
:101ED0000499029902FB013302FB013305F101056C
:101EE000D4BF049302930BF1010B1795E6E750461C
:101EF00001F0E2FF0768504601F0DEFF0068FFF7DF
:101F00001BFF39460246284602F0B7FF074628B1B4
:101F1000002033465D46024601465AE0504601F035
:101F2000CBFF0068FFF708FF179B1A1817921B5C7E
:101F3000BBF1000F45D15846302B05D1179B01301E
:101F40005A1C17925B78F7E7A3F13102082A46D8AA
:101F5000179A0692024600200546303B00F1010127
:101F600029D00A44294605EB000C0A2661450FD00A
:101F7000013101F1FF3EBEF1080F03DC049F7743FE
:101F80000497F3E71029DEBF029F77430297EDE73E
:101F90002844082800F1010505DC04980A2101FB0A
:101FA0000033049306E0102DDFBF02980A2101FBE5
:101FB000003302930021179B581C17905B7808464A
:101FC00002E05D4638463A46A3F130010929C4D9FA
:101FD0000121652B01D0452B4FD16DB904E0652B54
:101FE00040F0AD840022012128B9059B002B00F0B0
:101FF0009280054600E00025179C631C17936378C8
:102000002B2B06D02D2B02D00026039606E00123B1
:1020100000E000230393A31C1793A378A3F13006D9
:10202000092E29D8302B04D1179B5E1C17965B789C
:10203000F8E7A3F13106082E1FD8A3F1300E179B45
:102040001F46179B5E1C17965B78A3F1300CBCF102
:10205000090F05D80A2606FB0E3EAEF1300EF0E75A
:10206000F61B082E44F61F6602DC7645A8BF7646AE
:10207000039F1FB1764201E017940026002D52D134
:10208000002840F04E84059A002A40F04A84002936
:1020900041D14E2B20D007DC492B0AD03BE000BFBA
:1020A000D05700080000F07F692B02D06E2B13D0B0
:1020B00031E0AA4917A801F05DFE60B3179BA8495B
:1020C000013B17A8179301F055FE10B9179B013378
:1020D0001793DFF8A8921AE0A24917A801F04AFE68
:1020E000C8B1179B1B78282B0FD11AAA9E4917A895
:1020F00001F053FE052808D11B9BDDF8688043F0F2
:10210000FF4949F4E00900F00CBCDFF874924FF08D
:10211000000800F006BC139B1794002B00F00C8401
:1021200000230C93FFE32C46BBF1000F08BFAB4626
:102130000498102DA8BF1024B71AFEF76FFC092CC5
:102140008046894613DD894B03EBC40353E9122310
:10215000FEF7DAFC804602988946FEF75FFC0246ED
:102160000B4640464946FEF71DFB804689460F2D2B
:1021700033DC002F00F0D58322DD162F07DC7B4DEA
:10218000424605EBC7014B46D1E9000113E0C5F11A
:1021900025039F4221DC754CC5F10F0504EBC501F9
:1021A0007D1B4246D1E900014B4604EBC504FEF716
:1021B000ABFCD4E90023FEF7A7FC80468946B0E3D8
:1021C00017F1160F09DB694D4046A5EBC703D3E9AC
:1021D00000234946FEF7C2FDEFE72C1B3C44002CD0
:1021E0005DDD14F00F010AD0604B424603EBC101E4
:1021F000D1E900014B46FEF787FC8046894634F062
:102200000F0400F0C180B4F59A7F0FDD4FF0000B92
:10221000CDF808B0CDF814B0CDF810B02223CAF82C
:102220000030DFF858914FF0000889E140464946F8
:1022300000234F4E24110293012C0CDDE20704D53C
:10224000D6E90023FEF760FC0123029A64100132F4
:1022500002920836F0E70BB180468946444B029A59
:10226000A9F1547903EBC201D1E9000142464B4682
:10227000FEF74AFC21F0004389460A461B0D3D4902
:102280001B058B428046C1D8A1F580118B4286BFC9
:10229000DFF8F0904FF0FF3802F1547974E073D01A
:1022A000644214F00F020AD0304B404603EBC203E5
:1022B0004946D3E90023FEF751FD804689462411A3
:1022C00062D01F2C08DD4FF0000BCDF808B0CDF820
:1022D00014B0CDF810B02CE14046494614F0100F70
:1022E0000CBF00236A23244E03930023002C09DD36
:1022F000E20704D5D6E90023FEF706FC01236410AB
:102300000836F3E70BB180468946039BEBB1C9F36E
:102310000A53C3F16B03002B494616DD1F2B0EDD5C
:10232000342BDEBF203B4FF0FF3202FA03F34FF0B5
:102330000008CCBF4FF05C7903EA010905E04FF0DB
:10234000FF3202FA03F303EA0808002200234046A2
:10235000494603F085F80028B5D117E085570008F5
:10236000145900088D570008BC5700088859000808
:10237000605A00080000A07CE85700080000F07FC9
:102380000000F8FFFFFFEF7F00230393049B5A46F2
:10239000009306992B46504601F03AFE059000281E
:1023A0003FF434AF002FC7F10003A8BF00230D9303
:1023B0004FF0000B27EAE7731293CDF808B0059BA6
:1023C0005046596801F09DFD049000283FF426AF67
:1023D000059B0C301A6903F10C010232920001F0E6
:1023E00085FD1AAB019319AB009342464B4650460C
:1023F000CDE9088902F0BBF8189000283FF40EAF31
:102400000121504601F08FFE029000283FF406AFF4
:10241000199B0399002BACBF0D9A129A1A9CACBF62
:10242000D618D21AA3EB01032344B14903F1FF33B9
:10243000ACBF129A0D9E8B42C4F1360480F28580A7
:10244000C91A1F29C8BFAB4D4FF00107D4BF07FA07
:1024500001F3ED1AA4EB0104D9BF0793002507FA95
:1024600005F507973719039BBE4214441C443346B5
:10247000A8BF3B46A342A8BF2346002BC2BFFF1AFA
:10248000E41AF61A0D9B002B63D1002F7ADC129B05
:10249000002B40F08180002C00F38880002E00F398
:1024A0008F80049A1899504601F091FF83460028C6
:1024B0003FF4B4AEC3680024C4600299069301F0EF
:1024C0006AFFA04280F28B80069B002B40F00282C4
:1024D000B8F1000F40F0FE81C9F31303002B40F068
:1024E000F98129F000431B0D1B05B3F1D66F40F2B3
:1024F000F181DBF81430002B6CD059460122504694
:1025000001F0F8FE0299834601F045FF002840F3F0
:10251000E18129F00043039A1B0D1B05002A00F0FE
:102520008D80B3F1D66F00F38980B3F15C7F00F347
:10253000D38122234FF000084FF00009CAF8003081
:10254000059B002B40F0D981EBE101230025079387
:1025500088E71A460299504601F07EFE0290002854
:102560003FF45CAE0146189A504601F0E5FD069036
:1025700000283FF453AE1899504601F0F7FC069B33
:10258000189382E73A461899504601F0B3FE189026
:1025900000287FF47CAF41E6129A0499504601F07E
:1025A0005BFE049000287FF476AF37E6224604995C
:1025B000504601F09FFE049000287FF46FAF2DE697
:1025C00032460299504601F095FE029000287FF4B1
:1025D00068AF23E6DBF81030012B8EDC7AE161D1A5
:1025E000069AC9F3130322B343494A468B422ED1BC
:1025F000039B414663B1414B1340B3F1D46F07D8FD
:102600001B0DC3F16B034FF0FF3000FA03F301E041
:102610004FF0FF338B421AD139498A4202D101333C
:102620003FF4FCAD354B4FF00008134003F5801923
:1026300050E163B9B8F1000F09D16AE7A3F580133F
:102640006FEA13594FF0FF386FEA095942E115B1AB
:1026500015EA090F02E0079B13EA080F00F03A8120
:10266000069B039A4046494653B1FFF76DFB02466D
:102670000B46DDE90801FEF795F88046894629E119
:10268000FFF762FB02460B46DDE90801FEF788F81A
:10269000002200238046894602F0E2FE00287FF4F3
:1026A00048AF17E10299584601F0AFFF00224FF002
:1026B000804306460F4602F0E7FE00283FD0069B07
:1026C00013B100260F4F10E0B8F1000F03D1C9F38A
:1026D00013033BB91AE0B8F1010F03D1B9F1000FB0
:1026E0003FF427AF084F00260024064D3CE000BF12
:1026F00002FCFFFFE2FBFFFFFFFF0F000000F07F87
:10270000FFFFEF7F0000F03F0000F0BF00229A4B78
:102710003046394602F0AEFE40B90022974B3046B3
:102720003946FEF7F1F904460D4601E0069C934D4B
:1027300005F1004314941593DDE9146714E08F4B01
:10274000002230463946FEF7DFF9069B04460D4667
:1027500023B901F100430E900F9303E002460B46AC
:10276000CDE90E23DDE90E6729F000431B0D1B05A3
:102770000793079A824B9A422BD1DDE90823A9F1EE
:10278000547940464946CDE90A2301F07FFE0246CE
:102790000B4630463946FEF7B7F942464B46FEF740
:1027A00001F821F000431B0D764A1B059342804639
:1027B0000CD9754B0B9A9A4203D10A9B01333FF413
:1027C0002DADDFF8C4914FF0FF3872E001F154797C
:1027D00039E0039B3BB3079BB3F1D46F23D85EA3CF
:1027E000D3E900232046294602F04EFEB8B129461F
:1027F0002046FEF79BFB002808BF0120FEF70EF9DC
:10280000069B04460D4623B901F100431090119335
:1028100003E002460B46CDE91023DDE91067079A75
:1028200007F1D6639F1ADDE9080101F02FFE024689
:102830000B4630463946FEF767F9DDE90823FDF718
:10284000B1FF80468946039B9BBB29F000431B0DCB
:10285000079A1B059A424E462BD12946204602F084
:1028600047FEFEF7EBF80B46024629462046FDF7E9
:1028700097FF069B04460D462BB9B8F1000F02D115
:10288000C9F313067EB136A3D3E9002320462946B7
:1028900002F0F0FD88BB34A3D3E90023204629468B
:1028A00002F006FE04E032A3D3E9002302F0E2FDC9
:1028B00018BB1899504601F059FB0499504601F095
:1028C00055FB0299504601F051FB5946504601F024
:1028D0004DFB74E5039B83B12C4B40460B930023C7
:1028E0000A934946DDE90A23FEF70EF98046894638
:1028F00019B910B92223CAF800301899504601F0CE
:1029000035FB0499504601F031FB0299504601F025
:102910002DFB0599504601F029FB5946504601F020
:1029200025FB139B13B1179B139A13600C9B1BB1D0
:10293000424609F1004307E042464B4604E00025C9
:102940002A460121FFF747BB104619461DB0BDE8D6
:10295000F08F00BFAFF300800000C0FFFFFFDF413A
:102960009535A094FFFFDF3F35E5AF350000E03F30
:102970009535A094FFFFCF3F0000F03F0000E03FFF
:102980000000E07FFFFF9F7CFFFFEF7F00005039DA
:102990002DE9F0470F4680463F48D0F800903D466D
:1029A00015F8014B09EB0400407800F0080000F036
:1029B000FF0608B12F46F2E72D2C03D1BD1C7C7811
:1029C000012603E02B2C04BF7C78BD1C13B1102B17
:1029D0000AD15BE0302C57D1287800F0DF0058286E
:1029E0004DD16C7810230235002E14BF4FF0004CEF
:1029F0006FF0004CBCFBF3FA0027384603FB1ACCFF
:102A000009EB040E9EF801E01EF0040F01D0303CEB
:102A10000BE01EF0030E1BD0BEF1010F0CBF4FF0F8
:102A2000370E4FF0570ECEEB0404A34210DDB7F182
:102A3000FF3F0AD0504506D801D1644503DC03FBB3
:102A40000040012701E04FF0FF3715F8014BD7E7B1
:102A50007B1C0CD1002E4FF0220314BF4FF000401E
:102A60006FF00040C8F800302AB9BDE8F08706B121
:102A7000404272B107B1691E1160BDE8F087302491
:102A8000002BB1D10823AFE70A23ADE7302CA3D048
:102A9000AAE7BDE8F08700BF780000202DE9F74FD6
:102AA00003690C6980469C427FDC013C01F11407FC
:102AB0004FEA840E00F1140606EB0E0357F824507B
:102AC000019356F824300135B3FBF5F507EB0E09F9
:102AD000C5B34FF0000A3846B446D34650F8043B1D
:102AE0009AB205FB02A21B0C4FEA124A05FB03A394
:102AF00092B2C2EB0B0BBCF800204FEA134A5A44C7
:102B00001FFA83FBDCF800308145CBEB134303EB6A
:102B1000224392B242EA03424FEA234B4CF8042B81
:102B2000DCD256F80E306BB9019B043B9E421A462C
:102B300002D3C8F8104005E01268043B002AF8D11F
:102B4000013CF3E7404601F026FC00282BDB304631
:102B500001354FF0000E57F8042B036891B2C1EB1A
:102B60000E0E120C99B27144C2EB134303EB2143D6
:102B700089B24FEA234EB94541EA034340F8043B8A
:102B8000E9D256F8242006EB840362B9043B9E4246
:102B90001A4602D3C8F8104005E01268043B002A28
:102BA000F8D1013CF3E7284600E0002003B0BDE87F
:102BB000F08F0000000000002DE9F04F456A95B04D
:102BC0008246219CCDE9022345B9102001F078F915
:102BD000CAF82400456085600560C560DAF82430D5
:102BE000196859B15A68012393404A608B60504676
:102BF00001F0BCF9DAF8243000221A60039BA04AE5
:102C0000002BBDBF01232360039B0023BCBF23F027
:102C100000430393DDF80C80A8BF236028F0004335
:102C20001B0D1B0593421DD142F20F73209A1360B6
:102C3000029B43B9934A944BC8F31300002814BF76
:102C40001846104600E09048229B002B00F0468575
:102C5000C37813B100F1080300E0C31C229A13608B
:102C600000F03CBDDDE90245002200232046294654
:102C700002F0F6FB074658B1209A01231360229B0D
:102C8000002B00F01E8581481860013800F026BD39
:102C900012AB019313AB009322462B46504601F032
:102CA00066FCC8F30A56049056B1C5F3130343F00B
:102CB0007F51204641F44011A6F2FF3611971DE0E6
:102CC000139B129E1E4406F23243202B0ADD029A09
:102CD00006F21240C3F1400322FA00F008FA03F3AF
:102CE000184304E0C3F12000029B03FA00F0FDF753
:102CF00095FE0123A1F1F871013E11930022644B6E
:102D0000FDF74EFD58A3D3E90023FDF7FDFE58A3C0
:102D1000D3E90023FDF746FD044630460D46FDF796
:102D20008DFE55A3D3E90023FDF7EEFE02460B46C8
:102D300020462946FDF736FD04460D4602F0D8FB35
:102D40000022834600232046294602F093FB58B117
:102D50005846FDF773FE02460B462046294602F010
:102D60007FFB08B90BF1FF3BBBF1160F0DD8DDE976
:102D70000223484901EBCB01D1E9000102F098FBA5
:102D800030B10BF1FF3B002300E00123109300E082
:102D90001090129B9E1B731E079343BFC3F1000844
:102DA000002307934FF00008BBF1000F06DB079BE1
:102DB000CDF82CB05B440793002705E00023CBEB54
:102DC0000808CBF100070B931E9B092B28D8052B75
:102DD000C4BF043B1E931E9BC8BF0025A3F1020382
:102DE000D8BF0125032B20D8DFE803F0060E02042C
:102DF000012302E0012308E000230A931F9B002B1C
:102E00001DDD9946059321E000230A931F9B0BEBE0
:102E1000030909F10103012B0593B8BF012315E054
:102E2000012500231E930A9501E001230A934FF028
:102E3000FF390022CDF8149012231F9206E04FF0C4
:102E400001094B46CDF81490CDF87C90DAF8244077
:102E500000226260042101F114029A421CD86268C7
:102E6000490001326260F6E761436F63A787D23F92
:102E7000B3C8608B288AC63FFB799F501344D33F69
:102E80000000F07F115900081A59000891570008F6
:102E90000000F83F885900086168504601F031F899
:102EA000DAF8243020601B680693059B0E2B00F295
:102EB0005B81002D00F05881DDE90234BBF1000F89
:102EC000CDE90E3430DD9F4A0BF00F034FEA2B158E
:102ED00002EBC303E80618CBCDE908340CD5DDE9D5
:102EE0000E01994B05F00F05D3E90823FDF736FFD6
:102EF0000324CDE9020100E00224934E6DB1E907FD
:102F000008D5DDE90801D6E90023FDF7FDFDCDE98F
:102F1000080101346D100836F0E7DDE90823DDE92A
:102F20000201FDF71BFF20E0CBF1000505B3DDE951
:102F30000E01844B05F00F0203EBC203D3E900231B
:102F4000FDF7E2FDCDE902017F4E2D1100230224A1
:102F500055B1EA0705D5D6E90023FDF7D5FD0134C3
:102F600001236D100836F3E71BB1CDE9020100E043
:102F70000224109BE3B1DDE902560022734B284680
:102F8000314602F077FA98B1059B8BB1B9F1000F89
:102F900040F3E6800BF1FF330893314600226C4B7F
:102FA0002846FDF7B1FD0134CDE902014E4602E0AD
:102FB000059ECDF820B02046FDF740FDDDE9022357
:102FC000FDF7A2FD634B0022FDF7ECFBA1F150736E
:102FD00004460C931D46D6B9DDE9020100225E4B82
:102FE000FDF7DEFB22460C9BCDE9020102F060FA00
:102FF000002840F03F820C99224601F10043DDE9B0
:10300000020102F037FA002840F02B82A8E00A9A69
:103010004C4B711E002A49D003EBC103D3E90023B6
:1030200000204E49FDF79AFE22462B46FDF7B8FBDD
:10303000CDE90C01069CDDE9020102F059FA0546D2
:10304000FDF7FCFC02460B46DDE90201FDF7A8FB9B
:10305000DDE90C23303504F8015BCDE9020102F013
:1030600009FA002840F01D83DDE9022300203749DA
:10307000FDF796FBDDE90C2302F0FCF9002840F097
:10308000D180069BE31AB3426ADADDE90C01002223
:103090002F4BFDF739FD0022CDE90C01DDE90201DE
:1030A0002B4BFDF731FDCDE90201C4E703EBC10174
:1030B0002246D1E900012B46FDF726FD069BCDE90E
:1030C0000C011D469C19DDE9020102F011FA0646C9
:1030D000FDF7B4FC02460B46DDE90201FDF760FB9B
:1030E000303605F8016BAC42CDE902014FF0000229
:1030F00022D11A4BDDE90C01FDF754FB02460B46C9
:10310000DDE9020102F0D4F9002840F08B80DDE90E
:103110000C2300201149FDF743FB02460B46DDE975
:10312000020102F0A7F9D8B114F8013C621E302B5D
:1031300040F0B7821446F7E7054BFDF7E5FCCDE913
:103140000201C0E788590008605A00080000F03FFB
:103150000000244000001C40000014400000E03F3C
:10316000DDE90E34CDE90234139B002B7CDBBBF18F
:103170000E0F79DCAB4B03EBCB03D3E900671F9B4E
:10318000002B14DA059B002B11DC40F06C8100222F
:10319000A54B30463946FDF7B7FCDDE9022302F0C6
:1031A0007DF9059D2E46002840F05F8165E1069C73
:1031B000DDE9028932463B4640464946FDF7CEFDF1
:1031C00002F096F90546FDF739FC32463B46FDF71D
:1031D0009BFC0B46024649464046FDF7E1FA05F1E5
:1031E000300E069B04F801EBC3EB040E059B734500
:1031F0002DD102460B46FDF7D5FA80468946024698
:103200000B463046394602F035F978B942464B460E
:103210003046394602F024F9002800F04482EB07DA
:1032200004D440E2DDF820B000E01C4614F8012C84
:10323000631E392A07D1069A9A42F6D1069930229E
:103240000BF1010B0A701A7801321A702BE200227E
:10325000764BFDF759FC002200238046894602F098
:10326000FFF80028A6D01EE20A9A002A2BD01E9A48
:10327000012A0ADC119A12B103F2334302E0129BD5
:10328000C3F136033D46444613E0059B5D1EAF4245
:10329000BFBF0B9BEA1B9B180B93059BB6BF2F462A
:1032A0007D1B0025002BA7BF4446059BC3EB0804EC
:1032B0000023079A01211A4450469844079200F0CF
:1032C00032FF064602E03D4644460A9E5CB1079B3B
:1032D000002B08DDA342A8BF2346079AC3EB0808CA
:1032E000E41AD31A0793002F1DDD0A9BABB18DB1F1
:1032F00031462A46504600F0AFFF049A0146064682
:10330000504600F019FF04990890504600F02EFE38
:10331000089B04937A1B06D000E03A460499504675
:1033200000F09AFF04900121504600F0FCFE0B9B38
:1033300005465BB31A460146504600F08DFF1E9BC2
:103340000546012B18DC029B83B9039BC3F31303CF
:1033500073B9039B23F000473F0D3F054FB1079B17
:1033600008F1010801330793012702E0002700E07C
:10337000029F0B9B73B100E000272B6905EB8303D1
:10338000186900F083FEC0F1200004E01E9B012BB1
:10339000D9DD0B9F0120079B184410F01F0008D0B7
:1033A000C0F12003042B02DDC0F11C0002E006D0B6
:1033B00018461C30079B8044034404440793B8F12B
:1033C000000F05DD42460499504600F093FF04903B
:1033D000079B002B05DD29461A46504600F08AFF60
:1033E0000546109B23B32946049800F0D4FF00281B
:1033F0001EDA00230A220499504600F0CEFD0A9BF3
:103400000BF1FF3B0490002B00F05F81314600235D
:103410000A22504600F0C1FDB9F1000F06463FDC1C
:103420003BE000BF88590008000014400000244021
:10343000059B002B2BDC1E9B022B28DDDDF8149056
:10344000B9F1000F11D129464B460522504600F034
:10345000A4FD01460546049800F09DFF00280CDC01
:1034600003E0354600E000252E461F9B069C6FEAD0
:10347000030B09E03546DDF820B0069B069A5C1C7C
:10348000312313700BF1010B05960026F7E00A9B20
:10349000DDF8149023B9069CB2E01E9B022BCFDC12
:1034A000002C05DD31462246504600F023FF06463B
:1034B0009FB17168504600F024FD0446326906F160
:1034C0000C01023292000C3000F010FD0122214666
:1034D000504600F00FFF059000E00596029B069F06
:1034E00003F00103079329460498FFF7D7FA314602
:1034F000044600F13008049800F04DFF059A029050
:103500002946504600F063FFC36802463BB90146B6
:103510000A90049800F03FFF0A9A034600E0012356
:10352000114650460A9300F021FD0A9B53B91E9A9A
:1035300042B9079A32B9B8F1390F2AD0029B002B51
:103540001CDC1DE0029A002A04DB1BD11E9ACAB9BA
:10355000079ABAB9002B13DD01220499504600F0F6
:10356000C9FE2946049000F016FF002803DC07D1AD
:1035700018F0010F04D0B8F1390F0AD004F1310866
:103580007C1C0CE0002B07F101040BDDB8F1390FB6
:1035900003D139233B70013756E008F1010887F861
:1035A00000806CE0069B2746E31A4B4504F8018C2B
:1035B0003BD000230A220499504600F0EEFC059B04
:1035C00004909E424FF00A024FF0000331465046ED
:1035D00004D100F0E2FC0646059084E700F0DDFC33
:1035E000002306460A220599504600F0D6FC0590B5
:1035F00079E700230A220499504600F0CEFC04909B
:1036000029460498FFF74AFA069B00F1300804F8AF
:10361000018BE31A4B45ECDB069B0596B9F1010FD4
:10362000ACBF4B4401331F4600260122049950468B
:1036300000F060FE2946049000F0ADFE002803DC97
:1036400015D118F0010F12D03C4614F8013C621E4F
:10365000392B09D1069B934204D10BF1010B312385
:10366000069A02E01446F0E70133137007E03C4687
:1036700014F8013C621E302B01D11446F8E72946AC
:10368000504600F073FC059B6BB12EB19E4203D0F7
:103690003146504600F06AFC0599504600F066FC41
:1036A00001E0DDF820B00499504600F05FFC0023F3
:1036B000209A23700BF101031360229B1BB11C6045
:1036C00001E008480AE0069808E0B9F1000F3FF76A
:1036D000E2AE1E9B022B7FF7DEAEB1E615B0BDE871
:1036E000F08F00BF90570008014900F0A9B800BF53
:1036F0007951000810B504460023036043608360DD
:1037000081814366C2810361436183611946082256
:103710005C30FDF765FC054B24626362044BA362D9
:10372000044BE362044B236310BD00BFF54D00085A
:10373000174E00084F4E0008734E000870B56823FE
:103740004D1E5D430E4605F1740101F01DF804465F
:1037500040B1002180E842000C30A06005F1680211
:10376000FDF73EFC204670BD836910B5044633BBAF
:103770008364C3640365124B124A1B6882629842D9
:1037800004BF0123836100F01FF86060204600F051
:103790001BF8A060204600F017F80022E06004212A
:1037A0006068FFF7A7FF01220921A068FFF7A2FFC9
:1037B00002221221E068FFF79DFF0123A36110BDE3
:1037C0007C570008E9360008F8B51C4B07461E6810
:1037D000B36913B93046FFF7C7FF4836B46873685A
:1037E000013B04D4B4F90C507DB16834F8E7336878
:1037F0000BB13668F2E704213846FFF79FFF3060CF
:103800000028F6D10C233B60F8BD4FF6FF73E3812F
:103810000123A38165662560A560656025616561FA
:10382000A5610822294604F15C00FDF7D9FB656318
:10383000A563A564E5642046F8BD00BF7C57000879
:103840002DE9F8438046894600F14804002694B1EA
:10385000A5686768013F0CD4AB89012B07D9B5F97E
:103860000E30013303D029464046C8470643683529
:10387000F0E72468EBE73046BDE8F883F0B5066969
:103880004B11B34200F1140527DA11F01F0105EBCB
:10389000860605EB830201D1294616E0141D55F872
:1038A00023202B46C1F1200ECA40B44209D227681A
:1038B00007FA0EF73A4343F8042B54F8042BCA4096
:1038C000F3E71A6052B1043308E0B2420B4605D266
:1038D00052F8043B41F8043BF7E72B465B1B9B1077
:1038E000036103B94361F0BDA0F13003092B01D896
:1038F00020380AE0A0F16103052B01D8473804E025
:10390000A0F14103052B02D82738C0B27047002030
:1039100070472DE9F04F8BB08A469046069302908F
:1039200000F0CAFA03684FF0000B18460393FEF745
:1039300003FA039B0190034413F8013C0793DAF860
:10394000003002331F4613F8010B302802D10BF16F
:10395000010BF7E7FFF7C8FF0446E0B9019A0399A6
:10396000384601F08AFA002834D1019BF85CFE1831
:10397000FFF7BAFF80B3334618781F46302803F1AB
:103980000103F9D0FFF7B0FFB0FA80F534466D09B6
:103990004FF0010B01E000252C463A4616463078E0
:1039A0000132FFF7A1FF0028F8D1019A03993046B0
:1039B00001F063FA50B954B9019BF4182246164637
:1039C00030780132FFF790FF0028F8D134B1A41B02
:1039D000A40003E03E4600E0044601253378502B66
:1039E00001D0702B2AD173782B2B08D02D2B03D02C
:1039F000711C4FF0000905E04FF0010901E04FF0A4
:103A00000009B11C0878FFF76FFF431EDBB2182BCB
:103A100014D8A0F1100211F8010FFFF765FF431E43
:103A2000DBB2182B04D80A2303FB0202103AF2E798
:103A3000B9F1000F00D05242144400E03146CAF8F8
:103A400000102DB1BBF1000F14BF002006207CE157
:103A50002946F31B013B072B02DD01315B10FAE71E
:103A6000029800F04EFA4FF000090546CB46019B44
:103A700000F1140AC3F10103CDF810A00893B74276
:103A80002FD2731E0593079A16F8013C93420BD070
:103A9000BBF1200F16D1049BC3F8009004334FF004
:103AA00000090493CB460DE0059B089A13449F42FE
:103AB000EED81846019A0399099301F0DEF9099BA3
:103AC00068B1E5E716F8010CFFF70EFF00F00F00F4
:103AD00000FA0BF0059B49EA00090BF1040B1E46A6
:103AE000CDE7049840F8049BCAEB000080102861E1
:103AF0004701484600F0CAFAD8F80060381AB042C8
:103B000026DD871B3946284600F0C1FDC8B17B1E63
:103B1000591103F01F024FF001095AF8211009FA58
:103B200002F20A420ED04B4502DC4FF0020909E0D6
:103B3000B91E284600F0ABFD0028F6D04FF003096F
:103B400000E0814639462846FFF798FE3C440CE0E9
:103B500009DA371A29463A46029800F0CBFB0546A7
:103B6000E41B00F1140A4FF00009D8F808309C4219
:103B700008DD0298294600F0F9F9149A0023136031
:103B8000A320E2E0D8F80400844253DA041BA642E2
:103B90002EDCD8F80C30022B1AD0032B1CD0012BB2
:103BA0001DD1A6421BD1012E0BDCD8F80430069A99
:103BB0006220136001232B61CAF80030149B1D6042
:103BC000C3E0711E284600F062FD0028EDD106E03A
:103BD000159B002BE9D002E0159B002BE5D1029844
:103BE000294600F0C3F9149A002313605020ACE07A
:103BF000671EB9F1000F06D13FB13946284600F0E3
:103C000046FD814601E04FF001097A11012307F0DA
:103C10001F0703FA07F75AF8223021461F422846A9
:103C200018BF49F00209361BFFF728FE0227D8F813
:103C3000044000E00127B9F1000F00F08180D8F8BE
:103C40000C30022B0ED0032B10D0012B76D119F0A3
:103C5000020F73D0DAF8000049EA000919F0010FE9
:103C600007D16BE0159BC3F101031593159B002B46
:103C700064D0D5F810A005F114034FEA8A0903EBCC
:103C8000090100201A68B2F1FF3F02D001321A6028
:103C900020E043F8040B9942F4D8AB689A4512DB54
:103CA00069680298013100F02CF983462A6905F110
:103CB0000C01023292000C3000F018F929460298EB
:103CC00000F054F95D462B695A1C2A6105EB830309
:103CD00001225A61022F05F1140211D1D8F80030E7
:103CE000013B9E4227D17111012306F01F0603FA02
:103CF00006F652F821301E420CBF022701271AE0B7
:103D00002B699A450ADA01212846FFF7B7FDD8F852
:103D1000083001349C423FF72CAF0BE016F01F0631
:103D200008D0914459F8040C00F0B0F9C6F120060F
:103D3000B042E8DB012747F0200701E047F0100719
:103D40003846149B1D60069B1C600BB0BDE8F08FCD
:103D5000C2F10802920070B5C2F1200643680568FE
:103D600003FA06F42C43D340046040F8043F884231
:103D7000F4D370BD30B5036811F8014B01334CB179
:103D80001A78A2F14105192D98BF2032A242F3D032
:103D9000002030BD0360012030BD0B682DE9F04FDD
:103DA0005E1102EB860613F01F0318BF0436351FA1
:103DB000174600228246A8462C46914685B0D0F888
:103DC00000B0019346F8042C00921BF8011F002953
:103DD0003CD0084603920291FFF786FD039A00BB90
:103DE0000299202916D8009B9945EEDD444505D25D
:103DF000072A03DC41462046FFF7AAFFBC4223D92D
:103E00000023A4F1040844F8043CCDF80090444693
:103E10001A46DAE7292948D10BF10103CAF8003024
:103E200014E00132082A09F1010906DDBC42CCD9AF
:103E3000002344F8043C0122043C216800F00F00F8
:103E400040EA01102060C0E70822BEE7B9F1000F88
:103E50002BD0444505D2072A03DC41462046FFF714
:103E600077FFBC420CD93B4654F8042BA54243F8DB
:103E7000042BF9D2002243F8042B9D42FBD20BE025
:103E8000019B4BB1C3F120024FF0FF33D34056F8F2
:103E9000042C134046F8043C2B6843B9BD4202D1C0
:103EA00001232B6003E0043DF6E7042000E0052039
:103EB00005B0BDE8F08F0000004870477C0000208E
:103EC000024B0146186800F05FBC00BF7400002080
:103ED00010B5C9B202449042034605D01C780130A7
:103EE0008C42F8D1184610BD002010BD10B5431EFD
:103EF0000A44914204D011F8014B03F8014FF8E74E
:103F000010BD70B5456A04460E463DB91020FFF756
:103F1000D7FF6062456085600560C560656AEB68D3
:103F200043B1636ADB6853F8260078B1026843F84E
:103F3000262017E021220421204600F0CAFB636AF4
:103F4000E860DB68002BECD1002070BD012101FA94
:103F500006F56A1D9200204600F0BBFB0028F3D056
:103F60004660856000230361C36070BD70B5446A1C
:103F700006460D463CB91020FFF7A2FF7062446070
:103F800084600460C4603DB1736A6A68DB6853F89A
:103F90002210296043F8225070BD2DE9F0410646F9
:103FA0000C460D691F4601F1140E0023DEF80000D7
:103FB000013381B202FB0171000C0F0C02FB007097
:103FC00089B201EB00419D424FEA10474EF8041BB5
:103FD000ECDCD7B1A3689D4212DB61683046013149
:103FE000FFF78FFF8046226904F10C010232920034
:103FF0000C30FFF77BFF21463046FFF7B7FF444602
:1040000004EB850301355F6125612046BDE8F08141
:104010002DE9F843064615461F46092208330C468B
:1040200093FBF2F3002101229A4202DA520001319D
:10403000FAE73046FFF765FF089B092D43614FF013
:104040000103036111DD04F10908C1462C4419F88C
:10405000013B0146303B0A223046FFF79EFFA14557
:10406000F5D108EB0504083C01E00A3409252D1BB5
:1040700063199F4208DD14F8013B0146303B0A22D8
:104080003046FFF78AFFF3E7BDE8F883030C1B0413
:1040900013B90004102300E0002310F07F4F04BF89
:1040A0000002083310F0704F04BF0001043310F019
:1040B000404F04BF80000233002803DB420003D5D9
:1040C000581C70471846704720207047036813F04B
:1040D00007020BD0D90722D49A074BBF5B089B0875
:1040E000036003604CBF01200220704799B209B9F8
:1040F0001B0C102213F0FF0F04BF1B0A0832190714
:1041000004BF1B090432990704BF9B080232D90778
:1041100002D45B0805D001320360104670470020CE
:1041200070472020704710B50C460121FFF7E9FECB
:1041300001224461026110BD2DE9F74F14460A695E
:10414000236988469A42BEBF0B46A0461C46D8F853
:104150001070D4F81090D8F80830D8F8041007EB95
:1041600009069E42C8BF0131FFF7CBFE00F11405DE
:104170002B4605EB860C0022634502D243F8042B44
:10418000FAE704F1140208F1140102EB890301EBD0
:1041900087070093009B0192934257D9B2F800B071
:1041A000BBF1000F23D08946AE464FF0000859F806
:1041B000044BBEF800A0A3B20BFB03A34FEA144AC2
:1041C000DEF8004043444FEA14480BFB0A84F246F1
:1041D00004EB13449BB243EA04434F454FEA1448AF
:1041E0004AF8043B01D9D646E1E7CEF80480019BAA
:1041F0000432B3F802A0BAF1000F21D02C46894650
:104200002B684FF00008B9F800E0B4F802B09BB298
:104210000AFB0EBEA346F04443EA08434BF8043BB6
:1042200059F8043BB4F804E01B0C0AFB03E34F45C8
:1042300003EB18434FEA134801D95C46E3E7636098
:104240000435A7E75CF8043D13B9013E002EF9DC04
:10425000066103B0BDE8F08F2DE9F843154612F072
:10426000030206460F4607D0214C013A002354F8BA
:104270002220FFF792FE0746AD1036D0746A3CB993
:104280001020FFF71DFE7062446084600460C4600B
:10429000D6F82480D8F808404CB940F27121304655
:1042A000FFF741FF04460023C8F8080003604FF001
:1042B0000008EB070AD5394622463046FFF73CFF97
:1042C000814639463046FFF751FE4F466D100CD0FF
:1042D000206808B10446ECE7224621463046FFF745
:1042E0002BFF2060C0F80080F4E73846BDE8F88373
:1042F000505A00082DE9F0470C46074691462669BA
:104300004FEA621A56444968A368751CAB4202DA48
:1043100001315B00FAE73846FFF7F3FD00238046E2
:104320001A4600F11401534503DA41F82320013302
:10433000F9E72AEAEA73206901EB830319F01F0900
:1043400004F1140101EB800E14D0C9F1200C0022FD
:1043500008689A4600FA09F0024343F8042B51F822
:10436000042B8E4522FA0CF2F2D8CAF8042042B18E
:10437000B51C06E0043B51F8042B8E4543F8042F8E
:10438000F9D8013D3846C8F810502146FFF7EEFD38
:104390004046BDE8F08703690A6910B59B1A11D140
:1043A00092001430143183180A4453F8044D52F823
:1043B000041D8C4202D007D3012010BD9842F4D3D3
:1043C000002010BD184610BD4FF0FF3010BD2DE984
:1043D000F8430C460746114620461546FFF7DBFF1B
:1043E000061E08D131463846FFF78BFD01230361D5
:1043F0004661BDE8F883BCBF23462C463846616859
:10440000BABF1D4601260026FFF77BFD2B69C6605B
:10441000266905F1140904F1140101EB860709EB83
:10442000830800F114054FF0000C51F8042B59F8E3
:10443000044B93B29C44A3B2240CC3EB0C03C4EB17
:10444000124202EB23429BB24FEA224CC84543EA98
:1044500002428E4645F8042BE7D8BE450ED25EF8E0
:10446000041B8AB26244131403EB114392B242EA72
:1044700003424FEA234C45F8042BEEE755F8043D80
:104480000BB9013EFAE70661BDE8F883104B0B401B
:10449000A3F15073002B02DD0020194670475B42E8
:1044A0001B15132B4FF000004FF0000104DC4FF4FC
:1044B000002242FA03F17047143B1E2B4FF0010219
:1044C000CEBF1346C3F11F0302FA03F31846704729
:1044D0000000F07FF8B5056900F1140606EB8505CC
:1044E00055F8044C2F1F2046FFF7D0FDC0F12003E4
:1044F0000A280B6014DCC0F10B0E24FA0EF1BE4248
:1045000041F07F5334BF55F8081C0021153004FAE0
:1045100000F021FA0EF143F4401340EA010223E0D7
:10452000BE423ABFA5F1080755F8081C00210B3818
:1045300015D08440C0F1200544F07F5444F4401469
:10454000B74221FA05FE44EA0E038CBF57F8044C2B
:10455000002401FA00F0EC4040EA040204E00A46BC
:1045600044F07F5343F4401310461946F8BD2DE93B
:10457000F3411C4601219046089E099DFFF7C1FCAE
:10458000C4F31302C4F30A5407460CB142F4801278
:104590000192B8F1000F19D002A840F8088DFFF77A
:1045A00095FD009B48B1019AC0F1200102FA01F18A
:1045B0000B43C2407B61019200E07B61019B002BB9
:1045C00014BF02210121BB61396107E001A8FFF797
:1045D0007DFD019B01217B613961203034B1A4F262
:1045E000334404443460C0F1350009E0A0F23240A5
:1045F00007EB810330601869FFF748FDC0EB4110FD
:104600002860384602B0BDE8F0812DE9F7438846BE
:1046100069468146FFF75EFF0D46044601A9404604
:10462000FFF758FF0F460646D9F81030D8F810208B
:1046300020469A1A9DE80A00C91A01EB4213002B82
:10464000CCBF05EB0355A7EB035732463B46294643
:10465000FCF784FB03B0BDE8F083013910B54911C4
:104660001469013102F1140300EB810103EB8404AE
:10467000A342024604D253F8042B40F8042BF7E778
:1046800000238A4202D242F8043BFAE710BD00F14F
:10469000140200694B11984210B50CDB0CDD11F0CF
:1046A0001F0109D052F8234024FA01F000FA01F169
:1046B0008C420CD100E0034602EB8303934204D901
:1046C00053F8041D0029F9D001E0002010BD01209D
:1046D00010BD38B502FB01F4214600F055F805463F
:1046E00018B122460021FCF77BFC284638BD0000AB
:1046F00038B50546002944D051F8043C0C1F002B66
:10470000B8BFE41800F0EFFD1E4A1368114613B954
:104710006360146030E0A3420DD92268A018834280
:1047200001BF18685B681218226063600C6023E0A8
:10473000A24203D813465A68002AF9D118681918FA
:10474000A1420BD12168014458188242196013D14B
:1047500010685268014419605A600DE002D90C23B8
:104760002B6009E021686018824201BF106852681E
:104770000918216062605C602846BDE8384000F09E
:10478000B3BD38BDEC00002070B5CD1C25F003058D
:1047900008350C2D38BF0C25002D064601DBA9423B
:1047A00002D90C23336046E000F09DFD234B1C68CA
:1047B0001A462146A1B10B685B1B0ED40B2B03D903
:1047C0000B60CC18CD501EE08C420BBF63684B6869
:1047D0001360636018BF0C4615E00C464968E9E7B2
:1047E000174C23681BB9304600F0F4FA20602946C4
:1047F000304600F0EFFA431C18D0C41C24F0030428
:10480000A0420DD12560304600F06EFD04F10B0092
:10481000231D20F00700C31A0ED05A42E25070BD8B
:10482000211A304600F0D6FA0130EBD10C23336068
:10483000304600F059FD002070BD00BFEC000020A4
:10484000E80000202DE9F0478E6882469E420C4623
:10485000914698463ED88A8912F4906F3AD02568DE
:10486000096902236F1A656905EB450595FBF3F5A8
:104870007B1C43449D4238BF1D4653050FD5294636
:10488000FFF782FF064698B13A462169FFF72EFBF3
:10489000A38923F4906343F08003A38113E02A46A5
:1048A00000F023FD064670B921695046FFF720FF4E
:1048B0000C23CAF80030A3894FF0FF3043F04003C7
:1048C000A381BDE8F08726613E44266046466561C7
:1048D000ED1BA560464528BF46464946324620683E
:1048E00000F0E6FCA36800209B1BA36023681E4425
:1048F0002660BDE8F08700002DE9F04F9DB00393DE
:104900008B8980461C060D4616460DD50B695BB992
:104910004021FFF739FF2860286118B90C23C8F837
:104920000030CDE040236B610023099320238DF8F4
:104930002930DFF89CB130238DF82A3037463C46C9
:1049400014F8013B1BB9B7EB060910D003E0252B87
:10495000F9D02746F3E74B46324629464046FFF753
:1049600071FF013000F0A780099B4B4409933B780D
:10497000002B00F0A08000234FF0FF320493079338
:10498000059206938DF853301A930126052221785B
:104990004E48FFF79DFA671C049B38B14B4A3C46D2
:1049A000801A06FA00F018430490EFE7D90644BFD6
:1049B00020228DF853201A0744BF2B228DF8532054
:1049C00022782A2A03D0079A00210A200BE0039AB2
:1049D000111D12680391002A10DA524243F00200BE
:1049E000079204900BE027463B780134303B092BBB
:1049F00003D800FB02320121F5E701B107923B78B1
:104A00002E2B1ED17B782A2B0AD1039B02371A1D2D
:104A10001B680392002BB8BF4FF0FF33059310E0E3
:104A2000002319460593781C0A2407463A7801307A
:104A3000303A092A03D804FB01210123F5E703B129
:104A40000591032239782248FFF742FA40B140230A
:104A5000CBEB000003FA00F0049B013718430490ED
:104A6000397806221B487E1C8DF82810FFF730FA93
:104A700088B1194B33B9039B073323F0070308337D
:104A8000039314E003AB00932A46144B04A9404659
:104A9000FCF740FB07E003AB00932A460F4B04A949
:104AA0004046FCF7F1FDB0F1FF3F824603D0099B81
:104AB0005344099342E7AB895B0601D4099801E0AE
:104AC0004FF0FF301DB0BDE8F08F00BF885A0008DE
:104AD0008E5A0008925A000815110008454800082F
:104AE000936810B4013B002B936008DA9469A342E9
:104AF00002DBCBB20A2B02D110BC00F0D3B9136891
:104B0000581C10601970C8B210BC7047F8B5064642
:104B10000F461446D518AC4208D03A4614F8011B8B
:104B20003046FFF7DDFF431CF5D100E00020F8BD63
:104B30002DE9F04F9DB00C4617460393064618B179
:104B400083690BB9FEF710FE7F4B9C4201D174685C
:104B500008E07E4B9C4201D1B46803E07C4B9C4250
:104B600008BFF468A38918070CD5236953B1002343
:104B7000099320238DF8293030238DF82A30DFF86F
:104B8000D4B144E02146304600F0F2F90028EED0DE
:104B90004FF0FF30D5E0039A111D12680391002AEF
:104BA00080F28C80524243F002000792049098F801
:104BB00000302E2B00F08480032298F80010654806
:104BC000FFF786F948B14023CBEB000003FA00F071
:104BD000049B08F101081843049098F8001006227D
:104BE0005D4808F101078DF82810FFF771F90028DA
:104BF00000F09580594B002B40F08880039B0733D1
:104C000023F0070308330393099B53440993B846E1
:104C1000454615F8013B1BB9B8EB07090FD003E077
:104C2000252BF9D0A846F3E74B463A4621463046B5
:104C3000FFF76CFF01307FD0099B4B44099398F834
:104C40000030002B78D000234FF0FF3204930793FD
:104C5000059206938DF853301A930127052229787F
:104C60003F48FFF735F905F10108049B38B13C4A8C
:104C70004546801A07FA00F018430490EEE7D9067B
:104C800044BF20228DF853201A0744BF2B228DF8F1
:104C900053202A782A2A3FF47EAF079A00210A205F
:104CA000A84698F800300135303B092B03D800FBAB
:104CB00002320121F4E700293FF479AF079276E749
:104CC00098F801302A2B0BD1039B08F102081A1D1A
:104CD0001B680392002BB8BF4FF0FF3305936BE7BF
:104CE00000231946059308F101000A25804698F82B
:104CF00000200130303A092A03D805FB01210123A5
:104D0000F4E7002B3FF458AF059155E703AB009350
:104D10002246144B04A93046FCF7FCF907E003AB2C
:104D2000009322460F4B04A93046FCF7ADFCB0F1CE
:104D3000FF3F82467FF468AFA3895B063FF528AF4B
:104D400009981DB0BDE8F08F2059000840590008AF
:104D5000605900088E5A0008925A00081511000880
:104D6000885A00080D4B000870B50D4614460646DB
:104D700018B183690BB9FEF7F7FC134B9C4201D1C4
:104D8000746808E0114B9C4201D1B46803E0104BF9
:104D90009C4208BFF468A368013B002BA3600CDAB7
:104DA000A269934202DBEBB20A2B06D122462946C6
:104DB0003046BDE8704000F075B82368E8B25A1C70
:104DC00022601D7070BD00BF2059000840590008C6
:104DD0006059000838B5064C002305460846236094
:104DE00000F026FC431C02D1236803B12B6038BDC0
:104DF0001C01002010B50C46B1F90E1000F09CFA11
:104E00000028ABBF636DA3891B1823F48053ACBF8C
:104E10006365A38110BD2DE9F0411F468B890546CE
:104E2000DB050C46164605D502230022B1F90E100B
:104E300000F0CCF9A389324623F48053A381B4F95E
:104E40000E103B462846BDE8F04100F07FB810B593
:104E50000C46B1F90E1000F0B9F9431CA38915BF37
:104E6000606523F4805343F48053A38118BFA3816A
:104E700010BDB1F90E1000F0E9B830B582B1451E91
:104E8000013915F8013F11F8014FA34206D1EC4357
:104E90001444E04201D0002BF3D11C46181B30BD56
:104EA000104630BDF8B50F461446064618B1836962
:104EB0000BB9FEF759FC224B9C4201D1746808E003
:104EC000204B9C4201D1B46803E01F4B9C4208BFB9
:104ED000F468A369A360A3891A0709D523693BB1C4
:104EE00023682069FDB2181A636998420FDB08E055
:104EF0002146304600F03CF80028F1D04FF0FF305A
:104F0000F8BD2146304600F037F90028F6D1A368F5
:104F1000013BA36023685A1C22601F706269431C16
:104F2000934204D0A389DB0707D50A2D05D121467A
:104F3000304600F021F90028E0D12846F8BD00BF36
:104F400020590008405900086059000838B5074C3E
:104F5000054608461146002222601A46FBF706FA6B
:104F6000431C02D1236803B12B6038BD1C01002013
:104F7000324B70B51D6806460C4625B1AB6913B9B6
:104F80002846FEF7F1FB2E4B9C4201D16C6808E0ED
:104F90002C4B9C4201D1AC6803E02B4B9C4208BFD8
:104FA000EC68B4F90C309AB215071DD4D00602D4BF
:104FB000092232603AE0510712D5616B41B104F128
:104FC0004403994202D03046FFF792FB002363630B
:104FD000A38923F02403A381002363602369236052
:104FE000A38943F00803A38123694BB9A38903F480
:104FF0002073B3F5007F03D02146304600F01CF942
:10500000A28912F0010305D00023A36063695B420B
:10501000A36103E0920758BF6369A36023695BB98A
:10502000B4F90C3003F0800080B230B143F040039B
:10503000A3814FF0FF3070BD002070BD74000020D0
:1050400020590008405900086059000838B5064C3E
:10505000002305460846236000F0C2FA431C02D133
:10506000236803B12B6038BD1C0100208A892DE91B
:10507000F041054610070C4659D44B68002B02DC62
:105080000B6C002B17DDE66AAEB102F480520023F0
:1050900092B22F682B600AB1606D15E0216A01237E
:1050A0002846B047411C0FD12B686BB11D2B01D096
:1050B000162B03D12F600020BDE8F081A38943F0B7
:1050C0004003A381BDE8F081A3895A0705D5636831
:1050D000C01A636B0BB1236CC01A00230246E66A48
:1050E000216A2846B047431CA38906D129681D2997
:1050F00039D8204ACA40D60735D5002262602269D5
:10510000D904226004D5421C01D12B6803B9606523
:10511000616B2F600029CED004F14403994202D084
:105120002846FFF7E5FA00206063BDE8F0810F69CB
:10513000002FC0D093070E680CBF4B690023C7EB4C
:1051400006080F608B6002E00744C0EB0808B8F166
:10515000000FB0DD43463A46216A2846A66AB047AA
:105160000028F1DCA38943F04003A3814FF0FF3016
:10517000BDE8F0810100402038B50B6905460C46BA
:10518000DBB118B183690BB9FEF7EEFA0C4B9C4208
:1051900001D16C6808E00B4B9C4201D1AC6803E084
:1051A000094B9C4208BFEC68B4F90C302BB1214686
:1051B0002846BDE83840FFF759BF002038BD00BF82
:1051C00020590008405900086059000838B5074CBC
:1051D000054608461146002222601A4600F018FAD9
:1051E000431C02D1236803B12B6038BD1C01002091
:1051F00070B50E46B1F90E1090B0002914461D4648
:1052000006DA00232B60B3891A060ED540230EE080
:1052100001AA00F0A3F80028F3DB029A02F470421E
:10522000A2F500535A425A412A604FF4806300208D
:10523000236010B070BD00008B8973B59E070546D2
:105240000C4610D401AB6A46FFF7D2FF0099064620
:105250002846FFF799FA68B9B4F90C309A0522D4B8
:1052600043F00203A38104F1470323602361012378
:10527000636118E00D4BAB62A389206043F08003AB
:10528000A381009B20616361019B4BB1B4F90E10B7
:10529000284600F075F818B1A38943F00103A381F3
:1052A000A0893043A08102B070BD00BFE93600087C
:1052B000884210B501EB020301D8421E0BE0984270
:1052C000FBD28118D21AD34204D013F8014D01F851
:1052D000014DF8E710BD994204D011F8014B02F8D6
:1052E000014FF8E710BD70477047F8B507461546FF
:1052F0000E4621B91146BDE8F840FFF745BA1AB984
:10530000FFF7F6F92846F8BD00F04AF885420ED9B5
:1053100029463846FFF738FA044650B131462A4646
:10532000FEF7E4FD31463846FFF7E2F901E030468A
:10533000F8BD2046F8BD000038B5074C05460846C4
:105340001146002222601A4600F06AF9431C02D17D
:10535000236803B12B6038BD1C01002038B5074C11
:105360000023054608461146236000F041F9431C1E
:1053700002D1236803B12B6038BD00BF1C0100209F
:1053800038B5064C002305460846236000F038F97E
:10539000431C02D1236803B12B6038BD1C010020DF
:1053A00051F8040C0028BEBF091851F8043CC0187D
:1053B000043870474FF0FF3C06E000BF4FF0010C8F
:1053C00002E000BF4FF0010C4DF804CD4FEA410C54
:1053D0007FEA6C5C4FEA430C18BF7FEA6C5C1BD021
:1053E00001B050EA410C0CBF52EA430C91EA030FA2
:1053F00002BF90EA020F0020704710F1000F91EAFF
:10540000030F58BF994208BF90422CBFD8176FEACC
:10541000E37040F0010070474FEA410C7FEA6C5C9A
:1054200002D150EA013C07D14FEA430C7FEA6C5CA1
:10543000D6D152EA033CD3D05DF8040B704700BFCD
:105440008446104662468C461946634600E000BF1B
:1054500001B5FFF7B7FF002848BF10F1000F01BDED
:105460004DF808EDFFF7F4FF0CBF012000205DF8B8
:1054700008FB00BF4DF808EDFFF7EAFF34BF01203D
:1054800000205DF808FB00BF4DF808EDFFF7E0FFD6
:1054900094BF012000205DF808FB00BF4DF808ED27
:1054A000FFF7CEFF94BF012000205DF808FB00BF8E
:1054B0004DF808EDFFF7C4FF34BF012000205DF870
:1054C00008FB00BF4FEA410C7FEA6C5C02D150EA56
:1054D000013C0AD14FEA430C7FEA6C5C02D152EAEC
:1054E000033C02D14FF0000070474FF001007047BD
:1054F0004FEA410212F5001215D211D56FF47873FC
:10550000B3EB625212D94FEAC12343F0004343EA9E
:10551000505311F0004F23FA02F018BF4042704779
:105520004FF00000704750EA013005D111F0004003
:1055300008BF6FF0004070474FF00000704700BF99
:105540004FEA4102B2F1E04324BFB3F5001CDCF1A5
:10555000FE5C0DD901F0004C4FEAC0024CEA5070DD
:10556000B2F1004F40EB830008BF20F0010070470C
:1055700011F0804F21D113F13872BCBF01F000400F
:10558000704741F480114FEA5252C2F11802C2F141
:10559000200C10FA0CF320FA02F018BF40F00100C2
:1055A0004FEAC1234FEAD32303FA0CFC40EA0C0074
:1055B00023FA02F34FEA4303CCE77FEA625307D1B1
:1055C00050EA01331EBF4FF0FE4040F440007047E8
:1055D00001F0004040F0FE4040F40000704700BF82
:1055E000024B58221A604FF0FF3070471C01002018
:1055F000024B58221A604FF0FF3070471C01002008
:10560000024B58221A600020704700BF1C01002086
:10561000024B58221A604FF0FF3070471C010020E7
:10562000024B58221A604FF0FF3070471C010020D7
:10563000044B0246196809B9034919601868024405
:105640001A607047F000002020010020FEE70000F3
:10565000F8B500BFF8BC08BC9E467047F8B500BF5F
:10566000F8BC08BC9E467047555F4944203D202544
:10567000303858202530385820253038580A000056
:10568000464C4153485F53495A45203D20256420EC
:105690004B420A005243435F4352202020203D20CA
:1056A0003078253038580A005243435F434647520A
:1056B00020203D203078253038580A005243435F7F
:1056C0004353522020203D203078253038580A009E
:1056D000464C4153485F414352203D2030782530AD
:1056E00038580A005243435F535953434C4B5F466B
:1056F00072657175656E6379203D20256C640A00C2
:105700005243435F48434C4B5F4672657175656E0B
:1057100063792020203D20256C640A005243435FBA
:1057200050434C4B315F4672657175656E637920ED
:10573000203D20256C640A005243435F50434C4B8C
:10574000325F4672657175656E637920203D202554
:105750006C640A005243435F414443434C4B5F46F1
:1057600072657175656E6379203D20256C640A0051
:105770002564090025640000430000001400002097
:10578000494E4600696E66004E414E006E616E00E5
:1057900030003031323334353637383941424344C2
:1057A000454600303132333435363738396162633B
:1057B0006465660065256C6400000000340000002C
:1057C000CEFBFFFFCB030000010000000000000043
:1057D00035000000CEFBFFFFCB03000001000000FE
:1057E0000000000000000000BC89D897B2D29C3CA9
:1057F00033A7A8D523F649393DA7F444FD0FA532B8
:105800009D978CCF08BA5B25436FAC64280668115E
:105810000020202020202020202028282828282080
:105820002020202020202020202020202020202078
:1058300020881010101010101010101010101010E0
:1058400010040404040404040404041010101010D0
:10585000101041414141414101010101010101019A
:1058600001010101010101010101010110101010EC
:10587000101042424242424202020202020202026C
:1058800002020202020202020202020210101010C0
:1058900020000000000000000000000000000000E8
:1058A00000000000000000000000000000000000F8
:1058B00000000000000000000000000000000000E8
:1058C00000000000000000000000000000000000D8
:1058D00000000000000000000000000000000000C8
:1058E00000000000000000000000000000000000B8
:1058F00000000000000000000000000000000000A8
:105900000000000000000000000000000000000097
:1059100000496E66696E697479004E614E00000040
:105920000000000000000000000000000000000077
:105930000000000000000000000000000000000067
:105940000000000000000000000000000000000057
:105950000000000000000000000000000000000047
:105960000000000000000000000000000000000037
:105970000000000000000000000000000000000027
:10598000504F534958002E00000000000000F03F27
:10599000000000000000244000000000000059400A
:1059A0000000000000408F40000000000088C3405D
:1059B00000000000006AF8400000000080842E41D2
:1059C00000000000D01263410000000084D797411E
:1059D0000000000065CDCD41000000205FA0024224
:1059E000000000E876483742000000A2941A6D4299
:1059F000000040E59C30A2420000901EC4BCD6428C
:105A000000003426F56B0C430080E03779C3414336
:105A100000A0D8855734764300C84E676DC1AB43AC
:105A2000003D9160E458E143408CB5781DAF1544CA
:105A300050EFE2D6E41A4B4492D54D06CFF08044A5
:105A4000F64AE1C7022DB544B49DD9794378EA44BA
:105A500005000000190000007D00000000000000AB
:105A60000080E03779C34143176E05B5B5B893465A
:105A7000F5F93FE9034F384D321D30F94877825A26
:105A80003CBF737FDD4F1575232D302B2000686CD4
:105A90004C006566674546470000000000000000B6
:085AA000A8A6FF7F0100000031
:105AA80002040608000000000102030401020304C6
:105AB800060708090000000020590008405900089E
:105AC800605900080000000000000000000000000D
