:020000040800F2
:1000000000500020DD4F0008235000082550000854
:1000100027500008295000082B500008000000005D
:100020000000000000000000000000002D5000084B
:100030002F50000800000000315000083350000825
:1000400037500008395000083B5000083D50000868
:100050003F50000841500008435000084550000838
:1000600047500008495000084B5000084D50000808
:100070004F500008515000085350000855500008D8
:100080005750000859500008B54F00085D5000084F
:100090005F50000861500008635000086550000878
:1000A00067500008695000086B5000086D50000848
:1000B000894F0008715000087350000875500008FF
:1000C00077500008795000087B5000087D500008E8
:1000D0007F500008815000088350000885500008B8
:1000E00087500008895000088B50000810B5054C57
:1000F000237833B9044B13B10448AFF300800123D4
:10010000237010BDA00000200000000098730008BC
:10011000084B10B51BB108490848AFF300800848E8
:10012000036803B910BD074B002BFBD0BDE810409E
:10013000184700BF00000000A400002098730008CA
:100140009800002000000000154B002B08BF134B47
:100150009D46A3F5803A00218B460F461348144A6A
:10016000121A05F0FBFD0F4B002B00D098470E4BE9
:10017000002B00D098470020002104000D000D48FE
:10018000002802D00C48AFF3008005F0C1FD20002C
:10019000290004F0E5FE05F0A7FD00BF00000800FF
:1001A000005000200000000000000000A00000201F
:1001B000040100200000000000000000184B4FF078
:1001C000000C1A462DE9F0414142012489B2013860
:1001D000DFF85480DFF854E0124F9984000C1C8043
:1001E0004FF08046D8E90045A2F810C0138ACEF837
:1001F000806120BF138A0A499BB2002BF9D0BB68EB
:10020000013823445B4223F07F43E41845F10005A5
:10021000431CE9D1C8E9004500230B80BDE8F0810B
:100220000008004010E000E0C000002000E100E015
:1002300070B40A4B424292B201260025084C0138A4
:1002400008499A84000C1E804FF080421D821B8A50
:10025000C4F88021086070BC704700BF00080040EF
:1002600000E100E0DC00002070B50A4B0A4E9B68FC
:10027000D6E9004523445B4223F07F43E41845F16F
:1002800000054822002320462946C6E9004505F01E
:100290009BFB70BD10E000E0C000002070B50A4B71
:1002A0000A4E9B68D6E9004523445B4223F07F4316
:1002B000E41845F10005064A002320462946C6E910
:1002C000004505F081FB70BD10E000E0C00000209B
:1002D0004019010030B40E4B0E4C9968D4E900234C
:1002E0001144494221F07F41521843F100030A4D65
:1002F00003EB8301094801EBD201A5FB015100FB8F
:1003000003F0C4E9002330BC00EB5100704700BF8C
:1003100010E000E0C0000020398EE338E3388E039F
:100320004EF6041030B40E4B0E4C9968D4E90023FD
:100330001144494221F07F41521843F100039509CD
:100340004FF4B67101FB0351074D00FB03F0A5FB11
:100350000151C4E9002330BC00EB9120704700BF7D
:1003600010E000E0C0000020D55204E9044B6FF01B
:100370007F4000210522586099601A60704700BFD5
:1003800010E000E0074B084A9B68D2E900010344F3
:100390005B4223F07F43C01841F10001C2E9000134
:1003A000704700BF10E000E0C0000020074B084A83
:1003B0009B68D2E9000103445B4223F07F43C018ED
:1003C00041F10001C2E90001704700BF10E000E008
:1003D000C0000020014B98684042704710E000E0E8
:1003E00070B4104B104D9968D5E90023114449426F
:1003F00021F07F41521843F100030C4903EB8304C1
:100400000B4E04EBD20401FB1300A6FB0414A0EB7B
:1004100054000028C5E9002302DD70BCFFF7CEBE02
:1004200070BC704710E000E0C0000020E3388E038D
:10043000398EE3384FF47A7303FB00F0FFF7D0BF37
:10044000F0B44FF6FF750A4C0A4BE269002742F000
:100450000402472601210848E2611F801E859D8510
:100460009982026942F0100202619981F0BC7047E2
:10047000001002400008004000ED00E008B1FFF766
:100480009DBE70474FF47A7303FB00F000B97047CC
:10049000FFF794BE4FF47A7303FB00F000B9704786
:1004A000FFF7C6BE08B1FFF7C3BE704720BF124AB0
:1004B000138A9BB2F3B170B40023104913824FF03A
:1004C00080400F4B128AC1F880019B680D4E0E4A86
:1004D000D6E9000103445B4223F07F43C41810684F
:1004E00041F1000501381060C043C6E9004570BC09
:1004F000C00F7047012070470008004000E100E095
:1005000010E000E0C0000020DC0000200349044BA4
:1005100000204FF0FF3208801A607047000800404A
:10052000DC000020F0B44FF6FF76114B0021114D96
:100530006FF07F400522586099601A60EA690E4B9F
:1005400001200E4C42F004024727EA6119801F8502
:100550009E85988222690A4942F0100222619881A0
:100560000B6823F0070303430B60F0BC704700BF28
:1005700010E000E0001002400008004000ED00E044
:1005800000200240044B054A596A11605A6A42F041
:1005900080725A62704700BF00100240D8000020ED
:1005A000024A536A43F0807353627047001002405E
:1005B000034B1B68184214BF01200020704700BF86
:1005C000D8000020034A136823F007031843106083
:1005D000704700BF00200240084B98420AD003F544
:1005E0008063984208D0A3F5006398420CBF0420B2
:1005F000002070470820704710207047000C014011
:10060000072910B40DDD083989000F244368224002
:100610008C4002FA01F123EA04020A43426010BC52
:10062000704789000F24036822408C4002FA01F1D0
:1006300023EA04020A43026010BC7047072970B421
:1006400010DC8E0004680F25B54002F00F0324EA89
:100650000505B3402B43482A036012D0282A16D040
:1006600070BC7047A1F108039D0044680F26AE409E
:1006700002F00F0324EA0606AB403343482A4360E6
:10068000ECD170BC012303FA01F101617047012331
:1006900003FA01F1416170BC704700BF3A4B70B47E
:1006A000984237D0394B984245D0394B984256D072
:1006B0000C2A23D0102A16D0082A08D0012303FAC6
:1006C00001F1344B1A681143196070BC7047314B0B
:1006D00001209A6800FA01F10A439A60DA6822EA76
:1006E0000102DA60EDE72B4B01209A6800FA01F174
:1006F0000A439A60DA680A43DA60E2E7254B012090
:100700009A6800FA01F122EA01029A60DA680A4363
:10071000DA60D6E721F0030303F1804303F5803369
:1007200001F003009C6880000F2505FA00F024EA20
:1007300000009860BCE721F0030303F1804303F558
:10074000803301F003009E6880000F25854001245E
:1007500026EA050504FA00F028439860A8E721F08E
:10076000030303F1804303F5803301F003009E6827
:1007700080000F258540022426EA050504FA00F0D2
:100780002843986094E700BF00080140000C014036
:10079000001001400004014010B50A2086B005F0A9
:1007A00021FB214B214A224912681B680968214814
:1007B00005F0F0FA204B214C1988214805F0EAFA9F
:1007C0000A2005F00FFB21681E4805F0E3FA616876
:1007D0001D4805F0DFFA616A1C4805F0DBFA1C4B86
:1007E0001C48196805F0D6FA0A2005F0FBFA01A8A2
:1007F00002F07CFD0199184805F0CCFA02991748DF
:1008000005F0C8FA0399164805F0C4FA049915488A
:1008100005F0C0FA0599144805F0BCFA0A2005F065
:10082000E1FA06B010BD00BFE8F7FF1FECF7FF1FAD
:10083000F0F7FF1FE8710008E0F7FF1F001002400B
:100840000072000814720008287200083C72000848
:100850000020024050720008647200088072000894
:100860009C720008B8720008D4720008D9B14FF623
:10087000FF7310B44C1EE4B20444411E11F8010F82
:100880005BBA9BB24340C3F30312534083EA033382
:1008900018B2430103F4FF534340A1429BB2EDD190
:1008A000184610BC70474FF6FF731846704700BFDC
:1008B0004FF6FF700A4A0B4912F8013B40BA80B26A
:1008C0005840C0F30313584080EA003000B243019F
:1008D00003F4FF5358408A4280B2EDD1704700BF05
:1008E000E8F7FF1FF4F7FF1F03490B88024A1B06B6
:1008F000FBD580B29080704700380140034A5368AE
:1009000023F0F00343F0A003536070470008014058
:10091000054A4FF400731361536823F0F00343F06A
:1009200020035360704700BF00080140704700BFBC
:10093000704700BF024A536943F001035361704797
:1009400000100240F0B441F29107254B254E1C46A1
:100950007068254D20F004007060686806F58036E8
:1009600020F0F00040F0A00068609D8A1F48ADB202
:10097000443645F080059D82B060F160726037605A
:1009800099891B4889B241F04001002620259981B0
:100990001E80C0F8845120BF238811495B06FAD518
:1009A0008B89144823F040031B041B0C00248B810B
:1009B00004608B8A04F1804423F080031B0404F557
:1009C00084341B0C4FF400708B82206163681046E6
:1009D00023F0F00343F020036360F0BC704700BFD6
:1009E0000038014000000140000801400438014087
:1009F00000E100E04400024041F2A10070B40A4965
:100A00000A4A8B890A4D9BB243F004038B818B8A7F
:100A1000084C9BB2202643F040038B8256609560C1
:100A2000D460106070BC704700380140580002402C
:100A300004380140E0000020044A054B50681B6860
:100A40001844404200F01F00704700BF58000240A9
:100A5000C80000200E4B0F495B680A68C3F12003F1
:100A6000934211D010B40C4B541C0C482340002B63
:100A7000805C02DB0B6010BC7047013B63F01F031E
:100A800001330B6010BC70474FF0FF30704700BF60
:100A900058000240C80000201F000080E000002035
:100AA000064B074A5B681268C3F1200393421ABFE2
:100AB000044B985C4FF0FF30704700BF5800024075
:100AC000C8000020E0000020034B044A5B68C3F12B
:100AD00020031360704700BF58000240C800002088
:100AE000F8B50546304C314BA2694FF4007042F026
:100AF0000102A261A2694FF4806142F00402A26186
:100B000018615A68680822F0F00242F020025A6028
:100B10005A6822F4706242F400625A601961A36953
:100B200043F48043A36104F0A7FC1DA3D3E9002391
:100B300004F066FB064628460F4604F09DFC02467C
:100B40000B463046394604F037FE04F01DFF41F2F3
:100B5000A105174B002280B2082118819A821A82BF
:100B600099816269134942F0010262619A89A4F590
:100B7000574492B242F004029A819A8A0E4892B285
:100B800042F04002FC3C20269A824E608C60C86095
:100B90000D609A8992B242F400529A81F8BD00BF6A
:100BA00000000000882A9141001002400008014026
:100BB0000038014058000240E000002040F0BF60D3
:100BC000024B40F40030D860704700BF00ED00E0F9
:100BD000C3785BB9037801215A09164803F01F0353
:100BE000203201FA03F340F82230704730B4124B40
:100BF0008278D9684478C9430F23C1F30221C1F137
:100C00000405CB40AC401340027823431B0102F1A2
:100C10006042DBB202F5614282F8003303780122C0
:100C200003F01F0003495B09824041F8232030BCD8
:100C3000704700BF00E100E000ED00E021F06041FE
:100C400021F07F01014B08439860704700ED00E000
:100C5000044A136919B923EA000010617047184368
:100C60001061704700ED00E0044A042813680CBFCF
:100C700043F0040323F004031360704710E000E026
:100C800008B5174B984212D0164B98421BD0164B02
:100C9000984200D008BD01214FF4004002F09EFBB5
:100CA000BDE8084000214FF4004002F097BB01214D
:100CB0004FF4007002F092FBBDE8084000214FF4B1
:100CC000007002F08BBB01214FF4806002F086FBC4
:100CD000BDE8084000214FF4806002F07FBB00BFF8
:100CE0000024014000280140003C014042680B689C
:100CF00022F4702230B422F480720C79134343EA58
:100D0000042343608568CC688A68094B22432B40E2
:100D10004C79134343EA440383600A7CC36A013A73
:100D2000D2B223F4700343EA0253C36230BC70476B
:100D3000FDF7F1FF00230122027403600371437188
:100D40008360C360704700BF836819B923F0010353
:100D50008360704743F0010383607047836819B96B
:100D600023F480738360704743F48073836070471B
:100D7000C9B243681AB923EA0101416070471943B7
:100D800041607047836843F008038360704700BF89
:100D90008068C0F3C0007047836843F00403836039
:100DA000704700BF8068C0F380007047836819B93E
:100DB00023F4A0038360704743F4A003836070476B
:100DC0008068C0F3805070474368013923F4604362
:100DD00043EA413343607047436819B923F4006321
:100DE0004360704743F4006343607047092970B45F
:100DF0001DD9A1F10A0606EB4606C5680724B440D2
:100E0000B34025EA04042343062AC3601BD90C2AF5
:100E100027D90D3A02EB8202C36A1F24944001FADB
:100E200002F223EA04010A43C26270BC704701EB7C
:100E3000410605690724B440B34025EA040423436E
:100E4000062A0361E3D8013A02EB8202436B1F24B6
:100E5000944001FA02F223EA04010A43426370BC9F
:100E60007047073A02EB8202036B1F24944001FA99
:100E700002F223EA04010A43026370BC704700BF18
:100E8000836819B923F480138360704743F4801397
:100E900083607047C06C80B2704700BF014B186818
:100EA000704700BF4C240140436819B923F48063A4
:100EB0004360704743F4806343607047436819B9E7
:100EC00023F480534360704743F48053436070477A
:100ED000836823F4E043194381607047836819B93C
:100EE00023F400438360704743F4004383607047FA
:100EF000836819B923F402138360704743F4021323
:100F0000836070478068C0F340507047092970B40F
:100F10001BD801EB410605690724B440B34025EA1C
:100F2000040423430361836B0232C3F30154121B95
:100F3000D2B202EB82021F24944023EA040301FA96
:100F400002F21343836370BC7047A1F10A0606EBFB
:100F50004606C5680724B440B34025EA0404234389
:100F6000C360E0E7836B013923F4401343EA015384
:100F70008363704782B0002301930190019B194461
:100F80000191019B1A6002B0704700BF82B000233C
:100F900001930190019B283319440191019B18682A
:100FA00080B202B0704700BF436823F4400323F4CB
:100FB000007319434160704741628262704700BF0D
:100FC000436823F01F03194341607047054A936843
:100FD00018B923F400039360704743F4000393604F
:100FE000704700BF002401400368194214BF01206C
:100FF00000207047C9430160704700BF4368006824
:1010000010EA112004D0C9B2194214BF01200020F7
:10101000704700BF6FEA11210160704708B50120D9
:1010200002F0F8F9BDE80840002002F0F3B900BF73
:10103000014B1860704700BF04860D42014B1860D9
:10104000704700BF00860D42014B1860704700BF1B
:1010500088860D42044A938D23F460731B041B0C95
:1010600018439085704700BF006C0040044A938D80
:1010700023F07F031B041B0C18439085704700BFAF
:10108000006C0040054B82B0002201920193019B4D
:1010900018440190019B196002B07047006C004039
:1010A000064B82B0002201920193019B18440190EB
:1010B000019B188880B202B0704700BF006C0040EE
:1010C000014B1868C0B27047A0860D42034A938E48
:1010D0009BB243F001039386704700BF006C004051
:1010E000014B1868C0B27047A4860D42034A938E24
:1010F0009BB243F002039386704700BF006C004030
:1011000008B50D4B012198420AD04FF0806002F0E3
:1011100073F9BDE8084000214FF0806002F06CB91F
:101120004FF0007002F068F9BDE8084000214FF070
:10113000007002F061B900BF00640040036823F052
:1011400002030360036843F0010303604368DB07A5
:1011500007D44FF6FF7301E0013B02D04268D2078B
:10116000FAD5436813F001035BD010B48B79012BDF
:1011700003680CBF43F0800323F080030360CB7946
:10118000012B03680CBF43F0400323F040030360CE
:101190000B7A012B03680CBF43F0200323F02003DC
:1011A00003604B7A012B03680CBF43F0100323F05C
:1011B000100303608B7A012B03680CBF43F0080314
:1011C00023F008030360CB7A012B03680CBF43F0C4
:1011D000040323F004030360CA788C780B791206A9
:1011E00042EA84724C79098842EA034343EA045391
:1011F0004A1E1343C361036823F00103036043687D
:10120000D90707D54FF6FF7301E0013B02D04268D2
:10121000D207FAD4406810BC00F0010080F0010051
:1012200070471846704700BF837A01229A40F0B495
:10123000D443384BD3F8001241F00101C3F8001237
:10124000D3F81C122140C3F81C12017BB1B9D3F8AA
:101250000C5231492540C3F80C52857AC78846881C
:10126000483546EA074643F83560857A868803881C
:10127000ED00294443EA06434B60017B012931D04C
:10128000C37A24490BBBD1F804322340C1F804329D
:10129000038933B91F49D1F814321C40C1F81442F4
:1012A0000389012B17D0437B012B05D11949D1F8B4
:1012B0001C321A43C1F81C22164AD2F8003223F01D
:1012C0000103C2F80032F0BC7047D1F80432134376
:1012D000C1F80432DCE70F49D1F814321343C1F8E6
:1012E0001432E0E70B490C4BD1F80C521543C1F80E
:1012F0000C52857A07884688483546EA074641F801
:101300003560857A8688C188ED002B4441EA064124
:101310005960B5E70064004040660040002310B407
:101320000221032401220471417102808371C3717F
:10133000037243728372C3728370C37010BC7047B0
:101340000D4BD3F8002242F00102C3F80022D3F87B
:10135000002222F47C5222F00E02C3F80022D3F8BD
:10136000002242EA0020C3F80002D3F8002222F053
:101370000102C3F80022704700640040036819B9F5
:1013800023F480330360704743F480330360704775
:101390000368A9B923F080030360D0F8843123F4F3
:1013A0008073C0F88431D0F8943123F48073C0F88E
:1013B0009431D0F8A43123F48073C0F8A43170477D
:1013C00043F080030360D0F8843143F48073C0F8A5
:1013D0008431D0F8943143F48073C0F89431D0F85C
:1013E000A43143F48073C0F8A4317047F0B483682B
:1013F0005C0105D483681A0144D501231C4601E031
:1014000000231C461D014319D3F8802102F001027C
:10141000C3F880210A7A5AB34E68D3F8807142EA41
:10142000C6024E7A3A433243C3F880218A7A054491
:1014300002F00F028A72D3F8842122F00F02C3F85F
:101440008421D3F88421887A0243C3F88421D1F817
:101450000B202046C5F88821D1F80F20C5F88C2133
:10146000D3F8802142F00102C3F88021F0BC70471C
:101470000F684A7AD3F8806142EA47523243C3F890
:101480008021D3E78368DB0002D502231C46B9E73D
:1014900004242046F0BC704701291AD015D3022934
:1014A0000FD182680D4B13400D4A934206D007D9E5
:1014B0000C4A934202D0094A934204D1012070475A
:1014C0000BB902207047002070478268044B13401C
:1014D000EAE78268034B1340E6E700BF0000031011
:1014E000030000040003000801290DD007D30229DE
:1014F00004D1836843F400038360704770478368B6
:1015000043F0800383607047836843F40043836043
:10151000704700BF30B40B01C518D5F8B04104F0D6
:101520000404E4B21472BCBBD5F8B041640D14607D
:10153000D5F8B041034404F002045472D5F8B44124
:1015400004F00F049472D5F8B441240AD474D3F88B
:10155000B841D472D3F8B841240A1473D3F8B8410F
:10156000240C5473D3F8B841240E9473D3F8BC41BF
:10157000D473D3F8BC41240A1474D3F8BC41240CAE
:101580005474D3F8BC311B0E937451B130BC036951
:1015900043F0200303617047D5F8B041E40854607C
:1015A000C6E7C36830BC43F02003C360704700BF88
:1015B00021B1036943F0200303617047C36843F01E
:1015C0002003C360704700BF31B1012906BF006925
:1015D00000F0030000207047C06800F0030070476F
:1015E000E9B9036823F0030343F001030360436890
:1015F00003F00303012B09D04FF6FF7201E0013A1B
:1016000004D0436803F00303012BF8D1406800F0D5
:101610000300A0F10100B0FA80F0400970470129F1
:1016200003D0022917D000207047036823F003037A
:1016300003604368990707D04FF6FF7301E0013B51
:1016400002D042689207FAD1436813F0030F0CBF2F
:10165000012000207047036823F0030343F00203D6
:101660000360436803F00303022B09D04FF6FF72B7
:1016700001E0013A04D0436803F00303022BF8D1E0
:10168000406800F00300A0F10200B0FA80F04009C9
:10169000704700BF036823F0030343F002030360B5
:1016A000406800F00300A0F10200B0FA80F04009A9
:1016B000704700BF036823F0020303604368990783
:1016C00007D54FF6FF7301E0013B02D04268920755
:1016D000FAD4406880F00200C0F34000704700BFB9
:1016E000806900F0700070478069000E704700BF8D
:1016F0008069C0F30740704743691AB923EA0101C2
:101700004161704719434161704700BF11F4700F88
:1017100007D08369C3F313030B4214BF01200020D9
:101720007047CB0107D54368C3F313030B4214BFC3
:101730000120002070470A0107D58368C3F3130313
:101740000B4214BF0120002070478B014CBFC368BF
:101750000369C3F313030B4214BF01200020704739
:101760000A4B99420CD08A01C1F3130306D44A01F3
:1017700009D40A014CBF836043607047C36070475F
:101780000023836170470361704700BF7000F03031
:1017900043690B401ED0402967D00ED9B1F5006FC8
:1017A0005CD019D8B1F5007F50D0B1F5806F37D03B
:1017B000B1F5807F27D00020704704294AD018D97E
:1017C00010293DD0202937D00829F4D1C068C0F3B2
:1017D0000010704718467047B1F5803F24D0B1F52E
:1017E000003F25D0B1F5004FE5D14068C0F380003F
:1017F000704701290BD00229DDD1C06810F0030029
:1018000018BF01207047806900F0010070478068B0
:1018100000F0013020F08070003018BF01207047C8
:101820008069C0F3800070474068C0F3C000704713
:101830004068C0F3001070470069C0F3C0007047F3
:10184000006910F0030018BF012070478069C0F3E1
:1018500040007047C068C0F3C0007047836913F050
:10186000700F14BF0120002070470069C0F3001002
:10187000704700BFB1F5807F1ED00DD9B1F5006F64
:1018800024D013D9B1F5803F25D0B1F5003F2ED03B
:10189000B1F5004F1AD0704708291FD00FD9202961
:1018A00022D0402927D1102303617047B1F5007F72
:1018B00002D0B1F5806F1DD1042343607047012928
:1018C0000FD0042918D10823C360704700220423D5
:1018D0008261436070470823436070471023C360F0
:1018E0007047064B836070470823036170471023DD
:1018F0004360704770477047704700BF01010100A7
:1019000008B501214FF0804001F076FDBDE80840A8
:1019100000214FF0804001F06FBD00BF10B40649B8
:10192000048842880B68224303F0F30313439BB2FD
:101930000B6010BC704700BF00780040034B18607C
:1019400018B9034A1368DB07FCD4704700000F4244
:1019500000780040014B1860704700BF04000F4240
:10196000014B5860704700BF00780040014B986001
:10197000704700BF00780040014B5861704700BFBE
:1019800000780040014B9869C0B270470078004071
:10199000014B01221A60704700020F42014B186090
:1019A000704700BF04020F42020F14BF054A064AE7
:1019B00020F07F43126818BF1B0C134214BF012094
:1019C000002070470C78004010780040C043054A62
:1019D00020F003001369116903F002031843084063
:1019E0001061704700780040034A1168136918407D
:1019F00018BFC1F34000704700780040C043054A5B
:101A000020F003001369116903F002031843084032
:101A10001061704700780040014B01229A607047C6
:101A200000300240014B18601868704700300240D7
:101A300039B1054A00EB810150F8043B884213603C
:101A4000FAD1014B1868704700300240014B18680A
:101A5000704700BF00300240014B1871704700BF53
:101A600000300240014B1879704700BF003002403F
:101A700008B501214FF0005001F0BEFCBDE8084060
:101A800000214FF0005001F0B7BC00BF40F6FE73DC
:101A900070B44C680D688A68074E2543CC6845EAE7
:101AA000020132682143834022EA030301FA00F075
:101AB0001843306070BC704700740040002303601E
:101AC00043608360C360704741B9084901220B68D5
:101AD00002FA00F023EA000008607047034901227F
:101AE0000B6802FA00F01843086070470074004069
:101AF00049B909494FF480520B6802FA00F023EA11
:101B000000000860704704494FF480520B6802FAE5
:101B100000F01843086070470074004049B9094953
:101B200000094B68012202FA00F023EA0000486035
:101B30007047044900094B68012202FA00F018437B
:101B40004860704700740040054A536818B923F094
:101B500003035360704743F003035360704700BFB3
:101B600000740040054B814018681AB920EA010151
:101B70001960704701431960704700BF007400404E
:101B8000064B82B0002201920193019B0833184456
:101B90000190019B196002B0704700BF00740040C3
:101BA000064B82B0002201920193019B143318442A
:101BB0000190019B196002B0704700BF00740040A3
:101BC0000828044B0CBF42EA012242EA0142C250FB
:101BD000704700BF20740040074B82B00022019282
:101BE0000193019B2C3303EB90000190019B18683B
:101BF00080B202B0704700BF00740040014B18680B
:101C0000000C7047002004E0024B1868C0F30B0082
:101C1000704700BF002004E029B9054A536823EA51
:101C2000000050607047024B5A681043586070477C
:101C3000002004E04FF6FE7203683A491A408842D9
:101C40004FF000030260036043608360C36027D0ED
:101C5000354B98422AD0354B98422DD0344B984280
:101C600030D0344B984239D0334B98423CD0334B30
:101C700098420FD0324B98423CD0324B98423FD0E2
:101C8000314B984242D0314B984245D0304B98422C
:101C90001ED070472F4A536843F0706353607047FB
:101CA0002C4A536843F00F0353607047294A536826
:101CB00043F0F00353607047264A536843F470635F
:101CC00053607047234A536843F47043536070472E
:101CD000214A536843F470235360DAE71D4A53687E
:101CE00043F47023536070471A4A536843F47003F7
:101CF00053607047184A536843F00F0353607047AE
:101D0000154A536843F0F00353607047124A536812
:101D100043F47063536070470F4A536843F4704351
:101D200053607047080002401C000240300002402F
:101D300044000240580002406C0002408000024013
:101D4000080402401C0402403004024044040240E3
:101D50005804024000000240000402400A6A30B405
:101D60008D680B692A434D6913438A691D43CB690A
:101D700045EA02044D6A026823438C6A1D4322F43B
:101D8000FF432C4323F0700323430360CB6830BC34
:101D900043600B6883604B68C36070470023036037
:101DA00043608360C360036143618361C361036215
:101DB00043628362704700BF29B94FF6FE73026821
:101DC000134003607047036843F0010303607047EA
:101DD00003681AB923EA01010160704719430160E1
:101DE000704700BF41607047406880B2704700BFD5
:101DF000C3004CBF034B044B1B68034214BF0120BC
:101E0000002070470004024000000240FFF7F0BFCE
:101E1000C3004CBF014B024B5860704700040240A6
:101E200000000240FFF7F4BF044B054900221A608E
:101E30005A609A60DA605961704700BF000401403F
:101E4000FFFF0F008379002B2BD010B41F4B0168CC
:101E50001A6822EA01021A605A68016822EA01023D
:101E60005A600279016802F1804202F582321468F8
:101E7000214311609A68016822EA01029A60DA68D7
:101E8000016822EA0102DA604279102A14D002F1D4
:101E9000804303F58233026819680A431A6010BC54
:101EA00070470379016803F1804303F582331A68B0
:101EB00022EA01021A607047996802680A439A6030
:101EC0000268D9680A43DA6010BC70470004014018
:101ED00000230C224271036003718371704700BFBD
:101EE000024A136918431061704700BF00040140A3
:101EF000034B5B69034214BF01200020704700BF01
:101F000000040140014B5861704700BF00040140CC
:101F1000054B1A685B69034004D0024214BF0120DC
:101F2000002070471846704700040140014B58617B
:101F3000704700BF00040140034A136803F03803F0
:101F400018431060704700BF00200240044B1A681D
:101F500022F008021A601A6810431860704700BF28
:101F600000200240044B1A6822F010021A601A681E
:101F700010431860704700BF00200240024B034925
:101F8000034A59605A6070470020024023016745A8
:101F9000AB89EFCDFFF7F2BF024A136943F080032C
:101FA0001361704700200240FFF7F6BF014BD8696C
:101FB0008008704700200240014B186A704700BF3C
:101FC00000200240024BD869C0F34000704700BFB8
:101FD00000200240024B1868C0F34010704700BF59
:101FE0000020024029B9054A136923EA0000106164
:101FF0007047024B1A691043186170470020024075
:102000000128064B05D0DB68184214BF01200020D0
:102010007047D86900F00100704700BF00200240FF
:10202000014BD860704700BF00200240084BDA68BF
:10203000D1070BD4DA68520701D502207047DB685C
:1020400013F0100F14BF03200420704701207047C5
:1020500000200240084BDA68D1070BD4DA68520737
:1020600001D502207047DB6813F0100F14BF032066
:1020700004207047012070470020024010B504463C
:10208000FFF7E8FF012806D13CB1FFF7E3FF012885
:1020900004F1FF34F8D004B110BD052010BD00BF1D
:1020A00010B54FF43020FFF7E9FF042800D010BD31
:1020B000094C4FF43020236943F004032361236962
:1020C00043F040032361FFF7D9FF41F6FB73226918
:1020D0001340236110BD00BF00200240FFF7E0BFA6
:1020E000F8B5124C124E134BA6600546A3604FF490
:1020F00000500F461646FFF7C1FF042800D0F8BD78
:10210000236945F0F8020C493A43324343F0100387
:1021100023614FF400504A80FFF7B0FF0528EED04E
:1021200041F6EF73226913402361F8BD002002409D
:1021300023016745AB89EFCD00F8FF1F38B5054691
:102140004FF43020FFF79AFF042800D038BD1C4C14
:102150001C4A1D4BA260A36023694FF4302043F05A
:1021600020032361236943F040032361FFF786FFC7
:10217000042807D00528E9D041F6DF73226913400F
:10218000236138BD41F6DF7322691340236123695F
:1021900043F0100323610D4B75B9A5221A804FF44B
:1021A0003020FFF76BFF0528D0D041F6EF73044ACB
:1021B00011690B40136138BD00221A80EFE700BFA0
:1021C0000020024023016745AB89EFCD00F8FF1FD7
:1021D00038B505464FF40050FFF750FF0428044679
:1021E00001D0204638BDED43204B2149214A99605A
:1021F0009A601A69E9B242F01002FF291A6112D0FE
:102200001D4B4FF400501981FFF738FF04280AD006
:1022100005280446E5D041F6EF73144A20461169BB
:102220000B40136138BDC5F30723FF2B07D0124ABB
:102230004FF400505381FFF721FF0428E8D1C5F384
:102240000743FF2B07D00C4A4FF400509381FFF750
:1022500015FF0428DCD1280EFF28DCD0064B80B205
:10226000D8814FF40050FFF709FFD1E7002002406A
:1022700023016745AB89EFCD00F8FF1F70B5064617
:102280004FF400500C46FFF7F9FE042800D070BD53
:102290000B4D0C4A0C4BAA60AB602B69A4B243F007
:1022A00010032B614FF400503480FFF7E7FE052840
:1022B000EDD041F6EF732A6913402B6170BD00BF6A
:1022C0000020024023016745AB89EFCD70B504467D
:1022D0004FF400500D46FFF7D1FE042800D070BD2A
:1022E000074E4FF40050336943F0010333612580FA
:1022F000FFF7C4FE41F6FE7332691340336170BDCF
:102300000020024070B5002382B005464FF4005013
:102310000C460193FFF7B2FE042801D002B070BD55
:10232000114EA3B232694FF4005042F00102326103
:102330002B80FFF7A3FE042806D041F6FE73326916
:102340001340336102B070BD02350195019B240C2E
:102350001C804FF40050FFF791FE41F6FE73326986
:1023600013403361DAE700BF0020024038B51D4C4E
:102370004FF43020E36913F0020F0CBFA5250025B0
:10238000FFF77CFE042800D038BD174A174BA26027
:10239000A36023694FF4302043F0200323612369B5
:1023A00043F040032361FFF769FE042807D00528A6
:1023B000EAD041F6EF7322691340236138BD41F63C
:1023C000DF7321690A4A0B40236123694FF40050EF
:1023D00043F0100323611580FFF750FE0528E8D174
:1023E000D2E700BF0020024023016745AB89EFCD53
:1023F00000F8FF1F38B505464FF43020FFF73EFECA
:10240000042800D038BD0A4C4FF43020236943F033
:10241000020323616561236943F040032361FFF7F1
:102420002DFE41F6FD7322691340236138BD00BFC4
:1024300000200240FFF722BE70B143F2D2024FF0FB
:10244000204343F82020800000F120406FF07043CB
:102450004360C0F80431704743F2DB024FF0204381
:102460001A60F0E710280CBF054B064B4FF0FC320A
:1024700018204021186059609A60DA60704700BFE8
:10248000600000A0800000A0054B4FF0FC32182037
:102490000021186059609A60DA601A61704700BFC5
:1024A000A00000A070B4011D0EC90A4301691343C6
:1024B0004269194383690A43C1691343026A194394
:1024C000436A0A43816A1343C26A1943036B0A438E
:1024D000016813434FF0204242F821308368082BF3
:1024E00024D0456B04682968AB696E680B43AA6801
:1024F00043EA0611EE6841EA02222B6942EA0642EB
:10250000696942EA035343EA016301344FF0204210
:1025100042F82430C36AB3F5804F0FD00268124BE3
:102520006FF0704143F8221070BC704703689B0045
:1025300013441A6842F040021A60D2E7846B0068C4
:10254000A369216862681943A568236941EA0212F8
:1025500042EA0522616942EA0353034A43EA0163FE
:1025600042F8203070BC7047040100A0F0B5446808
:102570008368C6682343C76943F008040369264398
:10258000056AB968334346697C68AA6843EA46230A
:10259000D0F818E006680904386841EA04216C683C
:1025A000120401432868FF68ED68102E42EA0424F3
:1025B00044EA00020CBF0648064843EA4E3341EAAB
:1025C000076142EA056203608160C260F0BD00BF3E
:1025D000600000A0800000A030B4036841688468F7
:1025E00043F0100242EA4123144943EA44330B60AA
:1025F000C468A26865681304226843EA0523E46896
:10260000134343EA04638B600469A268656813049A
:10261000226843EA0523E468134343EA0463CB607A
:102620004069826844681304026843EA0423C0686E
:10263000134343EA00630B6130BC7047A00000A065
:10264000416B70B400230F2202264FF480554FF4E3
:10265000005446604562846203608360C360036126
:1026600043618361C3610362C36203630A60446BB5
:10267000FF216260446BA160446BE260446B2261A5
:10268000446B6261446BA361846B2260846B626003
:10269000846BA160816BCA60816B0A61816B4A6146
:1026A000826B936170BC7047C16910B4FC23002237
:1026B0001024046042608260C260026142618261F3
:1026C0000B60C2695360C2699360C269D360026AD9
:1026D0001360026A5360026A9360026AD36010BC9E
:1026E000704700BFC168FC23002202604260826024
:1026F0000B60C2685360C2689360C268D3600269AD
:10270000136002695360026993600269D360426991
:10271000136042695360426993604269D3607047B5
:10272000800000F1204021B90268044B134003608F
:102730007047036843F0010303607047FEFF0F001A
:1027400041B110280CBF084A084A136843F004033B
:102750001360704710280CBF034A044A044B1168E9
:102760000B401360704700BF600000A0800000A015
:10277000FBFF0F00054A20B91168054B0B401360A1
:102780007047136843F0040313607047A00000A073
:10279000FBFF0F0041B110280CBF084A084A13681C
:1027A00043F040031360704710280CBF034A044AEB
:1027B000044B11680B401360704700BF600000A01D
:1027C000800000A0BFFF0F0010280CBF014B024B80
:1027D00058697047600000A0800000A052B1102826
:1027E0001AD0B0F5807F0CBF0E4A0F4A53681943C8
:1027F00051607047102809D0B0F5807F0CBF094A9E
:10280000094A536823EA010151607047074A536837
:1028100023EA010151607047044A5368194351602B
:10282000704700BF800000A0A00000A0600000A0D2
:1028300010280AD0B0F5807F0CBF054B054B5B68B4
:102840000B4214BF012000207047034B5B68F7E781
:10285000800000A0A00000A0600000A0102809D007
:10286000B0F5807F0CBF064A064A536823EA01018F
:1028700051607047044A536823EA01015160704770
:10288000800000A0A00000A0600000A010280ED0D2
:10289000B0F5807F0CBF074B074B5B6813EA010064
:1028A00004D013EAD10314BF012000207047034B6A
:1028B0005B68F3E7800000A0A00000A0600000A01B
:1028C000102809D0B0F5807F0CBF064A064A53682D
:1028D00023EAD10151607047044A536823EAD101C9
:1028E00051607047800000A0A00000A0600000A020
:1028F00008B52F4B98421ED02E4B984225D02E4B18
:1029000098422CD02D4B984233D02D4B98423AD040
:102910002C4B984241D02C4B984200D008BD01214D
:102920004FF4807000F05AFDBDE8084000214FF4DC
:10293000807000F053BD0121042000F04FFDBDE880
:1029400008400021042000F049BD0121082000F0CA
:1029500045FDBDE808400021082000F03FBD0121F1
:10296000102000F03BFDBDE808400021102000F0E1
:1029700035BD0121202000F031FDBDE808400021D7
:10298000202000F02BBD0121402000F027FDBDE8F4
:1029900008400021402000F021BD0121802000F0EE
:1029A0001DFDBDE808400021802000F017BD00BFDC
:1029B00000080140000C01400010014000140140DB
:1029C00000180140001C01400020014008B5012111
:1029D000084600F003FDBDE808400021012000F09A
:1029E000FDBC00BFCB782DE9F04103F00F06DB06FC
:1029F00048BF8B780C8848BF1E4314F0FF0F26D0C9
:102A00000568002301274FF00F0803E00133082B6E
:102A10001BD00C8807FA03F232EA0404F6D19C00BA
:102A200091F803E008FA04FC25EA0C0506FA04F420
:102A3000BEF1280F45EA040538D0BEF1480F03F176
:102A4000010308BF0261082BE3D105600C88FF2C4D
:102A50002AD94568002301274FF00F0C03E001330A
:102A6000082B20D00C8803F1080207FA02F232EAA0
:102A70000404F4D191F803E09C00BEF1280F04BFD8
:102A8000426191F803E00CFA04F8BEF1480F03F13B
:102A9000010325EA080506FA04F408BF0261082BC1
:102AA00045EA0405DED14560BDE8F0814261ADE74D
:102AB0004FF6FF710222042301808270C3707047B9
:102AC0008368194214BF012000207047806880B2DB
:102AD000704700BFC368194214BF0120002070472F
:102AE000C06880B2704700BF0161704741617047A4
:102AF0000AB9416170470161704700BFC16070470A
:102B000041F48033836181618361836983697047A4
:102B10004FF6807310B4044A14682340194341EA05
:102B20000010106010BC704700000140014B18609D
:102B3000704700BF1C00204230B40028184B00F43E
:102B40004012B4BFDB695B68B2F5401F84B21ED08F
:102B5000C20213D5C0F303450322AA4023EA0203AD
:102B600043F0706319B1420D1201944023430C4AA3
:102B70000028B4BFD361536030BC7047420D1201CE
:102B800004FA02F223EA020343F07063EAE7044D19
:102B900023F070636A6822F070626A60E2E700BF47
:102BA0000000014010B401F0FC0303F1804303F581
:102BB000803301F003019C6889000F228A4024EAD7
:102BC00002029A609A6888401043986010BC70476F
:102BD000014B1860704700BFDC00204208B50D4B68
:102BE000012198420AD04FF4800000F005FCBDE8B6
:102BF000084000214FF4800000F0FEBB4FF40010AD
:102C000000F0FAFBBDE8084000214FF4001000F08E
:102C1000F3BB00BF00540040F0B504460D4687B03A
:102C2000868801A800F062FB314F039B26F03F0627
:102C3000A7FB03273604BF0C360CB8B20643A680A8
:102C400021882C4E21F001010904090C21802A68F9
:102C5000B24223D85200B3FBF2F39BB2032B00F134
:102C6000010098BF04232084A38323889BB243F0F0
:102C7000010323802388A98823F481636A8923F0D0
:102C800002031B040A431B0C13439BB22380AA8933
:102C90002B8913439BB2238107B0F0BD4BF6FF7124
:102CA000E88888421DD002EB820202EB8202B3FB6D
:102CB000F2F39BB243F48043C3F30B020AB943F02F
:102CC00001034FF4967202FB07F70B4AF91782FBD8
:102CD0000702C1EBA212013292B243F400432284F4
:102CE000C2E702EB4200B3FBF0F39BB2E4E700BFA4
:102CF00083DE1B43A0860100D34D621010B44BF657
:102D0000FF7141F2883400234FF480420460C18097
:102D1000828183800381438110BC7047038829B975
:102D200023F001031B041B0C038070479BB243F08C
:102D300001030380704700BF838829B923F400632F
:102D40001B041B0C838070479BB243F40063838099
:102D5000704700BF838829B923F480531B041B0CE0
:102D6000838070479BB243F480538380704700BFD9
:102D7000038829B923F480731B041B0C038070475C
:102D80009BB243F480730380704700BF038829B966
:102D900023F400731B041B0C038070479BB243F4A5
:102DA00000730380704700BF038829B923F4806350
:102DB0001B041B0C038070479BB243F480630380A9
:102DC000704700BF838901F0FE019BB223F0FE0330
:102DD00019438181704700BF838929B923F001031A
:102DE0001B041B0C838170479BB243F0010383815A
:102DF000704700BF038829B923F040031B041B0C54
:102E0000038070479BB243F040030380704700BFCC
:102E100083889BB21AB923EA010181807047194364
:102E20008180704701827047008AC0B2704700BF3E
:102E300022B901F0FE0189B20182704741F001011F
:102E400089B20182704700BF82B0002301930190D4
:102E5000019B19440191019B188880B202B0704710
:102E6000038819B9C3F30E03038070476FEA434325
:102E70006FEA53439BB20380704700BFB1F5005F18
:102E8000038805D023F400531B041B0C03807047F8
:102E90009BB243F400530380704700BF038829B9F5
:102EA00023F480531B041B0C038070479BB243F434
:102EB00080530380704700BFB1F5006F038805D0D1
:102EC00023F400631B041B0C038070479BB243F484
:102ED00000630380704700BFFFF7EEBF038829B986
:102EE00023F020031B041B0C038070479BB243F0AC
:102EF00020030380704700BF008BC0F3072070479A
:102F0000038829B923F010031B041B0C03807047AE
:102F10009BB243F010030380704700BF038829B1C0
:102F200023F080031B041B0C038070479BB243F00B
:102F300080030380704700BFB1F5804F838B05D0BD
:102F400023F480431B041B0C838370479BB243F420
:102F500080438383704700BF838A008B9BB243EA20
:102F6000004321F07F4203EA0200401AB0FA80F0E9
:102F700040097047838A028B98B240EA024020F0F1
:102F80007F40704782B000230A0F009301930190A5
:102F90000092009B21F07F4153B1019B14330193B8
:102FA000019B1B68194214BF0120002002B070472A
:102FB000019B090C18330193F2E700BFC94389B2A2
:102FC000818270478388808A9BB280B2084006D095
:102FD00003F4E06313EA114314BF0120002070479B
:102FE000C94389B281827047014B1860704700BFA6
:102FF00000300040014B5860704700BF0030004077
:10300000014B9860704700BF003000404AF6AA228A
:10301000014B1A60704700BF003000404CF6CC42B4
:10302000014B1A60704700BF00300040034BDB6863
:10303000184214BF01200020704700BF003000403C
:1030400008B501214FF0805000F0D6F9BDE80840E6
:1030500000214FF0805000F0CFB900BF014B186045
:10306000704700BF20000E42014B1860704700BF40
:1030700010000E42034A136823F0E0031843106067
:10308000704700BF00700040014B1860704700BFE0
:10309000A0000E4210B40C4C0C4A2368012923F006
:1030A000030340EA03002060136943F00403136143
:1030B00007D020BF054A136923F00403136110BC35
:1030C000704730BFF6E700BF0070004000ED00E041
:1030D000074B08491A6842F004021A601A6842F065
:1030E00002021A600B6943F004030B6130BF7047A2
:1030F0000070004000ED00E0034B5B68034214BF2A
:1031000001200020704700BF00700040024A136891
:1031100043EA800010607047007000400D4B0E4A7B
:1031200019684FF41F0041F00101196059680A4005
:103130005A601A6822F0847222F480321A601A6887
:1031400022F480221A605A6822F4FE025A609860C3
:10315000704700BF001002400000FFF80C4BB0F5B4
:10316000803F1A6822F480321A601A6822F48022A2
:103170001A6008D0B0F5802F04D11A6842F4A0225A
:103180001A60704770471A6842F480321A607047BC
:103190000010024082B000230A4A019302E0B3F516
:1031A000A06F08D0136813F4003F019B03F10103E3
:1031B0000193019BF3D0034B1868C0F3404002B069
:1031C000704700BF00100240034A136823F0F80361
:1031D00043EAC0001060704700100240014B1860C5
:1031E000704700BF00004242034A536823F47C1337
:1031F000194308435060704700100240014B1860AB
:10320000704700BF60004242034A536823F0030343
:1032100018435060704700BF00100240024B5868CE
:1032200000F00C00704700BF00100240034A5368D2
:1032300023F0F00318435060704700BF00100240B5
:10324000034A536823F4E06318435060704700BF9B
:1032500000100240034A536823F4605343EAC0005D
:10326000506070470010024029B9054A137823EADC
:10327000000010707047024B1A78104318707047A6
:1032800009100240014B1860704700BFD80042424D
:10329000034A536823F4404318435060704700BF0B
:1032A00000100240064B002201281A701A7005D047
:1032B000042802D105221A707047704718707047B1
:1032C00020100240014B1860704700BF800442424A
:1032D000024A136A18431062704700BF0010024090
:1032E000014B1860704700BF3C04424230B4214A91
:1032F000536803F00C03042B06D0082B25D01BB118
:103300001D4A1346026001E01B4B0360194A1B4C27
:1033100051681B4DC1F30311615CCB4043605168A0
:10332000C1F30221615C23FA01F181605168C1F3AC
:10333000C221615CCB40C3605268C2F38132AA5C97
:1033400030BCB3FBF2F30361704753685168C3F3B9
:103350008343C90303F1020307D55268920304D4DF
:10336000054A02FB03F30360D0E7064A02FB03F3BE
:103370000360CBE70010024000127A000800002032
:103380000400002000093D0029B9054A536923EAD9
:10339000000050617047024B5A69104358617047F2
:1033A0000010024029B9054A936923EA00009061A0
:1033B0007047024B9A6910439861704700100240B1
:1033C00029B9054AD36923EA0000D0617047024B4E
:1033D000DA691043D86170470010024029B9054AE4
:1033E000D36823EA0000D0607047024BDA681043CC
:1033F000D86070470010024029B9054A136923EAD2
:10340000000010617047024B1A6910431861704741
:1034100000100240014B1860704700BF4004424258
:10342000014B1860704700BF4C004242014B1870BE
:10343000704700BF071002404309012B0BD0022B3D
:10344000094B00F01F000CBF1B6A5B6A23FA00F0F7
:1034500000F001007047044B00F01F001B6823FAC6
:1034600000F000F00100704700100240024A536A69
:1034700043F080735362704700100240034B9B6817
:10348000184214BF01200020704700BF0010024006
:10349000014B1870704700BF0A100240054A13889C
:1034A0009BB219B923EA00001080704718431080BE
:1034B000704700BF00280040034A93889BB243F046
:1034C00010039380704700BF00280040034A938890
:1034D00023F010031B041B0C93807047002800404E
:1034E000034A938B108B9BB243EA0040704700BFA6
:1034F00000280040084A010C938880B29BB243F038
:103500001003938011839083938823F010031B048E
:103510001B0C9380704700BF00280040084AC0F38E
:103520000341938880B29BB243F0100393801181D2
:103530009081938823F010031B041B0C9380704729
:1035400000280040084A010C938880B29BB243F0E7
:103550001003938011849084938823F010031B043C
:103560001B0C9380704700BF00280040044B188A52
:103570009B8A00F00F009BB243EA0040704700BFF7
:1035800000280040024A93889B06FCD5704700BF84
:103590000028004005490A468B8823F008031B04D5
:1035A0001B0C8B8093881B07FCD5704700280040BC
:1035B000034B9B88184214BF01200020704700BFB6
:1035C00000280040064B9A881B8892B2034005D021
:1035D0001040C0B2003018BF012070471846704735
:1035E00000280040034A93889BB223EA00009080A1
:1035F000704700BF00280040FFF7F4BF064B0749A3
:1036000000221A605A609A60DA605A629A62DA623C
:103610009963DA63704700BF00800140FF07C00074
:1036200030B44268094D8168C368114304686A6810
:103630000B4301691C4322F4FD432143027D23F027
:103640007F030B4313436B6030BC70470080014025
:1036500000230375036043608360C36003617047A8
:10366000014B1860704700BFA0003042044B1A683D
:1036700022F003021A601A6810431860704700BFF6
:1036800000800140024B186800F00300704700BF43
:103690000080014029B9054AD36B23EA0000D063BA
:1036A0007047024BDA6B1043D863704700800140CB
:1036B000014B1860704700BF8C05304230B40A4996
:1036C00003688B6044688368C568CA6823430069DF
:1036D00043EA050422F4FF6323F0070344EA0002EF
:1036E0001343CB6030BC704700800140002303606F
:1036F00043608360C3600361704700BF014B18697A
:10370000C0B2704700800140044B82B003440022E5
:1037100001920193019B186802B070471480014028
:1037200010B4094A036800F10801536243689362C8
:103730001AC940691943D36A2143014323F0F703AF
:103740000B43D36210BC70470080014000234FF050
:10375000FF3280E80C008360C360036143617047FF
:10376000014B186B704700BF00800140014BD3F83C
:103770008000704700800140014BC3F88000704713
:1037800000800140014B986C704700BF00800140F1
:10379000014B1860704700BFA0053042014B186014
:1037A000704700BFA4053042014B1860704700BF4E
:1037B000A8053042014B1860704700BFAC0530428D
:1037C000014B1860704700BFAC013042014B1860DC
:1037D000704700BFB001304200F00100024B80F0A2
:1037E00001001860704700BFB4013042014B1860FF
:1037F000704700BFB8013042014B9863704700BF6B
:1038000000800140034B5B6B034214BF012000208A
:10381000704700BF00800140FFF7F4BF014B986381
:10382000704700BF0080014008B5174B984212D086
:10383000164B98421BD0164B984200D008BD012170
:103840004FF40040FFF7D8FDBDE8084000214FF4D9
:103850000040FFF7D1BD01214FF48050FFF7BEFDBE
:10386000BDE8084000214FF48050FFF7B7BD0121AB
:103870004FF48040FFF7C0FDBDE8084000214FF441
:103880008040FFF7B9BD00BF003001400038004064
:10389000003C00404A8830B40C888B882243CC8896
:1038A0001A430B8922434C898D891A43224303888A
:1038B000CC892A43224303F4415313439BB2038030
:1038C000838B30BC23F400631B041B0C83830B8AA3
:1038D00003827047F0B5838B022223F47B6323F0CD
:1038E0000F031B041B0C838302848B68868B93421B
:1038F00087B005460C46B6B235D08B8801A8002BA0
:1039000014BF02270127FFF7F1FCE1880198B1F508
:10391000007F2AD07A01B0FBF2F2A36802EB8202A8
:103920005200B2FBF3F305339AB2154BA3FB02230B
:10393000DB085A08901E03F00103FD2894BF42EAF9
:1039400003230223194389B22984228863881643FA
:10395000A18846F40066A28933430B4313439BB20C
:10396000AB8307B0F0BDC988ECE7020A02EB820224
:10397000A3685200B2FBF3F305339AB2D5E700BF58
:10398000CDCCCCCC002307220282038043808380ED
:10399000C380038143818381C38170470023022256
:1039A0008260038043808380C3808381704700BF2F
:1039B000038829B923F040031B041B0C03807047C4
:1039C0009BB243F040030380704700BF838B29B94B
:1039D00023F480631B041B0C838370479BB243F466
:1039E00080638383704700BF0123090903FA01F153
:1039F000838889B29BB21AB923EA0101818070479A
:103A000019438180704700BF83889BB21AB923EAAB
:103A1000010181807047194381807047818170471F
:103A2000808980B2704700BF4FF6FF6399420388D8
:103A300004D09BB243F480730380704723F48073F7
:103A40001B041B0C03807047838829B923F00403EF
:103A50001B041B0C838070479BB243F004038380DC
:103A6000704700BF038823F400631B041B0C038012
:103A700003889BB219430180704700BF03889BB243
:103A800043F4805303807047038829B923F400531B
:103A90001B041B0C038070479BB243F4005303804C
:103AA000704700BF012914BF008B808A80B2704725
:103AB000008A80B2704700BFB1F5804F038805D0FF
:103AC00023F480431B041B0C038070479BB243F418
:103AD00080430380704700BF0389194214BF01204F
:103AE00000207047C94389B20181704710B48488AF
:103AF0000389012201F00F009BB202FA00F0184086
:103B000006D00909A4B28A40144214BF0120002043
:103B100010BC704701F00F01012303FA01F1C94302
:103B200089B20181704700BF70B4048C1A4E24F032
:103B300001042404240C0484048B058CA4B224F016
:103B4000F304224342EA0313B0429AB2ADB21AD050
:103B5000124B984217D0B0F1804F14D0A3F5983390
:103B6000984210D003F5806398420CD003F580632F
:103B7000984208D025F00A0545F001050D4302835F
:103B8000058470BC704725F0020545F001050D4322
:103B90000283058470BC7047002C01400034014052
:103BA00070B4048C1C4E24F010042404240C0484EF
:103BB000058B048C25F440752D052D0D45EA022258
:103BC00042EA0333B0429BB2A4B21AD0134A9042E5
:103BD00017D0B0F1804F14D0A2F59832904210D097
:103BE00002F5806290420CD002F58062904208D0CB
:103BF00024F0A00444F010042143038370BC01842A
:103C0000704724F0200444F0100444EA011189B202
:103C1000038370BC01847047002C014000340140D4
:103C200008B57C4B984250D0B0F1804F59D07A4BB8
:103C3000984260D0794B984267D0794B98426ED0C9
:103C4000784B984275D0784B98427CD0774B98420D
:103C500000F08380764B984200F08B80754B984241
:103C600000F09380744B984200F09B80734B984215
:103C700000F0A380724B984200F0A980714B9842EB
:103C800000F0AF80704B984200F0B7806F4B9842C5
:103C900003D06F4B98420CD008BD01214FF4003087
:103CA000FFF79CFBBDE8084000214FF40030FFF710
:103CB00095BB01214FF48020FFF790FBBDE8084041
:103CC00000214FF48020FFF789BB01214FF40060F1
:103CD000FFF784FBBDE8084000214FF40060FFF7C8
:103CE0007DBB01210846FFF787FBBDE808400021A6
:103CF0000120FFF781BB01210220FFF77DFBBDE81A
:103D0000084000210220FFF777BB01210420FFF7C4
:103D100073FBBDE8084000210420FFF76DBB0121C3
:103D20000820FFF769FBBDE8084000210820FFF7E5
:103D300063BB01211020FFF75FFBBDE808400021B5
:103D40001020FFF759BB01212020FFF755FBBDE8EC
:103D5000084000212020FFF74FBB01214FF4005005
:103D6000FFF73CFBBDE8084000214FF40050FFF78F
:103D700035BB01214FF40020FFF730FBBDE80840C0
:103D800000214FF40020FFF729BB01214FF48010E0
:103D9000FFF724FBBDE8084000214FF48010FFF737
:103DA0001DBB01214FF40010FFF718FBBDE80840D0
:103DB00000214FF40010FFF711BB01214020FFF755
:103DC0001BFBBDE8084000214020FFF715BB012187
:103DD0008020FFF711FBBDE8084000218020FFF79D
:103DE0000BBB01214FF48070FFF706FBBDE80840D4
:103DF00000214FF48070FFF7FFBA01214FF48030AB
:103E0000FFF7ECFABDE8084000214FF48030FFF7DF
:103E1000E5BA00BF002C014000040040000800404B
:103E2000000C00400010004000140040003401402D
:103E3000004C014000500140005401400018004077
:103E4000001C0040002000400040014000440140B0
:103E500000480140254A038890429BB212D002F5E7
:103E6000006290420ED0B0F1804F0BD0A2F5983294
:103E7000904207D002F58062904203D002F5806242
:103E8000904203D14A8823F070031343184A9042AA
:103E900024D002F58062904220D0CA8823F4407377
:103EA0009BB2134303808A88104B82850A8898420C
:103EB00002850ED00F4B98420BD003F54063984219
:103EC00007D003F58063984203D003F580639842DE
:103ED00001D10B7A038601238382704703808B888C
:103EE00083850B880385012383827047002C014062
:103EF0000010004000340140038CF0B423F00103B3
:103F00001B041B0C0384048C8788028B0E8924F00D
:103F100002044B881B4D240422F07302240C33430B
:103F200012040E882343120CA8429BB2BCB242EA90
:103F3000060216D005F50065A84212D005F54065C9
:103F4000A8420ED005F58065A8420AD005F5806527
:103F5000A84206D084800283CA88F0BC828603848B
:103F600070474E898F89CD8923F00803334324F4A9
:103F700040748E883D4323F004032C433343A4B2A2
:103F8000E8E700BF002C0140038CF0B423F01003DD
:103F90001B041B0C0384038C858823F02003028BF5
:103FA0000C891B0422F4E6421B0C43EA0413174E4F
:103FB0000C8812044F88120C43EA071342EA0422C9
:103FC000B0429BB2ADB294B209D0114A904206D031
:103FD00085800483CA88F0BC0287038470474FF64B
:103FE000BF7623F080024B8992B242EA03128F8996
:103FF000164025F440658B88CA8945EA870546EA5C
:10400000031345EA82059BB2ADB2E1E7002C014003
:1040100000340140038CF0B423F480731B041B0CA8
:104020000384038C848823F40073828B0D891B0422
:10403000194E1B0C22F073024F8843EA0523120429
:104040000D8843EA0723120CB0429BB2A4B245EAA2
:1040500002050AD006F50066B04206D0848085834A
:10406000CA88F0BC8287038470474FF6FF3623F47A
:1040700000624B8992B242EA03228F89164024F4EF
:1040800040548B88CA8944EA071446EA032344EA69
:1040900002149BB2A4B2E1E7002C0140038CF0B4FF
:1040A00023F480531B041B0C0384028C848822F4A9
:1040B0000052838B0E89120423F4E643120C42EA69
:1040C0000632104D1B044F880E881B0C42EA073243
:1040D00043EA0623A84292B2A4B29BB20BD005F5E4
:1040E0000065A84207D084808383CB88F0BCA0F809
:1040F0004030028470478D8924F4804444EA85145A
:10410000A4B2F0E7002C0140F8B50B880D46044638
:10411000002B4ED0042B00F09880082B028C49888D
:1041200058D022F480521204120CAF882E890284D7
:10413000828B534822F440731B051B0D43EA07236F
:10414000228C43EA063384429BB292B229D000F516
:104150000060844225D0B4F1804F22D0A0F5983081
:1041600084421ED000F5806084421AD000F5806041
:10417000844216D047F6FF5041F48051104040EA87
:104180000102A3832284A28BE98822F440621204F4
:10419000120CA283A38B9BB243EA01239BB2A3839D
:1041A000F8BD22F4005242EA013292B242F4805247
:1041B000E7E70B898A884988FFF7B6FC038BEA8812
:1041C00023F00C031B041B0C0383038B9BB21343D0
:1041D0000383F8BD22F480721204120CAE882B897E
:1041E0000284828B264892B222F0F30242EA031341
:1041F000228C9BB2844243EA060392B238D000F587
:104200000060844234D0B4F1804F31D0A0F59830B2
:1042100084422DD000F58060844229D000F5806072
:10422000844225D022F4206241F480710A43A383A2
:104230002284A38BEA8823F00C031B041B0CA383AA
:10424000A38B9BB21343A383F8BD0B898A8849884B
:10425000FFF7A6FC028BE98822F440621204120CDC
:104260000283038B9BB243EA01239BB20383F8BD15
:1042700022F4007242EA012292B242F48072D6E73E
:10428000002C0140F8B50D464988AA8800292B88E2
:104290000CBF02260026012A0CBF0227012703B308
:1042A0002B89FFF77DFC028BE98822F4406212041F
:1042B000120C0283038B3A469BB243EA01239BB262
:1042C00003832B893146FFF72FFC038BEA8823F009
:1042D0000C031B041B0C0383038B9BB2134303834C
:1042E000F8BD2B89FFF720FC038BE98823F00C0332
:1042F0001B041B0C0383038B3A469BB20B430383C3
:1043000031462B89FFF74CFC028BE98822F440628E
:104310001204120C0283038B9BB243EA01239BB26B
:104320000383F8BD10B44B880C888A882343CC885B
:1043300013430A8923434C8913438A892343134334
:104340009BB2A0F8443010BC704700BF4FF6FF721C
:10435000002382800380C38043800372704700BFC4
:104360000023038043808380C38003814381838152
:10437000C381704700230122828003804380C38071
:10438000038170470023038043808380C3800381BF
:1043900043818381704700BF038829B923F001035B
:1043A0001B041B0C038070479BB243F00103038086
:1043B000704700BFB0F8443021B9C3F30E03A0F832
:1043C000443070476FEA43436FEA53439BB2A0F80F
:1043D00044307047818270470A43A0F848207047F4
:1043E00083899BB21AB923EA01018181704719437D
:1043F00081817047FFF7F4BF038923F007031B0493
:104400001B0C0381704700BF038923F070031B045A
:104410001B0C1943018103899BB243F007030381FD
:10442000704700BF602938B50D46044611464FF06D
:1044300001020ED0FFF778FB218921F070010904F9
:10444000090C2943218123899BB243F0070323816F
:1044500038BDFFF7A5FBEFE710B4048942EA032358
:10446000E4B223439BB219430181038910BC23F0BA
:1044700077031B041B0C43F077030381704700BFD5
:1044800010B4048942EA0323E4B223439BB21943E4
:104490000181038910BC9BB243F4804303817047C0
:1044A00010B40489E4B221430A4342EA032399B2D7
:1044B000018110BC704700BF01858282704700BF38
:1044C000038823F070031B041B0C19430180704701
:1044D000038923F070031B041B0C194301817047EF
:1044E00070B40689048B058C24F4407424F0030412
:1044F000ADB225F0220526F0070624042A4336042F
:10450000240C360C44F4807442EA0313314344F023
:1045100001049AB201810483028470BC704700BF19
:10452000038B23F070031B041B0C1943018370479A
:10453000038B23F4E0431B041B0C43EA012189B2E3
:1045400001837047838B23F070031B041B0C1943FA
:1045500081837047838B23F4E0431B041B0C43EAE5
:10456000012189B281837047038829B923F0800330
:104570001B041B0C038070479BB243F08003038035
:10458000704700BF838829B923F004031B041B0C68
:10459000838070479BB243F004038380704700BF61
:1045A000838829B923F008031B041B0C8380704700
:1045B0009BB243F008038380704700BF838829B90A
:1045C00023F001031B041B0C838070479BB243F054
:1045D00001038380704700BF038B23F008031B0493
:1045E0001B0C194301837047038B23F400631B04E6
:1045F0001B0C43EA012189B201837047838B23F0AE
:1046000008031B041B0C194381837047838B23F41D
:1046100000631B041B0C43EA012189B281837047AC
:10462000038B23F004031B041B0C19430183704705
:10463000038B23F480631B041B0C43EA012189B222
:1046400001837047838B23F004031B041B0C194365
:1046500081837047838B23F480631B041B0C43EA24
:10466000012189B281837047038B23F080031B04EF
:104670001B0C194301837047038BC3F30E0343EAFA
:10468000012189B201837047838B23F080031B04CF
:104690001B0C194381837047838BC3F30E0343EADA
:1046A000012189B281837047038C23F002031B042C
:1046B0001B0C194301847047038C23F008031B046F
:1046C0001B0C194301847047038C23F020031B0447
:1046D0001B0C43EA011189B201847047038C23F05B
:1046E00080031B041B0C43EA011189B2018470474B
:1046F000038C23F400731B041B0C43EA012189B2D1
:1047000001847047038C23F400631B041B0C43EAF1
:10471000012189B201847047038C23F400531B04E8
:104720001B0C43EA013189B20184704710B4048C38
:1047300001238B40A4B224EA03040484038C8A403E
:1047400013439BB2038410BC704700BF10B4048CA9
:1047500004238B40A4B224EA03040484038C8A401B
:1047600013439BB2038410BC704700BF10B4048C89
:104770000123A4B28B4024EA030321F0080403843C
:1047800018306CB10439C1F34E010B58120223F4F6
:10479000E0430B500B5892B21A430A5010BC7047BA
:1047A00049080B5823F070030B500B581A430A505A
:1047B00010BC7047038829B923F002031B041B0CAB
:1047C000038070479BB243F002030380704700BF31
:1047D000038829B923F004031B041B0C03807047D2
:1047E0009BB243F004030380704700BF838829B95C
:1047F00023F080031B041B0C838070479BB243F0A3
:1048000080038380704700BF038823F008031B04E4
:104810001B0C038003889BB219430180704700BFC3
:10482000838823F070031B041B0C838083889BB256
:1048300019438180704700BF038923F007031B04DD
:104840001B0C038103899BB219430181704700BF90
:10485000038923F080031B041B0C038103899BB293
:1048600019430181704700BF81847047818570477B
:10487000818670470187704781877047A0F8401094
:10488000704700BF038B23F00C031B041B0C038336
:10489000038B9BB219430183704700BF038B23F442
:1048A00040631B041B0C0383038B9BB243EA01216F
:1048B00089B20183704700BF838B23F00C031B0474
:1048C0001B0C8383838B9BB219438183704700BF8A
:1048D000838B23F440631B041B0C8383838B9BB269
:1048E00043EA012189B28183704700BF038823F422
:1048F00040731B041B0C038003889BB21943018087
:10490000704700BF808E80B2704700BF008F80B2BA
:10491000704700BF808F80B2704700BFB0F8400082
:1049200080B27047808C80B2704700BF008D80B22B
:10493000704700BF038A194214BF0120002070474E
:10494000C94389B201827047038A828911EA030050
:1049500092B203D0114214BF01200020704700BF63
:10496000C94389B20182704708B5264B984218D0D6
:10497000254B984221D0254B98422AD0244B98426F
:1049800033D0244B984200D008BD01214FF4801051
:10499000FEF732FDBDE8084000214FF48010FEF71D
:1049A0002BBD01214FF48040FEF718FDBDE8084003
:1049B00000214FF48040FEF711BD01214FF400307B
:1049C000FEF71AFDBDE8084000214FF40030FEF765
:1049D00013BD01214FF48020FEF70EFDBDE8084015
:1049E00000214FF48020FEF707BD01214FF4002085
:1049F000FEF702FDBDE8084000214FF40020FEF75D
:104A0000FBBC00BF003801400044004000480040AB
:104A1000004C00400050004030B504460D46038A6B
:104A2000CA889BB223F440531343038282890B89C3
:104A3000888892B24989034322F4B0520B4322F092
:104A40000C0213439BB2A381A38AAA899BB223F4CD
:104A5000407387B01343A38201A8FEF747FC049973
:104A60001A48039BA289844208BF0B4612F4004FE8
:104A70002A6803EB830314BF5200920003EB830305
:104A8000B3FBF2F3124DA189A5FB03206422400978
:104A900000FB12330A044FEA00100AD41A01323222
:104AA000A5FB0223C3F3431303439BB2238107B047
:104AB00030BDD9003231A5FB0131C1F3421242EAC7
:104AC00000039BB2238107B030BD00BF0038014016
:104AD0001F85EB5100234FF416510C2201604281D7
:104AE0008380C38003818381704700BF30B40D8809
:104AF0004B888C88028A2B43C988234392B20B438C
:104B000022F4706213439BB2038230BC704700BF33
:104B10000023038043808380C3807047838929B941
:104B200023F400531B041B0C838170479BB243F496
:104B300000538381704700BF10B401F01F04C1F31C
:104B400042110123012903FA04F30FD002290CBFFB
:104B5000103014302AB9026822EA0303036010BC43
:104B6000704702681343036010BC70470C30F1E7D4
:104B7000838A9BB21AB923EA0101818270471943E3
:104B800081827047038A23F00F031B041B0C0382EE
:104B9000038A9BB219430182704700BF838923F4C3
:104BA00000631B041B0C838183899BB219438181A1
:104BB000704700BF838929B923F002031B041B0C33
:104BC000838170479BB243F002038381704700BF2B
:104BD000038A23F020031B041B0C0382038A9BB26D
:104BE00019430182704700BF038A29B923F4804327
:104BF0001B041B0C038270479BB243F48043038267
:104C0000704700BFC1F30801818070478088C0F3FE
:104C10000800704783899BB243F00103838170478A
:104C2000038BDBB20383038B9BB243EA0121018335
:104C3000704700BF038B03F47F430383038B9BB256
:104C400019430183704700BF838A29B923F02003E9
:104C50001B041B0C838270479BB243F020038382AA
:104C6000704700BF838A29B923F010031B041B0C73
:104C7000838270479BB243F010038382704700BF6A
:104C8000838A29B923F008031B041B0C8382704715
:104C90009BB243F008038382704700BF838919B930
:104CA000C3F30E03838170476FEA43436FEA5343B4
:104CB0009BB28381704700BF838A29B923F40063C4
:104CC0001B041B0C838270479BB243F400638382F6
:104CD000704700BF838A23F004031B041B0C8382EC
:104CE000838A9BB219438182704700BF838A29B9A6
:104CF00023F002031B041B0C838270479BB243F01A
:104D000002038382704700BF0388194214BF012049
:104D100000207047C94389B201807047C1F3421235
:104D200010B4012301F01F04012A03FA04F315D083
:104D3000022A0CBF028A828A92B21340028892B27F
:104D40004BB10123090A03FA01F10A4214BF1846C4
:104D5000002010BC7047184610BC7047828992B280
:104D60001340EBE7090A012303FA01F1C94389B2B1
:104D70000180704708B501214FF40060FEF73CFB4D
:104D8000BDE8084000214FF40060FEF735BB00BFCE
:104D9000034A536823F4C07318435060704700BF40
:104DA000002C004082B0084A00230193536800F0B1
:104DB0007F0023F07F030193019B18430190019B27
:104DC000536002B0704700BF002C0040014B01222D
:104DD0001A607047A4800542024B00F07F00186003
:104DE000704700BF002C0040024B40F0800018606C
:104DF000704700BF002C0040014B9868C0B270475C
:104E0000002C0040014B00229A607047002C0040AB
:104E100010B5012182B00420FEF7C4FA0324102249
:104E2000002301A905488DF80640ADF804208DF84F
:104E30000730FDF7D7FD02B010BD00BF00080140EC
:104E400010B54CF25034012184B00846FEF7B8FA90
:104E50004FF43472002301A94FF08040ADF80420D4
:104E6000ADF80630ADF80840FEF7F4FF01214FF031
:104E70008040FFF791FA04B010BD00BF10B582B0BA
:104E8000002301241C2201A88DF804208DF8053090
:104E90008DF806308DF80740FBF79AFE2246214632
:104EA0004FF08040FFF7A6FA02B010BD10B5012107
:104EB00086B04FF40070FEF775FA012400234FF41A
:104EC000602201A9154801938DF8083004930392DC
:104ED0008DF809408DF81440FBF708FF22460723A0
:104EE00004210E48FBF782FF0C482146FBF72CFFFC
:104EF0000A48FBF747FF0948FBF74AFF0028FAD1A9
:104F00000648FBF749FF0548FBF74CFF0028FAD19C
:104F100001210248FBF74AFF06B010BD0024014002
:104F200030B50E4C83B000231222012501A88DF864
:104F300004208DF805308DF806308DF80750FBF70A
:104F400047FE20464FF40871FCF764F82A462046D5
:104F50004FF40871FBF70CFF03B030BD0024014093
:104F600008B5FBF7DFFA0748FBF7BAFDFFF750FF7C
:104F7000FFF766FFFFF79AFFFFF7D2FFFBF70CFC86
:104F8000FEE700BF40420F0008B501214FF080400E
:104F9000FFF7DAFC00B908BD01210548FBF706FF61
:104FA000BDE8084001214FF08040FFF7D9BC00BFA9
:104FB0000024014008B502210648FCF715F8002836
:104FC000F9D00448FBF766FFBDE8084001460248F7
:104FD00000F0E0BE00240140F07200080649074AD4
:104FE000074B9A42BEBF51F8040B42F8040BF8E796
:104FF0000448804704480047A473000800000020CC
:105000009800002095500008490100081F49204AD7
:10501000002301E041F8043B9142FBD3FFF7A0FFDE
:10502000FEE7FEE7FEE7FEE7FEE7FEE7FEE7FEE758
:10503000FEE7FEE7FEE7FEE7FEE7FEE7FEE7FEE748
:10504000FEE7FEE7FEE7FEE7FEE7FEE7FEE7FEE738
:10505000FEE7FEE7FEE7FEE7FEE7FEE7FEE7FEE728
:10506000FEE7FEE7FEE7FEE7FEE7FEE7FEE7FEE718
:10507000FEE7FEE7FEE7FEE7FEE7FEE7FEE7FEE708
:10508000FEE7FEE7FEE7FEE7FEE7FEE7A000002002
:105090000401002030B43C4B3C49186882B040F019
:1050A000010018605D6800202940596019684FF4BC
:1050B0001F0421F0847121F48031196019681A46A7
:1050C00021F480211960596821F4FE0159609C6027
:1050D00000900190196841F48031196003E0009B51
:1050E000B3F5A06F09D0136803F400330193009B5C
:1050F00001330093019B002BF1D0234B1B6813F469
:10510000003318BF01230193019B012B06D0204BD4
:105110004FF000629A6002B030BC70471D4A1A4BD3
:105120001068194640F010001060106820F003006D
:105130001060106840F0020010605A685A605A68A7
:105140005A605A6842F480625A605A6822F47C12AB
:105150005A605A6842F4E8125A601A6842F0807243
:105160001A600B68084A9B01FBD51146536823F06F
:1051700003035360536843F0020353604B6803F02A
:105180000C03082BFAD1C2E7001002400000FFF820
:1051900000ED00E000200240114A536803F00C03C8
:1051A000082B0ED153685168C3F38343C90303F13D
:1051B000020311D5526892030ED40A4A02FB03F38C
:1051C00000E0084B064A084852680849C2F3031237
:1051D000825CD3400B607047054A02FB03F3F1E7A2
:1051E0000010024000127A00180000202800002061
:1051F00000093D0081F0004102E000BF83F0004360
:1052000030B54FEA41044FEA430594EA050F08BF61
:1052100090EA020F1FBF54EA000C55EA020C7FEA25
:10522000645C7FEA655C00F0E2804FEA5454D4EBA2
:105230005555B8BF6D420CDD2C4480EA020281EA6C
:10524000030382EA000083EA010180EA020281EAA4
:105250000303362D88BF30BD11F0004F4FEA0131F6
:105260004FF4801C4CEA113102D0404261EB410105
:1052700013F0004F4FEA03334CEA133302D052428B
:1052800063EB430394EA050F00F0A780A4F1010447
:10529000D5F1200E0DDB02FA0EFC22FA05F2801881
:1052A00041F1000103FA0EF2801843FA05F3594167
:1052B0000EE0A5F120050EF1200E012A03FA0EFCE6
:1052C00028BF4CF0020C43FA05F3C01851EBE37110
:1052D00001F0004507D54FF0000EDCF1000C7EEB2D
:1052E00000006EEB0101B1F5801F1BD3B1F5001F6B
:1052F0000CD349085FEA30004FEA3C0C04F101048A
:105300004FEA445212F5800F80F09A80BCF1004FB2
:1053100008BF5FEA500C50F1000041EB045141EA34
:10532000050130BD5FEA4C0C404141EB010111F435
:10533000801FA4F10104E9D191F0000F04BF0146E0
:105340000020B1FA81F308BF2033A3F10B03B3F1BE
:1053500020020CDA0C3208DD02F1140CC2F10C024E
:1053600001FA0CF021FA02F10CE002F11402D8BFAC
:10537000C2F1200C01FA02F120FA0CFCDCBF41EA78
:105380000C019040E41AA2BF01EB0451294330BD47
:105390006FEA04041F3C1CDA0C340EDC04F1140424
:1053A000C4F1200220FA04F001FA02F340EA0300FB
:1053B00021FA04F345EA030130BDC4F10C04C4F141
:1053C000200220FA02F001FA04F340EA0300294621
:1053D00030BD21FA04F0294630BD94F0000F83F46B
:1053E000801306BF81F480110134013D4EE77FEA4E
:1053F000645C18BF7FEA655C29D094EA050F08BF9A
:1054000090EA020F05D054EA000C04BF194610467A
:1054100030BD91EA030F1EBF0021002030BD5FEABE
:10542000545C05D14000494128BF41F0004130BDE6
:1054300014F580043CBF01F5801130BD01F000453A
:1054400045F0FE4141F470014FF0000030BD7FEAAD
:10545000645C1ABF194610467FEA655C1CBF0B46A8
:10546000024650EA013406BF52EA033591EA030FBF
:1054700041F4002130BD00BF90F0000F04BF0021B7
:10548000704730B54FF4806404F132044FF00005EA
:105490004FF0000150E700BF90F0000F04BF002163
:1054A000704730B54FF4806404F1320410F00045C9
:1054B00048BF40424FF000013EE700BF42004FEAC4
:1054C000E2014FEA31014FEA02701FBF12F07F4341
:1054D00093F07F4F81F06051704792F0000F14BF3E
:1054E00093F07F4F704730B54FF4607401F0004582
:1054F00021F0004120E700BF50EA010208BF7047D9
:1055000030B54FF000050AE050EA010208BF7047CD
:1055100030B511F0004502D5404261EB41014FF436
:10552000806404F132045FEA915C3FF4DCAE4FF03A
:1055300003025FEADC0C18BF03325FEADC0C18BF21
:10554000033202EBDC02C2F1200300FA03FC20FA72
:1055500002F001FA03FE40EA0E0021FA02F11444BF
:10556000C1E600BF70B54FF0FF0C4CF4E06C1CEAD4
:1055700011541DBF1CEA135594EA0C0F95EA0C0F49
:1055800000F0DEF82C4481EA030621EA4C5123EABC
:105590004C5350EA013518BF52EA033541F48011EB
:1055A00043F4801338D0A0FB02CE4FF00005E1FB9E
:1055B00002E506F00042E0FB03E54FF00006E1FBE8
:1055C00003569CF0000F18BF4EF0010EA4F1FF042B
:1055D000B6F5007F64F5407404D25FEA4E0E6D416B
:1055E00046EB060642EAC62141EA55514FEAC5207C
:1055F00040EA5E504FEACE2EB4F1FD0C88BFBCF5F8
:10560000E06F1ED8BEF1004F08BF5FEA500E50F1A8
:10561000000041EB045170BD06F0004646EA01016E
:1056200040EA020081EA0301B4EB5C04C2BFD4EBA0
:105630000C0541EA045170BD41F480114FF0000E99
:10564000013C00F3AB8014F1360FDEBF002001F007
:10565000004170BDC4F10004203C35DA0C341BDC81
:1056600004F11404C4F1200500FA05F320FA04F053
:1056700001FA05F240EA020001F0004221F0004187
:1056800010EBD37021FA04F642EB06015EEA430EFA
:1056900008BF20EAD37070BDC4F10C04C4F120052A
:1056A00000FA04F320FA05F001FA04F240EA0200DD
:1056B00001F0004110EBD37041F100015EEA430EAE
:1056C00008BF20EAD37070BDC4F1200500FA05F2CE
:1056D0004EEA020E20FA04F301FA05F243EA02034D
:1056E00021FA04F001F0004121FA04F220EA02005C
:1056F00000EBD3705EEA430E08BF20EAD37070BDA2
:1057000094F0000F0FD101F00046400041EB010181
:1057100011F4801F08BF013CF7D041EA060195F063
:10572000000F18BF704703F00046520043EB03031D
:1057300013F4801F08BF013DF7D043EA060370470A
:1057400094EA0C0F0CEA135518BF95EA0C0F0CD015
:1057500050EA410618BF52EA4306D1D181EA03015B
:1057600001F000414FF0000070BD50EA410606BF55
:105770001046194652EA430619D094EA0C0F02D19A
:1057800050EA013613D195EA0C0F05D152EA0336DF
:105790001CBF104619460AD181EA030101F00041FD
:1057A00041F0FE4141F470014FF0000070BD41F046
:1057B000FE4141F4780170BD70B54FF0FF0C4CF420
:1057C000E06C1CEA11541DBF1CEA135594EA0C0F3F
:1057D00095EA0C0F00F0A7F8A4EB050481EA030E8C
:1057E00052EA03354FEA013100F088804FEA033373
:1057F0004FF0805545EA131343EA12634FEA022241
:1058000045EA111545EA10654FEA00260EF0004101
:105810009D4208BF964244F1FD0404F5407402D253
:105820005B084FEA3202B61A65EB03055B084FEAE4
:1058300032024FF480104FF4002CB6EB020E75EBE1
:10584000030E22BFB61A754640EA0C005B084FEA09
:105850003202B6EB020E75EB030E22BFB61A754686
:1058600040EA5C005B084FEA3202B6EB020E75EBD1
:10587000030E22BFB61A754640EA9C005B084FEA49
:105880003202B6EB020E75EB030E22BFB61A754656
:1058900040EADC0055EA060E18D04FEA051545EA45
:1058A00016754FEA06164FEAC30343EA52734FEAEE
:1058B000C2025FEA1C1CC0D111F4801F0BD141EA67
:1058C00000014FF000004FF0004CB6E711F4801FCC
:1058D00004BF01430020B4F1FD0C88BFBCF5E06FAC
:1058E0003FF6AFAEB5EB030C04BFB6EB020C5FEABC
:1058F000500C50F1000041EB045170BD0EF0004E11
:105900004EEA113114EB5C04C2BFD4EB0C0541EA42
:10591000045170BD41F480114FF0000E013C90E63F
:1059200045EA060E8DE60CEA135594EA0C0F08BF03
:1059300095EA0C0F3FF43BAF94EA0C0F0AD150EA02
:1059400001347FF434AF95EA0C0F7FF425AF104695
:1059500019462CE795EA0C0F06D152EA03353FF4BD
:10596000FDAE1046194622E750EA410618BF52EA3A
:1059700043067FF4C5AE50EA41047FF40DAF52EA0E
:1059800043057FF4EBAE12E74A0011D212F5001284
:1059900011D20DD56FF47873B3EB62520ED44FEA87
:1059A000C12343F0004343EA505323FA02F0704707
:1059B0004FF00000704750EA013002D14FF0FF3045
:1059C00070474FF00000704753B94AB9002908BF2B
:1059D00000281CBF4FF0FF314FF0FF3000F082B9BC
:1059E000ADF1080C6DE904CE00F006F8DDF804E036
:1059F000DDE9022304B070472DE9F04F8C460C46D8
:105A00000546099E002B4FD18A4217466BD9B2FA40
:105A100082FEBEF1000F0BD0CEF1200520FA05F575
:105A200001FA0EF345EA030C02FA0EF700FA0EF53E
:105A3000390CBCFBF1F0BAB201FB10C300FB02F859
:105A40004FEA154C4CEA0344A04509D9E41900F18A
:105A5000FF3380F02881A04540F2258102383C4484
:105A6000C8EB0404B4FBF1F301FB134C03FB02F29B
:105A7000ACB244EA0C418A4209D9C91903F1FF3496
:105A800080F00F818A4240F20C81023B39448A1A2D
:105A900043EA00400021002E63D022FA0EF20023D8
:105AA00086E80C00BDE8F08F8B4207D9002E56D057
:105AB000002186E811000846BDE8F08FB3FA83F1B3
:105AC000002940F09380A34202D3824200F2FE807C
:105AD000851A64EB03039C460120002E41D086E822
