:020000040800F2
:1000000000500020CD06000813070008150700085F
:1000100017070008190700081B0700080000000068
:100020000000000000000000000000001D070008A4
:100030001F07000800000000210700082307000830
:1000400027070008290700082B0700082D070008CC
:100050002F0700083107000833070008350700089C
:1000600037070008390700083B0700083D0700086C
:100070003F0700084107000843070008450700083C
:1000800047070008490700084B0700084D0700080C
:100090004F070008510700085307000855070008DC
:1000A00057070008590700085B0700085D070008AC
:1000B0005F0700086107000863070008650700087C
:1000C00067070008690700086B0700086D0700084C
:1000D0006F0700087107000873070008750700081C
:1000E00077070008790700087B07000810B5054C62
:1000F000237833B9044B13B10448AFF300800123D4
:10010000237010BD8000002000000000900900084E
:10011000084B10B51BB108490848AFF300800848E8
:10012000036803B910BD074B002BFBD0BDE810409E
:10013000184700BF0000000084000020900900085C
:100140007C00002000000000154B002B08BF134B63
:100150009D46A3F5803A00218B460F461348144A6A
:10016000121A00F0CBFB0F4B002B00D098470E4B20
:10017000002B00D098470020002104000D000D48FE
:10018000002802D00C48AFF3008000F091FB200063
:10019000290000F0EDF900F077FB00BF0000080037
:1001A000005000200000000000000000800000203F
:1001B000C00000200000000000000000184B4FF0BD
:1001C000000C1A462DE9F0414142012489B2013860
:1001D000DFF85480DFF854E0124F9984000C1C8043
:1001E0004FF08046D8E90045A2F810C0138ACEF837
:1001F000806120BF138A0A499BB2002BF9D0BB68EB
:10020000013823445B4223F07F43E41845F10005A5
:10021000431CE9D1C8E9004500230B80BDE8F0810B
:100220000008004010E000E0A000002000E100E035
:1002300008B1FFF7C3BF70474FF47A7303FB00F0B8
:1002400000B97047FFF7BABFF0B44FF6FF76114B15
:100250000021114D6FF07F400522586099601A60AF
:10026000EA690E4B01200E4C42F004024727EA6176
:1002700019801F859E85988222690A4942F01002E2
:10028000226198810B6823F0070303430B60F0BCE5
:10029000704700BF10E000E000100240000800407E
:1002A00000ED00E000200240CB782DE9F04103F0A2
:1002B0000F06DB0648BF8B780C8848BF1E4314F03E
:1002C000FF0F26D00568002301274FF00F0803E039
:1002D0000133082B1BD00C8807FA03F232EA04041E
:1002E000F6D19C0091F803E008FA04FC25EA0C051D
:1002F00006FA04F4BEF1280F45EA040538D0BEF131
:10030000480F03F1010308BF0261082BE3D1056028
:100310000C88FF2C2AD94568002301274FF00F0CC9
:1003200003E00133082B20D00C8803F1080207FA00
:1003300002F232EA0404F4D191F803E09C00BEF129
:10034000280F04BF426191F803E00CFA04F8BEF1F3
:10035000480F03F1010325EA080506FA04F408BF73
:100360000261082B45EA0405DED14560BDE8F08155
:100370004261ADE78368194214BF01200020704735
:10038000016170474161704729B9054A936923EAC1
:10039000000090617047024B9A6910439861704762
:1003A0000010024038B510211C48FFF7E3FF38B9B0
:1003B0001B4A012013781B4943401370086038BD65
:1003C00040211648FFF7D6FF38B9154A154913786A
:1003D000086083F00103137038BD20210F48FFF738
:1003E000C9FF50B9104A114C1378114983F0010329
:1003F000012513702560086038BD4FF4004107489F
:10040000FFF7B8FF40B9084A084C1378084983F051
:10041000010313702060086038BD00BF0008014070
:10042000A800002010000020B800002000000020DC
:10043000B000002038B50546002414E0FFF7A0FF07
:100440000120FFF7F5FE4FF480410D48FFF798FFBC
:1004500001200444FFF7ECFE4FF480410848FFF709
:1004600091FF082C0BD005FA04F313F0800F4FF422
:1004700000510348E2D10248FFF784FFE0E738BDAE
:10048000000C0140F0B5344D83B02C68FF234122AD
:1004900000288DF800408DF801308DF802308DF87D
:1004A00003308DF8042012DD2C4F2D4E0DF1050286
:1004B00086FB0031C317C3EBA10303EB8301A0EB61
:1004C0004100395C184602F8011D002BF0D1254B84
:1004D0001B68012B2AD003B39DF800006C4601ADC8
:1004E000FFF7A8FFA54205D014F8010FFFF7A2FF00
:1004F000A542F9D10120FFF79BFE4FF400411A48B5
:10050000FFF73EFF0120FFF793FE17484FF400412D
:1005100003B0BDE8F040FFF735BF144A012310686F
:1005200003FA00F0C0B28DF80000D7E7FF2C0FD01F
:100530009DF80030FF2B0BD060B20C4A01231268EB
:1005400093401843C0B21C438DF800002C60C5E7EF
:1005500000242046F1E700BFB00000200400002086
:100560006766666600000020000C0140AC000020B9
:100570004D4C2DE98848FFF767FE01210820FFF761
:1005800003FF022510224FF4604321464748E270E2
:100590002380A570FFF788FE01210420FFF7F4FEF9
:1005A00048F27003424EDFF81C9148222146414830
:1005B000A570E27023803746FFF776FECA463E4CB0
:1005C0003E4DDFF80481FFF7EDFE237813B92B7859
:1005D000002BF8D03A4B1B68012B32D0002BF2D104
:1005E00042F20F7B0CE043B9D9F80030002BB4BFC6
:1005F000072303F1FF33CAF800302B78002BE2D039
:1006000030680028ABBF00F1FF3042F20F70386055
:10061000C7F800B0FFF736FF6420FFF70DFEFFF7C5
:10062000C1FE2378002BE8D0D8F80030012BDAD1B6
:10063000D9F80030072BCCBF00230133CAF80030B3
:10064000DBE74FF0000B0CE043B9D9F80030002B8A
:10065000B4BF072303F1FF33CAF800302B78002B17
:10066000B1D042F20F7330689842D5BF01300020FC
:100670003860C7F800B0FFF705FF6420FFF7DCFD26
:10068000FFF790FE2378002BE8D0D8F80030012B3C
:10069000DAD1D9F80030072BD6BF0133CAF800B041
:1006A000CAF80030DAE700BFBC000020000C0140AF
:1006B000B400002000080140B8000020A80000207D
:1006C00010000020AC000020000000200649074A6E
:1006D000074B9A42BEBF51F8040B42F8040BF8E7EF
:1006E00004488047044800479C0900080000002097
:1006F0007C00002085070008490100081F49204AA6
:10070000002301E041F8043B9142FBD3FFF730FFA7
:10071000FEE7FEE7FEE7FEE7FEE7FEE7FEE7FEE7B1
:10072000FEE7FEE7FEE7FEE7FEE7FEE7FEE7FEE7A1
:10073000FEE7FEE7FEE7FEE7FEE7FEE7FEE7FEE791
:10074000FEE7FEE7FEE7FEE7FEE7FEE7FEE7FEE781
:10075000FEE7FEE7FEE7FEE7FEE7FEE7FEE7FEE771
:10076000FEE7FEE7FEE7FEE7FEE7FEE7FEE7FEE761
:10077000FEE7FEE7FEE7FEE7FEE7FEE7800000207B
:10078000C000002030B43C4B3C49186882B040F0B7
:10079000010018605D6800202940596019684FF415
:1007A0001F0421F0847121F48031196019681A4600
:1007B00021F480211960596821F4FE0159609C6080
:1007C00000900190196841F48031196003E0009BAA
:1007D000B3F5A06F09D0136803F400330193009BB5
:1007E00001330093019B002BF1D0234B1B6813F4C2
:1007F000003318BF01230193019B012B06D0204B2E
:100800004FF000629A6002B030BC70471D4A1A4B2C
:100810001068194640F010001060106820F00300C6
:100820001060106840F0020010605A685A605A6800
:100830005A605A6842F480625A605A6822F47C1204
:100840005A605A6842F4E8125A601A6842F080729C
:100850001A600B68084A9B01FBD51146536823F0C8
:1008600003035360536843F0020353604B6803F083
:100870000C03082BFAD1C2E7001002400000FFF879
:1008800000ED00E00020024008B5074B044613B11C
:100890000021AFF30080054B1868836A03B19847C5
:1008A000204600F033F800BF000000002C090008CB
:1008B0000E4B70B51E460E4C0025E41AA410A5423E
:1008C00004D056F8253098470135F8E700F020F8B5
:1008D000084B094C1E46E41AA4100025A54204D07A
:1008E00056F8253098470135F8E770BD74000020B0
:1008F00074000020740000207800002003460244A9
:10090000934202D003F8011BFAE77047FEE70000AC
:10091000F8B500BFF8BC08BC9E467047F8B500BFEC
:10092000F8BC08BC9E46704743000000140000203D
:1009300000000000000000000000000000000000B7
:1009400000000000000000000000000000000000A7
:100950000000000000000000000000000000000097
:100960000000000000000000000000000000000087
:100970000000000000000000000000000000000077
:100980000000000000000000000000000000000067
:040990000000000063
:08099400B4F7FF7F0100000031
:10099C00FFFFFFFF415FD0544E646057404400009E
:1009AC00FFFFFFFF0000000030090008500900089D
:1009BC0070090008000000000000000000000000AA
:1009CC0000000000280900080000000000000000E2
:1009DC00000000000000000000000000000000000B
:1009EC0000000000000000000000000000000000FB
:1009FC0000000000000000000000000000000000EB
:0C0A0C000000000011010008ED000008CF
:0400000508000000EF
:00000001FF
