:020000040800F2
:1000000000500020FD0500084306000845060008D2
:1000100047060008490600084B06000800000000DB
:100020000000000000000000000000004D06000875
:100030004F060008000000005106000853060008A3
:1000400057060008590600085B0600085D06000810
:100050005F060008610600086306000865060008E0
:1000600067060008690600086B0600086D060008B0
:100070006F06000871060008730600087506000880
:1000800077060008790600087B0600087D06000850
:100090007F06000881060008830600088506000820
:1000A00087060008890600088B0600088D060008F0
:1000B0008F060008910600089306000895060008C0
:1000C00097060008990600089B0600089D06000890
:1000D0009F060008A1060008A3060008A506000860
:1000E000A7060008A9060008AB06000810B5054CD5
:1000F000237833B9044B13B10448AFF300800123D4
:10010000237010BD7800002000000000C408000823
:10011000084B10B51BB108490848AFF300800848E8
:10012000036803B910BD074B002BFBD0BDE810409E
:10013000184700BF000000007C000020C408000831
:100140007800002000000000154B002B08BF134B67
:100150009D46A3F5803A00218B460F461348144A6A
:10016000121A00F063FB0F4B002B00D098470E4B88
:10017000002B00D098470020002104000D000D48FE
:10018000002802D00C48AFF3008000F029FB2000CB
:10019000290000F0D3F900F00FFB00BF00000800B9
:1001A0000050002000000000000000007800002047
:1001B000AC0000200000000000000000184B4FF0D1
:1001C000000C1A462DE9F0414142012489B2013860
:1001D000DFF85480DFF854E0124F9984000C1C8043
:1001E0004FF08046D8E90045A2F810C0138ACEF837
:1001F000806120BF138A0A499BB2002BF9D0BB68EB
:10020000013823445B4223F07F43E41845F10005A5
:10021000431CE9D1C8E9004500230B80BDE8F0810B
:100220000008004010E000E09800002000E100E03D
:1002300008B1FFF7C3BF70474FF47A7303FB00F0B8
:1002400000B97047FFF7BABFF0B44FF6FF76114B15
:100250000021114D6FF07F400522586099601A60AF
:10026000EA690E4B01200E4C42F004024727EA6176
:1002700019801F859E85988222690A4942F01002E2
:10028000226198810B6823F0070303430B60F0BCE5
:10029000704700BF10E000E000100240000800407E
:1002A00000ED00E000200240CB782DE9F04103F0A2
:1002B0000F06DB0648BF8B780C8848BF1E4314F03E
:1002C000FF0F26D00568002301274FF00F0803E039
:1002D0000133082B1BD00C8807FA03F232EA04041E
:1002E000F6D19C0091F803E008FA04FC25EA0C051D
:1002F00006FA04F4BEF1280F45EA040538D0BEF131
:10030000480F03F1010308BF0261082BE3D1056028
:100310000C88FF2C2AD94568002301274FF00F0CC9
:1003200003E00133082B20D00C8803F1080207FA00
:1003300002F232EA0404F4D191F803E09C00BEF129
:10034000280F04BF426191F803E00CFA04F8BEF1F3
:10035000480F03F1010325EA080506FA04F408BF73
:100360000261082B45EA0405DED14560BDE8F08155
:100370004261ADE78368194214BF01200020704735
:10038000016170474161704729B9054A936923EAC1
:10039000000090617047024B9A6910439861704762
:1003A0000010024008B510212548FFF7E3FF18B9F7
:1003B000244B01221A6008BD40212148FFF7DAFFD3
:1003C00010B9204B186008BD20211D48FFF7D2FF4F
:1003D000A8B93220FFF730FF20211948FFF7CAFFE4
:1003E00048BB20211648FFF7C5FF0028F9D0164A60
:1003F0001368072BCCBF00230133136008BD4FF4F3
:1004000000410F48FFF7B6FFA8B93220FFF714FFED
:100410004FF400410A48FFF7ADFF60B94FF40041C7
:100420000748FFF7A7FF0028F8D0074A1368002BFA
:1004300002DB013B136008BD0723136008BD00BF4A
:10044000000801400C000020A000002038B505463F
:10045000002414E0FFF794FF0120FFF7E9FE4FF4BA
:1004600080410D48FFF78CFF01200444FFF7E0FEB8
:100470004FF480410848FFF785FF082C0BD005FAA0
:1004800004F313F0800F4FF400510348E2D1024807
:10049000FFF778FFE0E738BD000C0140034630B5B8
:1004A000214A83B010681279002B00908DF8042047
:1004B00012DD1E4D1E4C0DF1050184FB0320DA17E1
:1004C000C2EBA00202EB8200A3EB4003E85C134600
:1004D00001F8010D002AF0D16C46164A012310687C
:1004E00001AD03FA00F0C0B28DF80000FFF7AEFFD7
:1004F000AC4205D014F8010FFFF7A8FFAC42F9D1C8
:100500000120FFF795FE4FF400410B48FFF738FF3D
:100510000120FFF78DFE08484FF4004103B0BDE80D
:100520003040FFF72FBF00BF580800080000002030
:1005300067666666A0000020000C01402A4C80B56A
:10054000FFF782FE01210820FFF71EFF022610227E
:100550004FF4604321462548E2702380A670FFF7E0
:10056000A3FE01210420FFF70FFF48F27003204D86
:10057000482221461F48A670E27023802E46FFF7CE
:1005800093FE42F20F771C4CFFF70CFF2368012B00
:1005900015D0002BF8D128680028ABBF00F1FF3040
:1005A00042F20F7030603760FFF778FF6420FFF78A
:1005B00043FEFFF7F7FE2368002BECD0E4E74FF093
:1005C00000082B680020BB42DABF581C3060C6F818
:1005D0000080FFF763FF6420FFF72EFEFFF7E2FEC7
:1005E0002368012BEDD0CFE7A8000020000C0140CC
:1005F000A4000020000801400C0000200649074A22
:10060000074B9A42BEBF51F8040B42F8040BF8E7BF
:100610000448804704480047D00800080000002034
:1006200078000020B5060008490100081F49204A4B
:10063000002301E041F8043B9142FBD3FFF77EFF2A
:10064000FEE7FEE7FEE7FEE7FEE7FEE7FEE7FEE782
:10065000FEE7FEE7FEE7FEE7FEE7FEE7FEE7FEE772
:10066000FEE7FEE7FEE7FEE7FEE7FEE7FEE7FEE762
:10067000FEE7FEE7FEE7FEE7FEE7FEE7FEE7FEE752
:10068000FEE7FEE7FEE7FEE7FEE7FEE7FEE7FEE742
:10069000FEE7FEE7FEE7FEE7FEE7FEE7FEE7FEE732
:1006A000FEE7FEE7FEE7FEE7FEE7FEE77800002054
:1006B000AC00002030B43C4B3C49186882B040F09C
:1006C000010018605D6800202940596019684FF4E6
:1006D0001F0421F0847121F48031196019681A46D1
:1006E00021F480211960596821F4FE0159609C6051
:1006F00000900190196841F48031196003E0009B7B
:10070000B3F5A06F09D0136803F400330193009B85
:1007100001330093019B002BF1D0234B1B6813F492
:10072000003318BF01230193019B012B06D0204BFE
:100730004FF000629A6002B030BC70471D4A1A4BFD
:100740001068194640F010001060106820F0030097
:100750001060106840F0020010605A685A605A68D1
:100760005A605A6842F480625A605A6822F47C12D5
:100770005A605A6842F4E8125A601A6842F080726D
:100780001A600B68084A9B01FBD51146536823F099
:1007900003035360536843F0020353604B6803F054
:1007A0000C03082BFAD1C2E7001002400000FFF84A
:1007B00000ED00E00020024008B5074B044613B1ED
:1007C0000021AFF30080054B1868836A03B1984796
:1007D000204600F033F800BF000000006008000869
:1007E0000E4B70B51E460E4C0025E41AA410A5420F
:1007F00004D056F8253098470135F8E700F020F886
:10080000084B094C1E46E41AA4100025A54204D04A
:1008100056F8253098470135F8E770BD7000002084
:100820007000002070000020740000200346024485
:10083000934202D003F8011BFAE77047FEE700007D
:10084000F8B500BFF8BC08BC9E467047F8B500BFBD
:10085000F8BC08BC9E467047FFFFFFFF4143000005
:100860001000002000000000000000000000000058
:100870000000000000000000000000000000000078
:100880000000000000000000000000000000000068
:100890000000000000000000000000000000000058
:1008A0000000000000000000000000000000000048
:1008B0000000000000000000000000000000000038
:0808C000000000000000000030
:0808C80080F8FF7F0100000031
:1008D000415FD0544E64605740440000FFFFFFFF6B
:1008E000000000006408000884080008A40800084C
:1008F00000000000000000000000000000000000F8
:100900005D0800080000000000000000000000007A
:1009100000000000000000000000000000000000D7
:1009200000000000000000000000000000000000C7
:1009300000000000000000000000000000000000B7
:0809400011010008ED000008A0
:0400000508000000EF
:00000001FF
